:020000041000EA
:1000000000B5324B212058609868022188439860DF
:10001000D860186158612E4B002199600221596106
:100020000121F02299502B49196001219960352056
:1000300000F044F80222904214D00621196600F024
:1000400034F8196E01211966002018661A6600F04E
:100050002CF8196E196E196E052000F02FF8012189
:100060000842F9D1002199601B49196000215960AB
:100070001A491B48016001219960EB211966A021F2
:10008000196600F012F800219960164914480160C1
:100090000121996001BC002800D000471248134993
:1000A000086003C880F30888084703B5996A0420EC
:1000B0000142FBD001200142F8D103BD02B5186610
:1000C0001866FFF7F2FF186E186E02BD00000240BE
:1000D000000000180000070000035F00212200005C
:1000E000F4000018222000A00001001008ED00E03C
:1000F00000000000000000000000000074B24E7A12
:1001000000200420F7010010C3010010C5010010F9
:10011000C1010010C1010010C1010010C101001097
:10012000C1010010C1010010C1010010C701001081
:10013000C1010010C1010010C9010010CB01001065
:10014000CD010010CD010010CD010010CD01001037
:10015000CD010010CD010010CD010010CD01001027
:10016000CD010010CD010010CD010010CD01001017
:10017000CD010010CD010010CD010010CD01001007
:10018000CD010010CD010010CD010010CD010010F7
:10019000CD010010CD010010CD010010CD010010E7
:1001A000CD010010CD010010CD010010CD010010D7
:1001B000CD010010CD010010CD010010CD010010C7
:1001C00000BE00BE00BE00BE00BE00BE00F04BF888
:1001D000103800BEF2EB887194970110C09701109F
:1001E0003402001090A31AE700202149086006C8D5
:1001F00081F3088810471F48006800282FD10DA4FC
:100200000ECC002902D000F012F8F9E71A491B4A77
:10021000002000E001C19142FCD1194988471949E9
:1002200088471949884700BEFDE701C901C29A42C3
:10023000FBD37047C0970110C0000020AC0C022017
:10024000ACA303100000042000000420ACA30310A2
:1002500000100420001004200000000070470B482C
:100260000AF094FA0047EFF30580C0B2704700002F
:1002700008ED00E0000000D0B00C0220305B02204E
:10028000B18B0010A5510010A18C00105756000032
:1002900006005250ABB3605398E70010060052506E
:1002A000861C0302A8E70010060052505422A29DAB
:1002B000B0E7001005005250DE65F468ACA30310EF
:1002C000F8B5C04606480749091A8B10C90FC91866
:1002D00010B5491003D0044B002B00D0984710BD37
:1002E000AC0C0220AC0C022000000000054B10B545
:1002F000002B03D00449054800E000BFFFF7E2FFF0
:1003000010BDC04600000000A85A0220F8DD001011
:1003100030B500290AD045182021054A0478936990
:100320001942FCD101301460A842F7D130BDC0465B
:100330000040034030B500290AD045182021054A65
:10034000047893691942FCD101301460A842F7D1B6
:1003500030BDC046008003407047C04610B5002342
:100360000A20024A0BF0C8FB10BDC046102700004F
:1003700010B500230B20024A0BF0BEFB10BDC04697
:100380001027000010B500230C20024A0BF0B4FB2C
:1003900010BDC0461027000010B500230D20024AF2
:1003A0000BF0AAFB10BDC0461027000010B5134C7F
:1003B000237C012B05D0072B1CD8114A9B00D35856
:1003C0009F460222237001232274637007F0EAFF24
:1003D000A060E16010BD04220123F3E7062201239F
:1003E000F0E707220123EDE708220123EAE70322D1
:1003F0000123E7E7002300226361E3E7B00C02205A
:10040000F8DD001010B5144C237C042B05D0082B0C
:1004100011D8124A9B00D3589F4603220123237010
:1004200001232274637007F0BDFFA060E16010BD7E
:1004300007220123F3E7002300226361EFE7012293
:100440000123ECE705220123E9E706220123E6E781
:1004500002220123E3E7C046B00C022018DE0010A0
:1004600010B50A4B0A4C1A7853019B18DB00094A55
:100470000C339B186361052323740223FF3323800D
:1004800007F090FFA060E16010BDC046245B022031
:10049000B00C0220FC0F022010B50A4B0A4C1A784F
:1004A00053019B18DB00094A30339B186361012319
:1004B00023740223FF33238007F074FFA060E16000
:1004C00010BDC046245B0220B00C0220FC0F0220AD
:1004D00010B50A4B0A4C1A7853019B18DB00094AE5
:1004E00054339B186361012323740223FF33238059
:1004F00007F058FFA060E16010BDC046245B0220F9
:10050000B00C0220FC0F022010B50A4B0A4C1A78DE
:1005100053019B18DB00094A78339B186361012360
:1005200023740223FF33238007F03CFFA060E160C7
:1005300010BDC046245B0220B00C0220FC0F02203C
:1005400010B50A4B0A4C1A7853019B18DB00094A74
:100550009C339B186361012323740223FF332380A0
:1005600007F020FFA060E16010BDC046245B0220C0
:10057000B00C0220FC0F022010B50A4B0A4C1A786E
:1005800053019B18DB00094AC0339B1863610123A8
:1005900023740223FF33238007F004FFA060E1608F
:1005A00010BDC046245B0220B00C0220FC0F0220CC
:1005B00010B50A4B0A4C1A7853019B18DB00094A04
:1005C000E4339B186361012323740223FF332380E8
:1005D00007F0E8FEA060E16010BDC046245B022089
:1005E000B00C0220FC0F022010B50449044808F0AA
:1005F0006FFA0221002008F023FA10BD127A0000E1
:100600000040034010B50449044808F061FA022193
:10061000042008F015FA10BD127A00000080034093
:1006200010B508F0F5F906F007FD10BD10B5020091
:100630000B000020002106F0CDFA10BD7047C04627
:100640007047C0467047C0467047C0467047C046B6
:1006500010B5074C206808F01DFA01232068D0224D
:100660008340120693620121002208F001FA10BDB6
:10067000C006022010B5074C206808F00BFA0123D1
:100680002068D0228340120693620121002208F0E4
:10069000EFF910BD0807022010B5074C206808F0DC
:1006A000F9F901232068D0228340120693620121C8
:1006B000002208F0DDF910BDA005022010B5074C9E
:1006C000206808F0E7F901232068D0228340120651
:1006D00093620121002208F0CBF910BDE805022049
:1006E00010B5074C206808F0D5F901232068D02206
:1006F0008340120693620121002208F0B9F910BD6F
:100700003006022010B5074C206808F0C3F9012319
:100710002068D0228340120693620121002208F053
:10072000A7F910BD78060220F8B500230C4F00246D
:100730000C4D0D4E3B7605E001340935E4B2FF3532
:10074000402C0AD0310028680DF092F90028F3D12E
:10075000064B1C700023BB70F8BD0024F8E7C046B0
:10076000B00C0220001002203CDE0010245B0220AE
:10077000F8B5174E347E002C16D0013C3476154D5A
:100780000024154F05E001340935E4B2FF35402C53
:100790001BD0390028680DF06BF90028F3D10F4BFE
:1007A0001C700023B370F8BD0D4B0A4D1F6805E0A7
:1007B00001340935E4B2FF35402C06D039002868F1
:1007C0000DF056F90028F3D1E9E70024E7E7C04629
:1007D000B00C0220001002203CDE0010245B02203E
:1007E000FC510220F8B5194E194B327E1B78DB08FC
:1007F0009A4216D201320024164D174F327605E088
:1008000001340935E4B2FF35402C1CD0390028688A
:100810000DF02EF90028F3D1104B1C700023B3709B
:10082000F8BD0F4B00241F680A4D05E0013409355F
:10083000E4B2FF35402C06D0390028680DF018F9D5
:100840000028F3D1E8E70024E6E7C046B00C022018
:10085000255B0220001002203CDE0010245B0220F9
:10086000FC510220F0B5DE4657464E464546E0B5FF
:100870000A7887B005900291002A00D192E0130017
:10088000002001310A3B5C4263410131C0184B1E1C
:100890001B78002BF6D1049013000021029803E08E
:1008A0000131435C002B01D00A2BF9D101230093C5
:1008B0000023019303934E4B8B4699460A2A00D19D
:1008C00077E04B4658469988203A4843C30F1B1897
:1008D00001985B1048435B429F331B184846C4880D
:1008E00004986243451C6543E80F4019059D40107C
:1008F0006F1E3F1A039860433F1807200840451EAB
:10090000A841CD084019424348460668B618002C55
:100910003ED0002292464022FF32D31A9846BFB200
:10092000002935D0002506E0073C63425C410135D3
:1009300036198D421CDA072480232C40234132785B
:100940001342F1D04346591B89B20B003A003800DC
:100950000CF078FD0121012226480CF09FFE4B4649
:10096000073C998863425C41013536198D42E2DBD0
:100970004B46DA8807230B40581E8341F6180123A3
:100980009C46E244524503DD0137BFB20029C9D17C
:10099000019B029A01330193009BD25C01330093C7
:1009A000002A8BD107B0F0BCBB46B246A946A04690
:1009B000F0BD039B009A01330393029B9A5C002ACB
:1009C000F0D0002100988B468446029913005846C7
:1009D000614403E001300B5C002B01D00A2BF9D1FC
:1009E000009B8346013300930023019366E7C046D2
:1009F00044080220FF070000D0B5354C237C002BB3
:100A000024D1D0231B065B682268A17CD34001223D
:100A100013406374994218D0002B2AD0266A676A63
:100A200007F0C0FC801BB941002949DC45D00123F7
:100A30002375A26AE36AA263E36307F0B3FC637CF5
:100A4000A062E162A37401232374D0BD637C002BF8
:100A500025D1266A676A07F0A5FC801BB941E368C7
:100A60008B4203DBF1D1A3688342EED200232374CF
:100A7000EBE7E274226A636A2263636307F092FC25
:100A8000A269E369206261620120002112184B41D2
:100A9000A261E361637CA37401232374D5E7A66A92
:100AA000E76A07F07FFC801BB941E3688B42DDDB1E
:100AB00009D0637C002BC8D1CBE7064B9842B6D94E
:100AC00001236375B5E7A3688342F2D2CEE7C0463F
:100AD000E805022040420F00D0B5354C237C002BA6
:100AE00024D1D0231B065B682268A17CD34001225D
:100AF00013406374994218D0002B2AD0266A676A83
:100B000007F050FC801BB941002949DC45D0012386
:100B10002375A26AE36AA263E36307F043FC637C84
:100B2000A062E162A37401232374D0BD637C002B17
:100B300025D1266A676A07F035FC801BB941E36856
:100B40008B4203DBF1D1A3688342EED200232374EE
:100B5000EBE7E274226A636A2263636307F022FCB4
:100B6000A269E369206261620120002112184B41F1
:100B7000A261E361637CA37401232374D5E7A66AB1
:100B8000E76A07F00FFC801BB941E3688B42DDDBAD
:100B900009D0637C002BC8D1CBE7064B9842B6D96D
:100BA00001236375B5E7A3688342F2D2CEE7C0465E
:100BB0000807022040420F00D0B5354C237C002BA3
:100BC00024D1D0231B065B682268A17CD34001227C
:100BD00013406374994218D0002B2AD0266A676AA2
:100BE00007F0E0FB801BB941002949DC45D0012317
:100BF0002375A26AE36AA263E36307F0D3FB637C15
:100C0000A062E162A37401232374D0BD637C002B36
:100C100025D1266A676A07F0C5FB801BB941E368E6
:100C20008B4203DBF1D1A3688342EED2002323740D
:100C3000EBE7E274226A636A2263636307F0B2FB44
:100C4000A269E369206261620120002112184B4110
:100C5000A261E361637CA37401232374D5E7A66AD0
:100C6000E76A07F09FFB801BB941E3688B42DDDB3D
:100C700009D0637C002BC8D1CBE7064B9842B6D98C
:100C800001236375B5E7A3688342F2D2CEE7C0467D
:100C90007806022040420F00D0B5354C237C002B53
:100CA00024D1D0231B065B682268A17CD34001229B
:100CB00013406374994218D0002B2AD0266A676AC1
:100CC00007F070FB801BB941002949DC45D00123A6
:100CD0002375A26AE36AA263E36307F063FB637CA4
:100CE000A062E162A37401232374D0BD637C002B56
:100CF00025D1266A676A07F055FB801BB941E36876
:100D00008B4203DBF1D1A3688342EED2002323742C
:100D1000EBE7E274226A636A2263636307F042FBD3
:100D2000A269E369206261620120002112184B412F
:100D3000A261E361637CA37401232374D5E7A66AEF
:100D4000E76A07F02FFB801BB941E3688B42DDDBCC
:100D500009D0637C002BC8D1CBE7064B9842B6D9AB
:100D600001236375B5E7A3688342F2D2CEE7C0469C
:100D7000A005022040420F00D0B5354C237C002B4B
:100D800024D1D0231B065B682268A17CD3400122BA
:100D900013406374994218D0002B2AD0266A676AE0
:100DA00007F000FB801BB941002949DC45D0012335
:100DB0002375A26AE36AA263E36307F0F3FA637C34
:100DC000A062E162A37401232374D0BD637C002B75
:100DD00025D1266A676A07F0E5FA801BB941E36806
:100DE0008B4203DBF1D1A3688342EED2002323744C
:100DF000EBE7E274226A636A2263636307F0D2FA64
:100E0000A269E369206261620120002112184B414E
:100E1000A261E361637CA37401232374D5E7A66A0E
:100E2000E76A07F0BFFA801BB941E3688B42DDDB5C
:100E300009D0637C002BC8D1CBE7064B9842B6D9CA
:100E400001236375B5E7A3688342F2D2CEE7C046BB
:100E50003006022040420F00D0B5354C237C002BD9
:100E600024D1D0231B065B682268A17CD3400122D9
:100E700013406374994218D0002B2AD0266A676AFF
:100E800007F090FA801BB941002949DC45D00123C5
:100E90002375A26AE36AA263E36307F083FA637CC3
:100EA000A062E162A37401232374D0BD637C002B94
:100EB00025D1266A676A07F075FA801BB941E36895
:100EC0008B4203DBF1D1A3688342EED2002323746B
:100ED000EBE7E274226A636A2263636307F062FAF3
:100EE000A269E369206261620120002112184B416E
:100EF000A261E361637CA37401232374D5E7A66A2E
:100F0000E76A07F04FFA801BB941E3688B42DDDBEB
:100F100009D0637C002BC8D1CBE7064B9842B6D9E9
:100F200001236375B5E7A3688342F2D2CEE7C046DA
:100F3000C006022040420F00F0B54E465746DE463E
:100F40004546E0B58FB0994618AB0C91197806006C
:100F50008A4611780A92002900D123E20B00002072
:100F600001320A3B5C4263410132C018531E1B78B8
:100F7000002BF6D10B900B0000220A9803E00132FF
:100F8000835C002B01D00A2BF9D1199B0892002B0E
:100F900003DD089A934200DD9EE15346013BDBB23C
:100FA0000093012305930023CB4607930993731EF7
:100FB0000D93C84B03930A2900D10FE15B46089AB1
:100FC0009B880B9C5A43D00F80180D9A4010101A22
:100FD000079A01345A4380185A46D288203954431C
:100FE000E50F2D190C9C6D10013C651B099C5443A9
:100FF0002D1907241C40661EB441DE08A4190E00FA
:101000005946564366430C68A419002A47D000216C
:1010100001914021FF31091A029189B2ADB20691C6
:10102000002B35D0199A002A00DD6EE0009A0027C7
:10103000052A62D90722904606E0073E72425641D1
:101040000137A419BB421CDD464680223E40324196
:1010500021781142F1D0029B2A00D91B89B20B00E2
:1010600028000CF0EFF90122012100200CF016FB02
:101070005B46073E724256419B880137A419BB422A
:10108000E2DC07215A461940481E8141D288641883
:101090000199013501310191ADB29142C0DB079B4D
:1010A000059A013307930A9B995C059B01330593CD
:1010B000002900D07FE70FB0F0BCBB46B246A9467E
:1010C000A046F0BD009B039A5B00D35A28009846C7
:1010D000029B2A00D91B89B20B000CF0B3F9012244
:1010E000012140460CF0DAFA5B469B88073E7242CB
:1010F00056410137A419BB42C3DD072680223E407A
:10110000324121781142F1D0DCE7009B069F052B8C
:1011100029D90023984607339A464346A846250016
:101120001C0056463B003900424640460CF08AF906
:101130000122012100200CF0B1FA26405B46073E57
:10114000724256419B88013F0134AD19BFB2A342A0
:10115000E7DC072119402C005A46481E81414546CC
:10116000D288641894E70023984607339A46793367
:1011700099462B0025004446984615E03B00424620
:10118000390040460CF05EF90122012100200CF0EC
:1011900085FA5B469B88073E72425641013F013407
:1011A000AD19BFB29C42D4DA56464A462640324177
:1011B0002B781A42E2D0009B039A5B009B5A3900BD
:1011C0004246404604933B000CF03CF901220121C9
:1011D00004980CF063FA5B469B88DCE705980024D2
:1011E00084460A9A099B115C0133099320000B0085
:1011F00008946244002904D106E00130135C002BFE
:1012000001D00A2BF9D1089000230793199B002BDA
:1012100000D14AE7089A934200DC46E71A005B4691
:101220000899DE88571A0B9A9B8801327243D10FB6
:1012300089180C9A4910013A521A0999A020714351
:10124000521895B2199A40005A437B43DC0FE418B8
:101250004023D10F89180D9A4910511A89B2FF33D2
:101260006410A4B29846721E5B1A411A091BAA1890
:101270009BB2814692B2280089B20CF0E3F83200AA
:10128000210000200CF00AFA5B4619999B880D9A00
:1012900059437B439446DA0FD3185E105B464246AF
:1012A00048464910DC88614476428B19D31A621E85
:1012B000411AAA189BB2280092B289B20CF0C2F867
:1012C0007142220089B200200CF0E8F90A9B059ACD
:1012D000995CEAE654E300100B9B01339846199B96
:1012E0009F1A484644464B46C5889A886C43E00F8F
:1012F0000019199C0C9B5443013B40109B46181A43
:10130000E30F1B19711E5B10CB1A009199B2402399
:10131000FF335B1A9BB29C46A0237A43D40FA418D8
:101320005B00641080B2A4B26A1E591A8218091BAD
:10133000634692B289B20CF085F82A0021000020A1
:101340000CF0ACF948468388C588404668435F4343
:10135000009A19999446C20F5943FC0F1318584626
:101360004022E419A02749106410614464425B10D4
:10137000C01AFF320B1980B2D31A7F006A1E82187E
:10138000791A9BB292B289B20CF05CF8614289B2D0
:101390002A0000200CF082F90A9B1978002900D05D
:1013A000FBE588E6199B002B00DC84E61F00012387
:1013B000984600230B93089393E7C04670B5060048
:1013C00000240B4D05E001340935E4B2FF35402C13
:1013D0000BD0310028680CF04BFB0028F3D1002221
:1013E000044B1C70044B9A7070BD0024F7E7C04694
:1013F00000100220245B0220B00C02207047C0467F
:101400007047C0467047C0467047C0460023F0B5DD
:10141000CE464746994680B54C4C4D4F4D4E83B015
:10142000236004F02BFC0028FBD004F037FC0023E1
:10143000984605E0002001A905F08EFB00280DD19B
:101440000021002005F076FB0028F3D14346002B55
:10145000E7D003B0C0BCB946B046F0BD6B465B797F
:10146000F02B37D03B4AF72B20D0117800295BD0E6
:1014700021688C46654636494B55634601332360E7
:101480006B469B79F02B31D0F72B40D025684B551C
:101490002B00013323606B46DB79F02B41D0F72B17
:1014A0002DD022688B5401322260C9E74B464D464D
:1014B000137027492368CD546B469B79F02B14D0C9
:1014C000F72B24D06B46DB79F02B29D0F72B16D0E5
:1014D0008046B5E7012333706B469B793200F02BD1
:1014E00004D0F72B12D01A49D0E78046012313709D
:1014F0006B46DB79F02B14D03900F72BD1D14B465A
:1015000013704A4623688046CA5499E739004B460F
:101510004D4613702368CD546B46DB79F02BD5D143
:101520008046012313708BE76B469B79F02BDDD04F
:10153000F72B08D06B46DB79F02BF2D0F72B00D0DD
:101540007EE70349DBE70249E1E7C046F80F0220E6
:101550007C050020265B0220F0B5002385B06A469A
:101560002A4C2B4E23600293F033137101217368D0
:1015700001A89847274F02AD3A682368D15C00293B
:1015800031D02970591C2160515C002934D0697018
:10159000991C2160515C002933D0A970D91C525C80
:1015A0002160002A2FD0043304212800EA70236030
:1015B00073689847142006F0FFFE04F05FFB0028D4
:1015C000DAD004F06BFB03E0002003A905F0C4FAB5
:1015D0000021002005F0AEFA0028F5D13A68236812
:1015E000D15C0029CDD16A46F7230121137101A8EE
:1015F0007368984705B0F0BD0121280073689847CB
:10160000F1E70221F9E70321F7E7C046F80F0220CE
:101610009805022050070220F0B5DE4657464546A1
:101620004E46E0B5137882468B461500C7B0002BB6
:1016300039D0904600220027002400219146002640
:101640005B2B37D05D2B46D0282B5CD0292B00D1CB
:1016500073E01A00FD205B3A02421DD01A00103AD6
:10166000D2B2192A5CD9002E05D06A460820121879
:10167000D3550137FFB24A46002A05D06A461020EA
:101680001218D3550137FFB2002905D06A46182039
:101690001218D3550137FFB20134E4B22B19984622
:1016A0002B5D002BCCD147B0F0BCBB46B246A9465F
:1016B000A046F0BD002E05D14B46002BECD10029F1
:1016C000EAD100270134E4B22B1998462B5D01269C
:1016D000002BB5D1E7E7002E08D100260134E4B293
:1016E0002B1998462B5D002BAAD1DCE74B46002B2B
:1016F000D2D10029D0D16B4608229B18B146D955CA
:1017000000260027EAE7002EA8D14A46002AA5D0E5
:1017100000292CD01A00103AD2B28946192AA2D830
:1017200017481041C0079ED40134E4B22B199846E3
:101730002B5D002B00D083E7B5E7002E00D08DE7AE
:101740004A46002A00D089E7002900D186E76B4687
:1017500018329B184A465946DA555046009302AA59
:1017600004AB00F02DF8434600211B7871E76A4670
:1017700010201218D15500224946002791466DE7E6
:10178000F6FFFFFC70B5002501240A490A684B6882
:1017900012196B410A604B60074A084B10784201EE
:1017A0001218D2009B1800205A6AFFF735FF01205B
:1017B00070BDC046D00C0220245B0220FC0F02202A
:1017C000F0B54F464646D646C0B58AB080468946F3
:1017D0001E0000279C4C099207AD06E00022002164
:1017E0000CF0B4FAE8550137FFB2210009A80CF05B
:1017F000B9F90028F2D14B46002B1BD007AD6B780E
:101800009A464B46524618685968002309F05AF820
:10181000514628781700994609F012F8C9B28F424C
:1018200005D00AB0E0BCBA46B146A846F0BD4B466A
:10183000002BF6D1300085490CF01AF9002867D04A
:10184000300083490CF014F9002829D03000814978
:101850000CF00EF9002800D1DBE030007E490CF0DE
:1018600007F9002800D1BCE030007C490CF000F9F9
:101870000028D6D100247A4D06E001340935E4B2BF
:10188000FF35402C00D1DCE0286812990CF0F0F80C
:101890000028F2D10022734B1C70734B9A70C0E782
:1018A000129B0026099308AF07E0002200212800C0
:1018B0000CF04CFAB8550136F6B2210009A80CF02C
:1018C00051F9051EF1D139780029AAD0674808F0EE
:1018D0008FFF182108F08CFF654C664B2060C01705
:1018E00060601800984606F0D7FB266867680021FC
:1018F0000020614B1860596006F0B4FA4346029329
:101900005E4B3200009301953B0006F0AFFA88E78A
:10191000129B002709930AE00022002128000CF006
:1019200015FA182202AB9B18D8550137FFB22100D7
:1019300009A80CF017F9051EEED14346002B00D183
:101940007EE708AF3F78002F00D179E7186A596A1F
:101950001A6B5B6B801A99410B0001210200484809
:1019600049428018594104900591002900D067E749
:1019700044490498884200D962E73D4988460021DD
:10198000504299413A00002309F080FD18220023BB
:1019900008F07CFF4346374F18605960380006F066
:1019A0007BFB0122002334490A604B602D4A364BF1
:1019B000107842011218D2009B185A6A0020FFF7D3
:1019C0002BFE43461A685B680492059306F04AFAB8
:1019D0002A4B029700930195049A059B06F046FA5C
:1019E0002EE7129B0025099308AF06E00022002194
:1019F0000CF0ACF978550135EDB2210009A80CF0D6
:101A0000B1F80028F2D1214B290038005B689847D3
:101A100007E7129B0025099308AF06E0002200218A
:101A20000CF094F978550135EDB2210009A80CF0BD
:101A300099F80028F2D1164B290038005B689847C6
:101A4000EFE6002426E7C04650DE001054DE00100A
:101A50005CDE001064DE00106CDE001074DE00102E
:101A600000100220245B0220B00C022000796CFCE4
:101A700080050220D80C0220D00C0220851700100F
:101A8000BFF2FCFF3E771B00FC0F022088050220FE
:101A90009805022010B52D4C636C9847E37C002B11
:101AA00060D1237D002B00D06FE0637D002B00D040
:101AB0007EE0274C636C9847E37C002B00D08DE0E0
:101AC000237D002B00D09CE0637D002B00D0ABE099
:101AD000204C636C9847E37C002B00D0BAE0237D58
:101AE000002B00D0CAE0637D002B00D0DAE01A4C56
:101AF000636C9847E37C002B00D0EAE0237D002B49
:101B000000D0FAE0637D002B00D00AE1134C636C37
:101B10009847E37C002B00D01AE1237D002B00D0F6
:101B20002AE1637D002B00D03AE10D4C636C9847AD
:101B3000E37C002B00D04AE1237D002B00D05AE14A
:101B4000637D002B00D06AE110BDC046A0050220D5
:101B5000E80502203006022078060220C006022096
:101B600008070220B64AB74B117820004A015218E4
:101B70002100D2009B189A6B1831FFF74DFD00230E
:101B8000E374237D002B00D18FE7AD4AAD4B117874
:101B900020004A0152182100D2009B18DA6B18313C
:101BA000FFF73AFD00232375637D002B00D180E70A
:101BB000A34AA44B117820004A0152182100D200F8
:101BC0009B181A6C1831FFF727FD002363759E4C94
:101BD000636C9847E37C002B00D171E7984A994BDE
:101BE000117820004A0152182100D2009B18DA6DAA
:101BF0001831FFF711FD0023E374237D002B00D182
:101C000062E78F4A8F4B117820004A015218210059
:101C1000D2009B181A6E1831FFF7FEFC00232375C3
:101C2000637D002B00D153E7854A864B1178200055
:101C30004A0152182100D2009B185A6E1831FFF742
:101C4000EBFC00236375814C636C9847E37C002BAD
:101C500000D144E77A4A7B4B117820004A015218A0
:101C60002100D2009B1880331A681831FFF7D4FC8A
:101C70000023E374237D002B00D134E7704A714BBD
:101C8000117820004A0152182100D2009B18843399
:101C90001A681831FFF7C0FC00232375637D002B01
:101CA00000D124E7664A674B117820004A01521898
:101CB0002100D2009B1888331A681831FFF7ACFC5A
:101CC00000236375624C636C9847E37C002B00D162
:101CD00014E75B4A5B4B117820004A01521821003F
:101CE000D2009B18A4331A681831FFF795FC002323
:101CF000E374237D002B00D104E7514A514B117846
:101D000020004A0152182100D2009B18A8331A68FB
:101D10001831FFF781FC00232375637D002B00D170
:101D2000F4E6474A474B117820004A015218210037
:101D3000D2009B18AC331A681831FFF76DFC0023F2
:101D40006375444C636C9847E37C002B00D1E4E658
:101D50003B4A3C4B117820004A0152182100D20026
:101D60009B18C8331A681831FFF756FC0023E37438
:101D7000237D002B00D1D4E6314A324B117820006C
:101D80004A0152182100D2009B18CC331A6818312E
:101D9000FFF742FC00232375637D002B00D1C4E6CE
:101DA000274A284B117820004A0152182100D200FE
:101DB0009B18D0331A681831FFF72EFC0023637587
:101DC000254C636C9847E37C002B00D1B4E61C4A99
:101DD0001C4B117820004A0152182100D2009B1898
:101DE000EC331A681831FFF717FC0023E374237DE6
:101DF000002B00D1A4E6124A124B117820004A01B0
:101E000052182100D2009B18F0331A681831FFF7DE
:101E100003FC00232375637D002B00D194E6084A60
:101E2000084B117820004A0152182100D2009B185B
:101E3000F4331A681831FFF7EFFB0023637583E66C
:101E4000245B0220FC0F0220E8050220300602205D
:101E500078060220C006022008070220F0B5D64608
:101E60004F464646C0B5A74B86B01B689847A64B61
:101E70001B689847A54B1B689847A54B1B6C984758
:101E8000A44B1B6C9847A44B1B6C9847A34B1B6C33
:101E90009847A34B1B6C9847A24B1B6C9847A24BCF
:101EA000A24D9946A24BA34C9A46A34B9846D027E5
:101EB00001263F0602E03B6D1E4215D1FFF7EAFD09
:101EC00003F0DCFE0028F6D003F0E8FE03E000207B
:101ED00005A904F041FE0021002004F02BFE00289B
:101EE000F5D13B6D1E42E9D0FA20002105AA800001
:101EF00009F034FE0028DAD0059B002B37D0022BE6
:101F000049D0042B5ED0072B6DD00A2B7CD00B2B35
:101F100000D1A3E00C2B00D1CAE00D2BC7D1226861
:101F2000636801218548494208F0B0FC0A22524208
:101F3000D31712184B4101218148494208F0A6FCF1
:101F40001822002308F0A2FC20606160280006F03F
:101F5000A3F82668676805F085FF002301934346D0
:101F60003200009302953B0005F080FF9FE7534647
:101F70001A78002153019B18DB004B449A6A002019
:101F8000FFF74AFBFA2200230120920009F0B4FD7A
:101F9000059B022BB5D153461A78002153019B189B
:101FA000DB004B44DA6A0020FFF736FB280006F01E
:101FB00073F8FA2200230320920009F09DFD059B8F
:101FC000042BA0D1FA2200239200052009F094FDF1
:101FD000FFF7C2FAFA2200230620920009F08CFDD6
:101FE000059B072B91D1FA2200239200082009F0CB
:101FF00083FDFFF70BFAFA2200230920920009F073
:102000007BFD059B0A2B82D12268636801214B4826
:10201000494208F03BFC0122002312184B410121E8
:102020004748494208F032FC1822002308F02EFCF1
:1020300020606160280006F02FF82668676805F0C8
:1020400011FF0023019343463200009302953B00A9
:1020500005F00CFF059B0B2B00D05BE72268636843
:1020600001213648494208F011FC0A2200231218C7
:102070004B4101213248494208F008FC1822002354
:1020800008F004FC20606160280006F005F826686E
:10209000676805F0E7FE0023019343463200009392
:1020A00002953B0005F0E2FE059B0C2B00D034E7C7
:1020B0002268636801212148494208F0E7FB0122B8
:1020C0005242D31712184B4101211D48494208F0D2
:1020D000DDFB1822002308F0D9FB20606160280096
:1020E00005F0DAFF2668676805F0BCFE002301935F
:1020F00043463200009302953B0005F0B7FE059B76
:102100000BE7C046980502208805022090050220B2
:10211000A0050220E80502203006022078060220F1
:10212000C006022008070220FC0F0220D80C022063
:10213000245B0220800502208517001060DAD9FF99
:1021400000796CFCF0B557464E464546DE46E0B594
:102150008BB014AD10CD03262D78D70FAB4616AD3E
:102160002D78BF18019517AD2D787F10029518AD09
:102170002D783818039519AD2D7882B20495002575
:102180009146DA0FD218521051188BB29A46131B8F
:1021900098466300F61A05950695079508953F1B26
:1021A00025B236B2240424D45B46013BDBB29B4605
:1021B000994B002409933B004F469946039B002B03
:1021C0002AD1049B002B58D1029B002B00D088E021
:1021D000019B002B00D0B9E0002E11DB631B9B009C
:1021E0000A36013D01349E192DB224B236B2A54201
:1021F000E4DA0BB0F0BCBB46B246A946A046F0BD3F
:10220000A4B2A30006360134F61824B236B2AC42AA
:10221000EFDC039B002BD4D0524650195A463B1991
:102220004B444044052A00D9CEE009995200525A45
:102230004021FF31C91A80B289B20B000592020019
:102240000BF000F90122012105980BF027FA524604
:1022500040217B194B44A018FF31C91A404480B279
:1022600089B20B0002000BF0EDF801220121059864
:102270000BF014FA049B002BA6D04A463B1B9B1A7A
:10228000524650195A464044052A00D9B6E00999E9
:1022900052008A5A4021FF31C91A80B289B20B001C
:1022A000069202000BF0CEF80122012106980BF0F5
:1022B000F5F94A467B1B9B1A40215246FF31A01874
:1022C000C91A404480B289B20B0002000BF0BAF880
:1022D0000122012106980BF0E1F9029B002B00D1AD
:1022E00076E74A467B1B9B1A5246101B4246801AD1
:1022F0005A46052A75D8099952008A5A4021FF3159
:10230000C91A80B289B20B00079202000BF09AF84A
:102310000122012107980BF0C1F94A463B1B9B1A89
:1023200052464021501B4246FF31801AC91A80B2E2
:1023300089B20B0002000BF085F8012201210798F9
:102340000BF0ACF9019B002B00D145E75246501B26
:102350004246801A5A463B194B44052A27D859460B
:102360002D4A49008A5A4021FF31C91A80B289B2E8
:102370000B00089202000BF065F801220121089879
:102380000BF08CF952464021101B42467B194B44FE
:10239000FF31801AC91A80B289B20B0002000BF01B
:1023A00051F80122012108980BF078F914E7402137
:1023B000FF31C91A80B289B202000B000BF042F85B
:1023C000012201210020DBE74021FF31C91A80B240
:1023D00089B202000B000BF035F801220121002028
:1023E00033E74021FF31C91A80B289B202000B00E5
:1023F0000BF028F80122012100208CE74021FF3159
:10240000C91A80B289B202000B000BF01BF801223E
:10241000012100204BE7C04654E30010F0B5DE4632
:1024200057464E464546E0B589B01C0012AB80CBFE
:1024300091461B7800979A4600239B4601330593EB
:1024400004930393029353460193230006000D0067
:10245000FFF778FE4B46DB1BDB1B98465346013BE0
:10246000DBB2F119052B56D84A4A5B009B5A89B258
:102470009B4643469BB29846A02342465B009B1A6C
:102480005B1A9BB29A464023FF33591AA8B28AB20C
:1024900013005146079202000AF0D4FF0122414680
:1024A00058460BF0FBF8281980B20200079B5146F2
:1024B0000AF0C8FF0122414658460BF0EFF84023CE
:1024C000E41BE41BED19A4B2ADB2FF33671E991BE8
:1024D000EF1989B2BFB20B003A0028000AF0B2FF30
:1024E0002200012158460BF0D9F84E444021FF311B
:1024F000891B89B20B003A0028000AF0A3FF2200D2
:10250000012158460BF0CAF809B0F0BCBB46B246F0
:10251000A946A046F0BD43469BB29846A02342463A
:102520005B0089B29B1A5B1A9BB29A464023FF3329
:10253000591AA8B28AB213005146079202000AF053
:1025400081FF0122414600200BF0A8F8281980B233
:102550000200079B51460AF075FF01224146002008
:102560000BF09CF84023E41BE41BED19A4B2ADB2C0
:10257000FF33671E991BEF1989B2BFB20B003A00F7
:1025800028000AF05FFF2200012100200BF086F8EE
:102590004E44ABE754E30010F0B5CE464746012168
:1025A00080B5244B85B01A685B682348494208F01F
:1025B0006DF92249020003A808F0B2F8204B03AAE3
:1025C0005A611A88197B91465A889C889046DD8802
:1025D0005E895A7B1F69002900D10226F6B2002AC3
:1025E0001DD1184A184B11784A015218D2009B1875
:1025F0005A686B461B7B002B00D003AA0323690893
:10260000600849444044019302313B000130009688
:10261000FEF792FC05B0C0BCB946B046F0BD0196CD
:102620001B892200009349462B004046FFF7F6FE27
:10263000D7E7C0468005022060DAD9FF7CDE0010B3
:1026400010040020245B0220FC0F0220F0B5DE46BF
:1026500057464E4645464023E0B589B0FF33EF224A
:102660000021079000200AF0EDFEA021F0220020BA
:1026700049000BF013F8BE4B069328230593402323
:10268000FF339B466B4614229B5E6A461821525EBE
:102690000024019302920EE001990A32631A9B0012
:1026A0009B181BB2029301344B1E1BB224B2019340
:1026B000A34200DA8CE01A00A0337832039204932C
:1026C0006B4626009A895B46A0369E1BB6B2330045
:1026D0001000310090460AF0B5FE01220121A54804
:1026E0000AF0DCFF25005B46049A78359B1AADB2F0
:1026F0009BB219002A0028009A460AF0A3FE012284
:1027000001219C480AF0CAFFA02359461F1BCF1B7A
:10271000BFB23B004246404639000AF093FE012218
:10272000012194480AF0BAFFA022019B2800D31A85
:102730005A46D31A9AB2904613002A007825414689
:102740000AF080FE012201218A480AF0A7FF2B1B14
:102750009AB291464346100041460AF073FE0122A8
:10276000012184480AF09AFF019B3900ED1AADB2AD
:102770003B002A0028000AF065FE012201217D4865
:102780000AF08CFF33002A00310028000AF05AFEBC
:102790000122012177480AF081FF53464A465146FB
:1027A00048460AF04FFE0122012172480AF076FFE6
:1027B000029A002A00DB6FE7A4B2A30006329B183E
:1027C0001AB20134019B24B20292A34200DB77E7E4
:1027D000069B059A023B01329BB205920693342A6E
:1027E00000D04FE7B3238C21722049320AF02AFE31
:1027F0000C2228215F480AF051FFEA23AA22DF2198
:1028000045200AF01FFE66220C215A480AF046FFB6
:102810005F23AA22542145200AF014FE66220C21CF
:1028200054480AF03BFF544B02932D23019340235D
:10283000FF3399466B4604269E5F6B4608255D5F15
:10284000F8232F009B464E3B00249A463500B8469D
:10285000B34453462100581B4B46F831591A80B2F5
:1028600089B20B0002000AF0EDFD0122012141486E
:102870000AF014FF53465A46181B4B46991A80B269
:1028800089B202000B000AF0DDFD01220121394866
:102890000AF004FF002F0EDB631B9B000A37013D8B
:1028A0000134DF192DB224B23FB2AC420CDCF82364
:1028B0009B46AB44CDE7A4B2A30006370134FF1812
:1028C00024B23FB2A542C4DA4523454698460024C7
:1028D0004827B044434698B24B46391B591A89B22F
:1028E0000B0002000AF0AEFD0122012121480AF08E
:1028F000D5FE4B462000B91B591A453080B289B22B
:1029000002000B000AF09EFD0122012119480AF085
:10291000C5FE002D0EDBA31B9B000A35013E0134D2
:102920005D1936B224B22DB2A6420CDB452398467F
:10293000B044CFE7A4B2A30006350134ED1824B2A9
:102940002DB2A642C6DA029B019A023B01329BB22B
:1029500001920293392A00D06CE7079805F02CFD0C
:1029600009B0F0BCBB46B246A946A046F0BDC04681
:10297000B3FF0000EFFB0000A9FF0000F0B5DE464A
:1029800057464E4645464023E0B587B00400EF2247
:102990000290059100200021FF330AF053FDA02191
:1029A000F022002049000AF079FE2278002A00D1A6
:1029B00092E0029B0020591C13000A3B5C426341D9
:1029C0000131C0184B1E1B78002BF6D10490130068
:1029D0000021029803E00131435C002B01D00A2B57
:1029E000F9D1012300930023019303934E4B8B46AF
:1029F00099460A2A00D179E04B4658469988049CAA
:102A00004843C30F1B1801985B1048435B429F3338
:102A10001B184846C08801344443E60F3619039C0E
:102A20007610444376427736361907240C40651EEB
:102A3000AC41203A4243CD08641962434C462768B2
:102A4000BF1800283ED0002292464022FF32D31AFF
:102A50009846B6B2002935D0002506E0073C63420F
:102A60005C4101353F198D421CDA072480232C403C
:102A700023413A781342F1D04346591B89B20B00E7
:102A8000320030000AF0DEFC0121012227480AF062
:102A900005FE4B46073C998863425C4101353F196E
:102AA0008D42E2DB4B46DA8807230B40581E8341F8
:102AB000FF1801239C46E244524503DD0136B6B2BD
:102AC0000029C9D1019B029A01330193009BD25C7A
:102AD00001330093002A8CD1059805F06DFC07B0F6
:102AE000F0BCBB46B246A946A046F0BD039B009A87
:102AF00001330393029B9A5C002AEDD000210098D9
:102B00008B468446029913005846614403E0013025
:102B10000B5C002B01D00A2BF9D1009B83460133BB
:102B200000930023019364E74C080220EFFB0000B0
:102B300084B0F0B54E46DE4645465746E0B584B211
:102B40008DB0A14616901892000C140C1B9A1E0A08
:102B50008046179188B21993090CDBB28B4603901B
:102B6000F1B204921A9E002B00D10224E4B2002993
:102B700000D092E0604A614B117806924A015218E7
:102B8000D20004999B185A680B78002B00D00A00D9
:102B90005B465908039B49445808012340445B4263
:102BA00002310130019300943300FEF7C5F905F0BE
:102BB000F9FB06000F00524B524C0593524B079302
:102BC00005F0F0FB801BB94100293BDC002960D0F7
:102BD0000AAD28000AF01AFE0A9B2360AA88180C86
:102BE00099B24A4BD3185D426B4123716379002B34
:102BF00005D1F8231B029A4201D0012363710223FD
:102C0000A288FF339A42DBD18845D9D2039B434443
:102C10009942D5DA4845D3D95B464B449842CFDA3E
:102C20000023059904981C9D63710AF021FF002878
:102C300001D0002D3CD0A84705F0B4FB801BB94162
:102C40000029C3DD402342465C46A021FF334046B5
:102C50009B1A4A46039D013401354900ADB2A4B226
:102C6000091A013AA218491B48469BB292B289B28E
:102C70000AF0E8FB2200290000200AF00FFD0DB049
:102C8000F0BCBB46B246A946A046F0BC08BC04B0A6
:102C900018471F4B98429BD9D4E7019416AB1B8968
:102CA0004946009340465B46039AFFF7B7FB61E74E
:102CB000184B089609979A462300049F54469A4653
:102CC00005E001350934EDB2FF34402D0ED0390056
:102CD00020680AF0CDFE0028F3D15446089E099FD3
:102CE000069B079A1D700023937069E75446089E5F
:102CF000099F0025F4E7C046245B0220FC0F022058
:102D000044DE0010F00F0220B00C02200008FFFF8C
:102D1000BFC62D000010022030B5064B85B01A004A
:102D20006946103231CA31C10FCBFFF701FF05B040
:102D300030BDC0466005002030B5064B85B01A0096
:102D40006946103231CA31C10FCBFFF7F1FE05B031
:102D500030BDC0464405002030B5064B85B01A0092
:102D60006946103231CA31C10FCBFFF7E1FE05B021
:102D700030BDC046F004002030B5064B85B01A00C7
:102D80006946103231CA31C10FCBFFF7D1FE05B011
:102D900030BDC0460C050020F0B5DE4657464E4615
:102DA0004546E0B5CB4C0026A544CB4C63691D6875
:102DB000CA4BD8889A4608F027F8C94B002207F07A
:102DC000B2FF08F039F82900FDF74CFD237C012BF8
:102DD00000D16BE2022B00D1FEE1033BDBB2052BFD
:102DE00010D8C04A9B00D3589F465C46FF238022E0
:102DF00092009B180AAA9446BB4A63449446002258
:102E000063441A70082E00D970E1B446002162466E
:102E10000AABFF2598468E1800240020B146454491
:102E200019E00A2A01D10130C0B2814210D84845C8
:102E30000EDA002C01D10A2A0AD080270AAEB04649
:102E4000BF00E7194744013FFF3F01343A70E4B245
:102E50000133AB4202D01A78002AE2D180239B00D2
:102E6000E4180AAB984600234444013CFF3C23701D
:102E700053466646DB884AA95E430F78994672102E
:102E8000002F01D100F000FD4346981CFF300500E3
:102E900001003B0000240A3B5E4273410131E4180B
:102EA0004B1E1B78002BF6D13B00002105E00135BD
:102EB0006B1E1B780131002B01D00A2BF7D1352373
:102EC0009C469444634606910893192900DC20E14E
:102ED000002305930793631C099307239B460490E3
:102EE0000A2F00D183E0534606999B8809985943DD
:102EF000CA0F521805995210594352429F32521824
:102F00005146C988203F4843C60F361808987610A6
:102F1000861B07984F434843361858461840441EAE
:102F2000A041DC0800194743504600688046B84479
:102F3000002949D0002102914021FF318A1A92B222
:102F4000B6B20392002B3FD0802300279946039C02
:102F500015E032002100300023000AF073FA01224C
:102F6000012100200AF09AFB073D6B425D41534668
:102F70009B88013C0137A844A4B29F4214DA5D4605
:102F80004A4643463D402A411B781A42E1D032006E
:102F90002100300023000AF055FAFC200122012113
:102FA000C0000AF07BFBDFE75246D1885A461A4040
:102FB000501E82419044029A01320292914203DDF6
:102FC0000136B6B2002BBFD1059B01330593049B9C
:102FD0001F7801330493002F00D081E78B239B00DF
:102FE0009D44F0BCBB46B246A946A046F0BD0022B7
:102FF000079B069201330793049B1F783B1E01D168
:1030000000F03EFC049903E001328B5C002B01D000
:103010000A2BF9D10692192A05DD049B013304938A
:10302000002305935CE71A239B1A99465346099A95
:10303000DE889B887243D40FA418089A6410141B6E
:10304000079AA0207243A4181A2290465A4352109D
:1030500052429F3291B24A4653435D104023400092
:10306000FF33A4B2ADB25B1A721E411A491BA218FB
:103070009BB2200092B289B20AF0E4F93200290032
:1030800000200AF00BFB51464D468B8841465646C0
:103090004022A02059436B43DD0FED1849106D10FD
:1030A000F6889F316D424B19FF32D31A4000721ED1
:1030B000411AA2189BB2200092B289B20AF0C2F95A
:1030C00069423200002089B20AF0E8FA0023059331
:1030D000049B7EE7D4FDFFFFB00C022044080220D1
:1030E0000000E03FD8DE001000FEFFFFE568A468A6
:1030F00005F058F90023DC4A001BA94107F0C6FB84
:10310000083EC0B2F1B207F09BFB0923C9B29C464E
:103110007DE6631C98464B4641461A264B4306996A
:10312000761A5146D80FC0181A238D889B466B43D8
:103130005B105B429F3399B24023FF335B1A9BB213
:103140009C464B46353240100892101A5A1EA02356
:1031500075435B006D1080B2ADB2591A8218491BDD
:10316000634692B289B20AF06DF929004A460020FE
:103170000AF094FA514650468B8859465E43F50F43
:10318000AD19C688404670435943C30F089A1B18AF
:103190005B10D31A402249106D109F316D4298B2D6
:1031A000FF324B19D31A9BB29C46A023721E5B00C0
:1031B0008218591A92B2634689B20AF043F96942F9
:1031C0000020320089B20AF069FA0AAB981CFF307D
:1031D000002F00D07CE601E75346D88807F014FEA4
:1031E000A24D0022A24B07F09EFD07F025FE29000C
:1031F000FDF738FB636900229D680020012600234B
:103200000A27A14622E00A2926D018283AD9802088
:103210000AACA4468000974C18186044A446802449
:1032200060440770581CA400C0B200190AACA44640
:10323000904C6044A4466044017001200136023382
:10324000F6B2DBB20132D2B2FF2B18D0A95C002952
:1032500000D120E32029D6D180210AA88446890004
:10326000844859186144844601336144013601326F
:10327000DBB200200F70F6B2D2B2FF2BE6D14C4683
:10328000FF23B4E58024A4001C1901940AACA446D1
:10329000019C01336444A4460194764C0130A0465D
:1032A000C4446446DBB22170C0B2CBE75346D88831
:1032B00007F0AAFD704D00226D4B07F034FD07F0BA
:1032C000BBFD2900FDF7CEFA0A20636900225D6884
:1032D000002100238146A346013622E08027BF005B
:1032E000182946D90AACA446D919614488466149CF
:1032F0004F468C46414661440F708027A446591CB6
:10330000BF00C9B2C9195B4F6144BC466144087033
:10331000012101360233F6B2DBB20132D2B2FF2B09
:1033200018D0A85C002800D1B8E20A28D6D18021A4
:103330000AAFBC4689004F4F59186144BC4601335F
:10334000614401360132DBB20870F6B20021D2B21C
:10335000FF2BE6D15C46FF23802292009B180AAA2D
:103360009446444A63449446002263441A70237C82
:1033700030E50AACA446DF196744BC463D4F013333
:10338000B846C444674601313870DBB2C9B2C4E7FD
:103390005346D88807F038FD384D0022344B07F0EB
:1033A000C2FC07F049FD2900FDF75CFA0A226369B7
:1033B0000021DF690020012600239146A34624E076
:1033C0000A2A28D0182800D80AE280200AACA4468D
:1033D000284D800018186044AC464D466044057086
:1033E0008025A446581CAD00C0B24019214D604450
:1033F000AC4660440270012001360233F6B2DBB203
:103400000131C9B2FF2B00D1EFE47A5C002A00D170
:10341000C1E1202AD4D180220AA88446920015480E
:103420009A1862448446484662440133013610705B
:10343000DBB20020F6B2E3E75346D88807F0E4FC9D
:103440000F4D00220A4B07F06EFC07F0F5FC290037
:10345000FDF708FA0A22636900211F6A002001268D
:1034600000239146A34632E080841E0088DE0010CF
:103470000000F83F00FEFFFF80DE0010C8DE0010F5
:10348000D0DE00100A2A28D0182800D8E7E18020D2
:103490000AACA446E34D800018186044AC464D4683
:1034A000604405708025A446581CAD00C0B2401988
:1034B000DC4D6044AC4660440270012001360233AA
:1034C000F6B2DBB20131C9B2FF2B00D18DE47A5CD8
:1034D000002A00D15FE1202AD4D180220AA88446A4
:1034E0009200D0489A1862448446484662440133A8
:1034F00001361070DBB20020F6B2E3E75346D888FD
:1035000007F082FCC84D0022C84B07F00CFC07F006
:1035100093FC2900FDF7A6F90A2263690021DF6800
:103520000020012600239146A34624E00A2A28D041
:10353000182800D865E180200AACA446B94D800067
:1035400018186044AC464D46604405708025A4467A
:10355000581CAD00C0B24019B24D6044AC46604446
:103560000270012001360233F6B2DBB20131C9B27A
:10357000FF2B00D139E47A5C002A00D10BE1202A2C
:10358000D4D180220AA884469200A6489A186244A0
:10359000844648466244013301361070DBB2002095
:1035A000F6B2E3E75346D88807F02EFCA04D002280
:1035B0009E4B07F0B8FB07F03FFC2900FDF752F9DE
:1035C0000A22636900211F69002001260023914619
:1035D000A34625E00A2A29D0182800D82EE1802009
:1035E0000AACA4468F4D800018186044AC464D4686
:1035F000604405708025A446581CAD00C0B2401937
:10360000884D6044AC4660440270012001360233AC
:10361000F6B2DBB20131C9B2FF2B01D1FFF7E5FBF6
:103620007A5C002A00D1B6E0202AD3D180220AA8F1
:10363000844692007B489A18624484464846624415
:10364000013301361070DBB20020F6B2E2E75346D8
:10365000D88807F0D9FB774D0022744B07F063FB45
:1036600007F0EAFB2900FDF7FDF80A226369002153
:103670005D690020012600239146A34623E0182817
:1036800000D88BE080200AACA446664F8000181852
:103690006044BC464F46604407708027A446581CCF
:1036A000BF00C0B2C0195F4F6044BC4660440270A6
:1036B000012001360233F6B2DBB20131C9B2FF2B71
:1036C00001D1FFF792FB6A5C002A64D00A2AD6D1A6
:1036D00080200AACA446534F800018186044BC46B2
:1036E0000133604401360270DBB20020F6B2E4E739
:1036F0005346D88807F088FB4F4D00224B4B07F00C
:1037000012FB07F099FB2900FDF7ACF80A22636968
:1037100000219F690020012600239146A34624E052
:103720000A2A27D018284AD980200AACA4463D4D41
:10373000800018186044AC464D46604405708025F2
:10374000A446581CAD00C0B24019364D6044AC468A
:1037500060440270012001360233F6B2DBB201315F
:10376000C9B2FF2B01D1FFF740FB7A5C002A12D0CF
:10377000202AD5D180220AA88446920029489A1886
:103780006244844648466244013301361070DBB21D
:103790000020F6B2E3E75C46FFF729FB80270AAC7E
:1037A000A446BF00DF196744BC461E4F0133B8462C
:1037B000C444674601303A70DBB2C0B27DE7802571
:1037C0000AACA446AD005D196544AC46154D013305
:1037D000A846C444654601302A70DBB2C0B2BEE7D9
:1037E00080250AACA446AD005D196544AC460D4D7C
:1037F0000133A846C444654601302A70DBB2C0B22A
:10380000FEE580250AACA446AD005D196544AC46D2
:10381000044D0133A846C444654601302A70DBB22A
:10382000C0B2A3E600FEFFFF90DE00100000F83FEC
:10383000A0DE0010B0DE0010BCDE001080250AAC57
:10384000A446AD005D196544AC46154D0133A8464C
:10385000C444654601302A70DBB2C0B2DAE6802586
:103860000AACA446AD005D196544AC460C4D01336D
:10387000A846C444654601302A70DBB2C0B221E6D6
:103880001A239946FFF7D2FB0121884600211A2608
:103890000024069145E44C46FFF7A9FA5C465BE537
:1038A00000FEFFFFF0B557464E46DE464546E0B502
:1038B0009FB00893A94B0A92994680234A465B0021
:1038C0001380FF3B9370A64A0F000992A54A00237C
:1038D0000C92A54A0D924A46814692460AE0012B77
:1038E00000D16CE005F0B2FB53469B78002B36D03C
:1038F00053461B78002BF2D153465B78002B00D047
:10390000B8E0089B10AC9847200009F07FFF974D66
:10391000109B2B60A288964BD31859424B412B71B8
:103920006B79002B05D1F8231B029A4201D00123A9
:103930006B710024002FD5DD02268A4BFF369B4693
:10394000894B0393AB88B34210D00134E4B2BC423C
:10395000FBDB05F07BFB53469B78002BC8D11FB0E7
:10396000F0BCBB46B246A946A046F0BDE3001B1B17
:103970009B004B4459882A888A421BD99888411851
:103980008A4217DA19886A888A4213D9D888411876
:103990008A420FDA58699B69594698460023049079
:1039A0006B710AF065F8002803D04346002B00D164
:1039B00058E1C0470134E4B2A742C3DC92E7099A58
:1039C00010AB984613CA13C313CA13C312681A6004
:1039D000684B17AA13CB13C213CB13C21B68136017
:1039E00053465B78002B00D0C8E0FFF7D5F90EAC4A
:1039F000200009F00BFF5D4D0E9B2B60A2885C4BF5
:103A0000D31859424B412B716B79002B05D1F82308
:103A10001B029A4201D001236B7102264446FF36F5
:103A2000AB88B34200D05DE762882B889A421BD2F4
:103A3000A1888A18934217DA22886B889A4213D297
:103A4000E1888A1893420FDAA369606998460023D7
:103A50000C9903906B710AF00BF8002803D04346D1
:103A6000002B00D122E1C04717AB9C4200D139E7BF
:103A70001C34D5E74023EF2200210020FF3309F05A
:103A8000E1FCA021F0220020490009F007FE002FF0
:103A900040DD0026BB46384B0693334B07934B461D
:103AA0004946F200921B92009B188F5A5A88186957
:103AB00004929A888046187B0392DC885A89597B45
:103AC0005D69002800D10222D2B2059200293BD1C3
:103AD000079B61081A78C91953019B18069ADB00E5
:103AE000944663445A682B780231002B18D1039B0B
:103AF00001365808049BF6B29C4601235B420193B1
:103B0000059B6044009301304346FDF715FAB34529
:103B1000C5DC5F460A9B9847002352465370F0E687
:103B2000039B01365808049B2A009C4601235B42F4
:103B30000193059B6044009301304346F6B2FDF7C4
:103B4000FBF95E45ABDBE4E701921B89390000938A
:103B5000039A23000498FEF761FCB9E7B00C022039
:103B600024E1001044DE0010245B0220F00F02204C
:103B70000008FFFFCCE10010FC0F02204023EF22E1
:103B8000FF330021002009F05DFCA0214446BB4624
:103B9000F0220020490009F081FD5B4B06935B4B4E
:103BA00007932388217B03936388E5880593A38883
:103BB000627B0493276963896669002900D1022327
:103BC000DBB20B93002A43D1079B69081A78530193
:103BD0009B18069ADB00944663445A683378002B9E
:103BE0001AD1039B1C349C46049B61445808059BD6
:103BF00002319C4601235B4201930B9B604400937E
:103C000001303B00FDF798F91EABA342C9D1002358
:103C100052465F465370EAE6039B32009C46049B83
:103C200061445808059B02319C4601235B42019385
:103C30000B9B6044009301303B00FDF77DF91C3481
:103C40001EAB9C42ADD1002352465F465370CEE678
:103C500001932389049A009303992B000598FEF79A
:103C6000DDFBB1E72A4B0594984600231C004B4628
:103C7000A94606934546B846049F05E00134093538
:103C8000E4B2FF35402C32D03900286809F0F0FE4C
:103C90000028F3D1069B4D46474699462200059CD5
:103CA000039B1A7000235246937083E6184B220040
:103CB0009B4600231C002B0090465D469B4605E07A
:103CC00001340935E4B2FF35402C18D02868039937
:103CD00009F0CEFE0028F3D143465D46A0461C0005
:103CE00042460D9B1A70002352469370BCE6069B19
:103CF0004D469946002347461A00059CD0E700230D
:103D000044465D469846EBE7FC0F0220245B022008
:103D100000100220F0B5564CD1B0227E5549013238
:103D2000684606F0FDFC6A4603A80100524B5A6142
:103D3000524AE0CAE0C1E0CAE0C112680A600AAAB9
:103D400062CB62C262CB62C21B6813604C4B11AA89
:103D500062CB62C262CB62C21B681360494B18AA75
:103D600062CB62C262CB62C21B681360464B1FAA61
:103D700062CB62C262CB62C21B681360434B26AA4D
:103D800062CB62C262CB62C21B681360404B2DAA39
:103D900062CB62C262CB62C21B6813603D4B34AA25
:103DA00062CB62C262CB62C21B6813603A4B3BAA11
:103DB00062CB62C262CB62C21B681360374B42AAFD
:103DC00062CB62C262CB62C21B681360344B49AAE9
:103DD00062CB62C262CB62C21B681360314A237E2F
:103DE0001578DC00AC4240DA1B022F4A1B19DB00BD
:103DF0009B18002204E00134AC4223DA0933FF337C
:103E000019780029F7D159780029F4D0D61CF1008F
:103E1000891BA02689007600891969445E683539B6
:103E2000FF39013201344E61D2B2AC420ADA0933B1
:103E3000FF33082AE4D10B211C4B1D4AFFF732FD4A
:103E400051B0F0BD082AF6D01A4CD11CCB005B1A39
:103E5000A0219B0049005B186B44353B0132FF3BBE
:103E6000D2B25C61082AF0D1E5E70022ECE7C04657
:103E7000B00C0220F0DE00102C04002040E1001005
:103E8000E8E1001020E200103CE2001058E20010CF
:103E900074E2001090E20010ACE20010C8E20010E2
:103EA000E4E20010255B0220FC0F02204506001012
:103EB0004106001044DE001070B5ACB002AC210029
:103EC000284A294B12685A61284A61CA61C161CAED
:103ED00061C112680A60264A09A961CA61C161CA42
:103EE00061C112680A60234A10A961CA61C161CA2E
:103EF00061C112680A60204A17A961CA61C161CA1A
:103F000061C112680A601D4A1EA961CA61C161CA05
:103F100061C112680A6025AA23CB23C223CB23C226
:103F20001B68022013600023154A07F0E5FD0028F6
:103F30000CD1FA2113488900FEF720FD062120004C
:103F4000114B124AFFF7AEFC2CB070BD00210C489B
:103F500001AA07F003FE0028EBD0019B032BEDD054
:103F6000E7E7C046005202202805002040E100108B
:103F70002C04002038E300101CE3001000E30010C4
:103F800010270000F8DE00104D0600104906001052
:103F9000F0B5DE4657464E464546E0B5804B814C6F
:103FA0001F78814B7D01EE19F600A619716818681B
:103FB000D7B009F0A1FD7D4B01219C4662467C4BA8
:103FC0005361336B1A78002A01D10021794B7A4A68
:103FD0005361EB19DB00E3185B6D1173187892469F
:103FE0000121002801D10021724B74484361EB1973
:103FF000DB00E3189B6F01731E780121002E01D1B5
:1040000000216C4B01226E4E90467361EB19DB0070
:10401000E3189C33317319680B78002B01D1984653
:1040200064494246674B5961E919C9006118C031BA
:104030001A730A689B46904611780122914600291E
:1040400003D15C4A90460022914642465E49ED19F2
:104050004A614A46ED006419E43424680125277852
:104060000A73002F01D10025524C584A584F546111
:10407000157300240025BC61FD61564F02ABBC6185
:10408000FD61554F9946BC61FD61544F9046BC613E
:10409000FD61534FBC61FD61524FBC61FD611F006A
:1040A000514D1CCD1CC71CCD1CC72D683D604F4F0A
:1040B00009AD1CCF1CC51CCF1CC53F682F604C4FE1
:1040C00010AD1CCF1CC51CCF1CC53F682F606746B8
:1040D00017AD1CCF1CC51CCF1CC53F682F60454DBC
:1040E0001EAF1CCD1CC71CCD1CC72D683D60424DAA
:1040F00025AF1CCD1CC71CCD1CC72D683D602CAD49
:104100008CCE8CC58CCE8CC536682E60454633AEC1
:104110008CCD8CC68CCD8CC652462D6835603AADA0
:10412000C8C8C8C5C8C8C8C55B460068286041A8DB
:10413000E0C9E0C0E0C9E0C00968016048A961CAFF
:1041400061C161CA61C112680A604FAA23CB23C250
:1041500023CB23C21B68002013600023274A07F0EB
:10416000CBFC002811D1FA2125488900FEF706FC76
:104170000C214846234B244AFFF794FB57B0F0BC70
:10418000BB46B246A946A046F0BD00211B4801AA85
:1041900007F0E4FC0028E6D0019B012BE8D0E2E721
:1041A000245B0220FC0F0220FC510220100400209E
:1041B00014DF001010DF0010480400206404002009
:1041C000800400209C040020B8040020D4040020B7
:1041D000A0050220E8050220300602207806022011
:1041E000C00602200807022004E2001078E1001057
:1041F0005CE1001094E10010B0E100101027000015
:1042000018DF0010992500103D06001070B5154DFF
:104210002A78002A23D0144B1868002301E08C422E
:1042200009D1C45C01331100EA5C002AF7D10120F6
:104230008C4200D170BDEFF3108472B68021E02073
:104240008902400309F0B8FD8022E0202900920293
:10425000400309F099FD84F310880020EAE701206B
:10426000E8E7C0467C0500207C050220F0B585B05B
:1042700001AC2200184B194E03CB03C21B7820005F
:10428000137035680822290007F070F920001449DE
:1042900009F0EEFB44424441E4B2002807D1114F3B
:1042A0002900380009F028FC200005B0F0BDEFF32C
:1042B000108572B68021F0208902400309F07CFD50
:1042C0008022F020074F92023900400309F05CFD84
:1042D00085F310883568E3E744DE001050070220BC
:1042E00030DF00107C050020F0B5DE4657464E4614
:1042F0004546E0B5474B85B01968474B0327180082
:10430000984609F0F9FB454C454B627B9946636141
:10431000052363812388A5889A466388E6880393EA
:1043200023699B46237B591E8B415B421F4002370A
:10433000002A5BD1039B71089C460A2368086044ED
:1043400051444A4602310130019300975B46FCF725
:10435000F3FD07F03FFCEFF3108572B68021F020EB
:104360008902400309F028FD8022F0204146920294
:10437000400309F009FD85F31088FA20C00004F01D
:104380001BF805236381238803269B466388254FFA
:104390009A46E388627B99462369A5889846237BE1
:1043A0006761591E8B415B421E400236002A27D1AD
:1043B0004B4659080A236808594450443A000231D0
:1043C0000193013043460096FCF7B6FDFA20C00089
:1043D00003F0F2FF00220021002004F085FE05B06A
:1043E000F0BCBB46B246A946A046F0BD0197238962
:1043F0002A000093514633000398FEF70FF899E71F
:10440000019623892A00009359464B465046FEF7F1
:1044100005F8CDE77C0502207C050020F004002093
:104420003CDF001048DF001010B5FFF75DFF10BD46
:10443000F0B557464E464546DE460523E0B5C04F2B
:1044400003257B813B88BF4E9A467B887A7B9946C1
:10445000FB88BC8898463B698BB09B463B7B7E6162
:10446000591E8B415B421D400235002A00D0A6E058
:10447000434659080A236008514448443200023137
:104480000130019300955B46FCF756FD00230720A1
:10449000AD4A07F031FBD0231B0698463E00434649
:1044A0001B6DDB0703D443461B6DDB07F7D50024E8
:1044B0000021A54807AA012507F050FB002813D0CA
:1044C000079B082B1BD0092B00D182E0002C16D1B2
:1044D00043461B6D1D42E2D000219B4807AA0024E1
:1044E00007F03CFB0028EBD1002C08D143461B6DA4
:1044F0001D42F1D143461B6DDB07D0D5D7E7934B67
:104500009A46934B9946934B0493934B059353468A
:1045100049461A6807A806F003F907AB32697361C8
:10452000738893460293327BB38837880393F48869
:104530007589737B002A00D10225EDB2002B34D19E
:10454000059B61081A78C91953019B18049ADB006E
:10455000944663445A6804AB1B7B0231002B11D193
:10456000039B00955808029B9C460A2360440193D4
:1045700001305B46FCF7E0FC43461B6DDB07C6D50C
:10458000012495E7039B00955808029B07AA9C46C7
:104590000A236044019301305B46FCF7CDFC43469F
:1045A0001B6DDB07B3D5012482E701953389390000
:1045B0000093039A23000298FDF730FFC0E70195AE
:1045C0003B8922000093514643464846FDF726FFAB
:1045D0004EE737003B883A6999467B889346984670
:1045E0005E4EFB883A7B9A46BC887D897B7B7E61E8
:1045F000002A00D10225EDB2002B00D095E05346F1
:1046000059080A236008494440443200023101300D
:10461000019300955B46FCF78FFCFA20C00003F085
:10462000CBFE06233A693D7B93466A1E95417B810A
:104630003B884B4E9A467B88AD009946FB88BC88E8
:1046400098467B7B7E610235002B5AD14346590840
:104650000A2360085144484432000231013001937A
:1046600000955B46FCF768FC07F0B4FAEFF31084A2
:1046700072B68021F0204901400309F09DFB8022A1
:10468000F02038495201400309F07EFB84F3108882
:10469000FA20C00003F090FE05237B813B880325B0
:1046A0009A467B88304E9946FB887A7B98463B69D0
:1046B000BC889B463B7B7E61591E8B415B421D4003
:1046C0000235002A27D1434659080A23600851447D
:1046D000484432000231019301305B460095FCF7FB
:1046E0002BFCFA20C00003F067FE0022002100200E
:1046F00004F0FAFC0BB0F0BCBB46B246A946A0469B
:10470000F0BD01953B89220000935146434648463F
:10471000FDF784FE9AE701953B89220000935146FC
:1047200043464846FDF77AFECDE701953B892200D6
:104730000093494653464046FDF770FE5FE7C0468A
:104740004405002054DF001010270000F80F02205D
:104750007CDE0010FC0F0220245B02205CDF0010D6
:104760003CDF00107C05002048DF001010B5FFF78B
:104770005FFE10BDF0B557464E464546DE46052362
:10478000E0B5834F03257B813B88824E9A467B8828
:104790007A7B9946FB88BC8898463B698BB09B46E0
:1047A0003B7B7E61591E8B415B421D400235002AD6
:1047B00000D0A6E0434659080A2360085144484403
:1047C000320002310130019300955B46FCF7B4FBE7
:1047D00000230420704A07F08FF9D0231B06984667
:1047E0003E0043461B6DDB0703D443461B6DDB07CE
:1047F000F7D500240021684807AA012507F0AEF983
:10480000002813D0079B052B1BD0062B00D182E07C
:10481000002C16D143461B6D1D42E2D000215E489C
:1048200007AA002407F09AF90028EBD1002C08D140
:1048300043461B6D1D42F1D143461B6DDB07D0D5AE
:10484000D7E7564B9A46564B9946564B0493564BD0
:104850000593534649461A6807A805F061FF07AB60
:1048600032697361738893460293327BB3883788C9
:104870000393F4887589737B002A00D10225EDB279
:10488000002B34D1059B61081A78C91953019B1874
:10489000049ADB00944663445A6804AB1B7B0231E4
:1048A000002B11D1039B00955808029B9C460A23BC
:1048B0006044019301305B46FCF73EFB43461B6DB1
:1048C000DB07C6D5012495E7039B00955808029B9A
:1048D00007AA9C460A236044019301305B46FCF71B
:1048E0002BFB43461B6DDB07B3D5012482E7019503
:1048F000338939000093039A23000298FDF78EFD57
:10490000C0E701953B892200009351464346484643
:10491000FDF784FD4EE737003B883A6999467B886E
:1049200093469846214EFB883A7B9A46BC887D89FF
:104930007B7B7E61002A00D10225EDB2002B1CD1C9
:10494000534659080A236008494440443200023162
:10495000019301305B460095FCF7EEFAFA20C000A7
:1049600003F02AFD124B7B6106237B810BB0F0BC68
:10497000BB46B246A946A046F0BD01953B89220040
:104980000093494653464046FDF748FDD8E7C046E8
:104990006005002054DF001010270000F80F0220EF
:1049A0007CDE0010FC0F0220245B02205CDF001084
:1049B00068DF001010B5FFF7DDFE10BDF0B5052271
:1049C0004F464646D6461E4BC0B55A811A88032527
:1049D00092465A881B4E9146DA88597B90461A7B3C
:1049E0009C88501E82415242154002351F6982B098
:1049F0005E61EDB2002918D1434659080A236008C8
:104A000051444844023132000130019300953B008B
:104A1000FCF792FAFA20C00003F0CEFC0A4805F039
:104A2000B5FE002103000020984701951B89220054
:104A30000093514643464846FDF7F0FCDCE7C0468C
:104A40000C05002048DF00105542000010B5FFF7AC
:104A5000B5FFC046842210B5154CD201A018230022
:104A6000002214491A8059609A600933FF33834247
:104A7000F8D1842200212000520006F071FD2000B0
:104A800084220D4B093063600C4B0021A36052005F
:104A9000FF3006F065FD0A230122FF33E254084B84
:104AA0000C32FF32A350074B0432A35010BDC04656
:104AB000FC0F022044DE00103CDE0010153D00100B
:104AC00070DF0010B93E0010F0B54E464546DE4698
:104AD0005746E0B50024C04EC04D85B001E001341A
:104AE000E4B263011B19DB00EB183100586808F0D1
:104AF000BFFF0028F3D1BA4F013CE3B29B463B789D
:104B0000002B15D0B74800218046B74800268146C3
:104B1000B648002282463C2B1CD0BB5D3E2B1ED0EB
:104B20003C2B01D0132B0AD10136BB5D002BF2D1F7
:104B300005B0F0BCBB46B246A946A046F0BD102069
:104B40001C008443F0D0002AEED068464354013163
:104B5000C9B2E9E7002301220021BB55E4E7002A9E
:104B6000E2D000236A465354009AA14B9A4225D0C2
:104B7000A04B009A9A4232D09D4B029A9A4207D09B
:104B80009C4B029A9A4248D0013600220021CCE781
:104B90006A46994B92899A42F2D16B469B7B002BD5
:104BA000EED16846954908F063FF002850D1944B38
:104BB0000136BA191A6000210022B6E76A468E4B08
:104BC00092889A42D4D16B469B79002BD0D169460A
:104BD00002A808F091FF013600220021A5E76A46ED
:104BE000884B92889A42C7D16B469B79002BC3D1E0
:104BF0005C46694602A8013408F07EFFE3B29B469A
:104C00005A46814B1A70530180225B44DB00EB183B
:104C100052001A807D4A9A60B6E76A46794B9289BB
:104C20009A42B1D16B469B7B002BADD14146684681
:104C300008F01EFF002818D15B465B015B4401367B
:104C4000DB00BA19EB18DA605A60002100226CE729
:104C500068466F4908F00CFF0136002895D16D4B6E
:104C6000BA191A60002100225FE74946684608F039
:104C7000FFFE00280AD15B465B015B440136DB0086
:104C8000BA19EB181A62002100224EE75146684615
:104C900008F0EEFE00280AD15B465B015B4401365A
:104CA000DB00BA19EB185A62002100223DE7684682
:104CB000594908F0DDFE00280AD15B465B015B44E0
:104CC0000136DB00BA19EB189A62002100222CE7AA
:104CD0006846524908F0CCFE00280AD15B465B01C9
:104CE0005B440136DB00BA19EB18DA6200210022BE
:104CF0001BE768464A4908F0BBFE00280AD15B461C
:104D00005B015B440136DB00BA19EB181A63002122
:104D100000220AE76846434908F0AAFE00280AD1A3
:104D20005B465B015B440136DB00BA19EB185A6342
:104D300000210022F9E668463B4908F099FE002868
:104D40000AD184235A465B0053430136BA19EB1843
:104D50009A6300221100E8E66846344908F088FEAC
:104D6000021E09D1842359465B004B430136B91911
:104D7000EB18D9630100D8E668462D4908F078FEA3
:104D8000021E09D1842359465B004B430136B919F1
:104D9000EB1819640100C8E66846264908F068FE69
:104DA000021E09D1842359465B004B430136B919D1
:104DB000EB1859650100B8E668461F4908F058FE2F
:104DC000021E3BD1842359465B004B430136B9197F
:104DD000EB1899650100A8E644DE0010FC0F0220E4
:104DE0007C05002088DF001090DF001098DF0010A5
:104DF0005359535450524553454D000078DF00102D
:104E00000052022045540000255B0220913F001013
:104E100080DF0010FC510220A0DF0010A8DF00108E
:104E2000B0DF0010B8DF0010C0DF0010C8DF0010D6
:104E3000D0DF0010D8DF0010E0DF00106846C24964
:104E400008F016FE021E09D1842359465B004B432D
:104E50000136B919EB18D965010066E66846BB4909
:104E600008F006FE021E09D1842359465B004B431D
:104E70000136B919EB181966010056E66846B449BF
:104E800008F0F6FD021E09D1842359465B004B430E
:104E90000136B919EB185966010046E66846AD4976
:104EA00008F0E6FD021E09D1842359465B004B43FE
:104EB0000136B919EB189967010036E66846A6492C
:104EC00008F0D6FD00280AD184235A465B005343DC
:104ED0000136BA19EB18DA670022110025E6684698
:104EE0009E4908F0C5FD021E0AD1842359465B0085
:104EF0004B430136EB18B91980331960010014E6F1
:104F00006846974908F0B4FD021E0AD18423594629
:104F10005B004B430136EB18B9198433196001006B
:104F200003E668468F4908F0A3FD021E0AD18423D8
:104F300059465B004B430136EB18B91988331960A9
:104F40000100F2E56846884908F092FD021E0AD188
:104F5000842359465B004B430136EB18B9199C3347
:104F600019600100E1E56846804908F081FD021EF4
:104F70000AD1842359465B004B430136EB18B9191B
:104F8000A03319600100D0E56846794908F070FD4A
:104F9000021E0AD1842359465B004B430136EB18AD
:104FA000B919A43319600100BFE56846714908F0DA
:104FB0005FFD021E0AD1842359465B004B43013634
:104FC000EB18B919A83319600100AEE568466A49C3
:104FD00008F04EFD021E0AD1842359465B004B4364
:104FE0000136EB18B919AC33196001009DE568462C
:104FF000624908F03DFD021E0AD1842359465B0038
:105000004B430136EB18B919C033196001008CE528
:1050100068465B4908F02CFD00280BD184235A46D2
:105020005B0053430136EB18BA19C4331A600022EF
:1050300011007AE56846534908F01AFD021E0AD1AC
:10504000842359465B004B430136EB18B919C8332A
:105050001960010069E568464B4908F009FD021E28
:105060000AD1842359465B004B430136EB18B9192A
:10507000CC331960010058E56846444908F0F8FC53
:10508000021E0AD1842359465B004B430136EB18BC
:10509000B919D0331960010047E568463C4908F06A
:1050A000E7FC021E0AD1842359465B004B430136BC
:1050B000EB18B919E4331960010036E56846354943
:1050C00008F0D6FC021E0AD1842359465B004B43EC
:1050D0000136EB18B919E8331960010025E5684677
:1050E0002D4908F0C5FC021E0AD1842359465B00F5
:1050F0004B430136EB18B919EC331960010014E584
:105100006846264908F0B4FC021E0AD18423594699
:105110005B004B430136EB18B919F03319600100FD
:1051200003E568461E4908F0A3FC0136021E00D0C4
:105130002BE5842359465B004B43EB18B919F43334
:1051400019600100F1E4C046E8DF0010F0DF001054
:10515000F8DF001000E0001008E0001010E0001080
:1051600018E0001020E0001028E0001030E00010EF
:1051700038E0001040E0001048E0001050E000105F
:1051800058E0001060E0001068E0001070E00010CF
:1051900078E0001080E0001088E0001090E000103F
:1051A00098E0001070B503F0EDFF002806D021480C
:1051B00005F0ECFA002103000800984700211E4882
:1051C00003F04EFF08F0D2FBC8210620490006F08C
:1051D0007BFD062008F006FBFA208000FDF736FA7A
:1051E000FFF714F800281ED0FFF740F8002814D06D
:1051F000FFF730FCFFF768FC104806F03FFD104B4E
:105200001868FCF7DBF80F4D0F4C227853019B1800
:10521000DB00EB189B689847F7E7FA210B48C900B9
:10522000FDF7ACFBE4E7FA210948C900FDF7A6FB4E
:10523000DAE7C04655420000102700005D1E00104E
:10524000FC510220FC0F0220245B0220B4E000107D
:10525000A0E000100048704780E30010004870474D
:1052600094E3001070B5002826D0032831D81A4BDB
:105270008000C658300008F047FCC0B2011C1F284F
:1052800015D8C9B2002821D00023144DAA1CF05C07
:105290000133DCB210800232A142F8D8C0230131C0
:1052A000C9B249009B000B4328002B8070BD1F2111
:1052B000C9B20028E8D109E0074B084D196802225D
:1052C000A81C06F053F9C1239B00EDE7044B034DE6
:1052D000EAE70020EAE7C046540702201C520220F9
:1052E00002030000F0B5982357464546DE464E4679
:1052F000664AE0B5D75880253C006D02883B9A4647
:1053000085B02C402F420FD001222321604B00207A
:105310005A54DA705F4901F019FA80225E4B92020A
:105320001A655E4B2C009A46FB0617D480235B015E
:105330001F4247D18023DB011F4200D07CE0802345
:105340001B021F4200D085E0BC4200D099E005B0AE
:10535000F0BCBB46B246A946A046F0BD4B4B9B6D88
:105360009846002B29D04C4B00249B46012399469C
:10537000474B012603934346B8461F0004E001341F
:105380007600E4B2202C17D03742F8D05B469E65F9
:105390004B466508A3436D00ED18039B6D019C46C9
:1053A0006544280000F00AFB00285ED10134B743B1
:1053B000E4B27600002FE5D1474680235B015446D6
:1053C0001F42B7D01C430023304A00211360314AEA
:1053D00033489360D360136153619361D361136267
:1053E00053629362D362136353639363D36313640F
:1053F00053649364D364136553659365D3651366EF
:1054000053669366D366136753679367D367F02237
:10541000920006F0A5F8234B234A00211A600020D1
:10542000012201F069F980221B4B12031A658023C7
:10543000DB011F4200D182E70122042100201C432E
:1054400001F0CAF81022144B1A6580231B021F4278
:1054500000D179E70122052100201C4301F0BCF8AE
:1054600080220D4B12011A656EE74B46AA8AA97875
:1054700000200093002301F091F9280000F0DCF9EE
:1054800094E721000948794003F00CFC000011501A
:105490009C560220000010500030115010000100F6
:1054A000DC560220A45A022080011050FCE30010B8
:1054B00010B50121052002F02DF810BD10B5002215
:1054C0000021024800F0E0F910BDC046BC560220A1
:1054D0008022024B5202DA647047C046002011500D
:1054E000F0B5C64600B5060000F080F90C232E4D3D
:1054F0000520AB672D4902F033F8402398462C4C29
:1055000040220021200006F02BF843460127A38308
:1055100021210023274A6770A260136063545F3122
:1055200061844146A18702396354234A2349636059
:10553000E260A1620B60E262214A63622000936034
:10554000D360136153619361D361136253629362B9
:10555000D362136353639363D36313645364936499
:10556000D364136553659365D36513665366936679
:10557000D366136753679367D367F02200219200C5
:10558000403005F0EDFF0F4B0F4A30001A608023CA
:105590009B052F64EB6490230C4AEA50FFF798FFB9
:1055A00080BCB846F0BDC04600001150E552001066
:1055B0009C560220840010500001105080001050B2
:1055C00000001050A45A02208001105010D0010099
:1055D0000B785B0602D14B78052B00D070478A7898
:1055E000014B1A60FAE7C04600001150F0B5CE46F4
:1055F0004746072380B548798E780A790340C878F2
:105600007F21800731401B02F40913434F00820FB2
:10561000944691462A4D3A195201AA1896700126CD
:1056200066405670604600269383D6709077CA0015
:10563000012C29D023488446880162448446AC4426
:10564000604682601660002929D01F4AC900904632
:10565000414441603F223F3393434A46022A00D1EE
:105660005B001A493F190A687F01D3180B60184B79
:10567000ED195340EA604A469006184380236A6851
:105680001B060343136010E01248844688016244FD
:105690008446AC4460468262166000290AD1002329
:1056A00064012C1963600C4BE3600120C0BCB94657
:1056B000B046F0BD064AC900904641444162C9E780
:1056C0009C5602208400105004001050A45A02205E
:1056D0000000105080001050000110500022154BA7
:1056E00010B59A60DA601A615A619A61DA611A62D9
:1056F0005A629A62DA621A635A639A63DA631A64C4
:105700005A649A64DA641A655A659A65DA651A66A3
:105710005A669A66DA661A675A679A67DA67F032E3
:1057200092000021044805F01BFF044B044A1A6054
:1057300010BDC04600001050DC560220A45A0220C2
:105740008001105010B57F200C0020404000E4097B
:10575000110000191A00034B4001C01800F094F822
:10576000012010BD9C5602207F23180010B5084070
:105770000B420BD0C90980224000074B4018400162
:105780000021C018120100F05DF810BD0223034A89
:10579000C9095B1A9366EEE79C560220002011505F
:1057A0007F22130010B50B400A4200D110BDC90979
:1057B0005B005B1804485B01C0180023002203490A
:1057C000C37000F03FF8F1E79C560220FFF7FFFF9F
:1057D0007F21C209034B9200014010B5D258024804
:1057E00003F060FA6407022010E4001080220D4BE1
:1057F000520410B51A600C4B0C491A6010008B68EB
:105800009843FBD10A4C9C220021200005F0A8FE01
:10581000802200215201074805F0A2FE0923636798
:1058200010BDC04600E0004000F0004000C0004055
:105830000000115000001050002303744382838243
:105840008361704710B58368002901D01C6821402E
:10585000002A11D08024E400114322420CD01A689F
:1058600022420BD1074A0A401A60FFE7FFE7FFE731
:10587000FFE7FFE7FFE78368196010BD8078FFF757
:10588000A7FFC046FFFBFFFFF0B5C646002300B5EB
:10589000838201330374436804001F68838B816132
:1058A0001E1C934200D9161C8020B6B2921B93B2E4
:1058B000E278C000304315008446681E854160468A
:1058C0006D03054301204240E27062786382002A42
:1058D0004FD0002B1DD1A023DB011D43334B1B6C8C
:1058E0008023334A9B053A40134362681360A268E1
:1058F00013685B0557D42F4B2B401360FFE7FFE77E
:10590000FFE7FFE7FFE7FFE7A3681D6080BCB8463D
:10591000F0BD802252011543244A126C920702D432
:10592000A278D209DCD0A28B111C9A4200D9191C92
:105930008AB28021C90011439B1A9046E2789BB23B
:105940001600701E864176030E4301214A40E27024
:1059500062786382002A18D0002B02D18023DB01F9
:105960001E43A023144A36043A40DB053543134353
:10597000BBE73200E06805F0F9FDA3699B19A3615C
:1059800080231B021D43638AA3E7E0684246A169A6
:10599000403005F0EBFDA3694344A36180231B0263
:1059A0001E43638AD8E7A078FFF712FF000011506A
:1059B000FFFFFFAFFFFBFFFFFFFFFFDFF0B5C646B6
:1059C00000B5067C0400002E00D1CFE083681A6881
:1059D0001D684378AD05AD0D002B51D1838AEB18BE
:1059E0009BB28382A18B8D4207D2002363826368BE
:1059F0001B68300080BCB846F0BD62681268520077
:105A000002D58D4200D177E0638A002BF1D0626825
:105A10001E1C17688B4200D90E1CE17880220D00F5
:105A2000681E8541B6B2D20032436D031543012290
:105A30009B1B514062789BB26382E170002A6AD05E
:105A4000002B2AD1A023DB011D434D4B1B6C80236F
:105A50004C4A9B053A40134362681360A26813687E
:105A60005B0500D589E0484B2B401360FFE7FFE75B
:105A7000FFE7FFE7FFE7FFE7A36800261D60B8E741
:105A80002A008069E16805F071FDA38AA269EB181C
:105A90009BB25219A382A261A4E78022520115434E
:105AA000374A126C920702D4A278D209CFD0A28BC7
:105AB000111C9A423CD88AB28021C90011439B1A1A
:105AC0009046E2789BB21600701E864176030E4324
:105AD00001214A40E27062786382002A38D0002BAC
