:020000041000EA
:1000000000B5324B212058609868022188439860DF
:10001000D860186158612E4B002199600221596106
:100020000121F02299502B49196001219960352056
:1000300000F044F80222904214D00621196600F024
:1000400034F8196E01211966002018661A6600F04E
:100050002CF8196E196E196E052000F02FF8012189
:100060000842F9D1002199601B49196000215960AB
:100070001A491B48016001219960EB211966A021F2
:10008000196600F012F800219960164914480160C1
:100090000121996001BC002800D000471248134993
:1000A000086003C880F30888084703B5996A0420EC
:1000B0000142FBD001200142F8D103BD02B5186610
:1000C0001866FFF7F2FF186E186E02BD00000240BE
:1000D000000000180000070000035F00212200005C
:1000E000F4000018222000A00001001008ED00E03C
:1000F00000000000000000000000000074B24E7A12
:1001000000200420F7010010C3010010C5010010F9
:10011000C1010010C1010010C1010010C101001097
:10012000C1010010C1010010C1010010C701001081
:10013000C1010010C1010010C9010010CB01001065
:10014000CD010010CD010010CD010010CD01001037
:10015000CD010010CD010010CD010010CD01001027
:10016000CD010010CD010010CD010010CD01001017
:10017000CD010010CD010010CD010010CD01001007
:10018000CD010010CD010010CD010010CD010010F7
:10019000CD010010CD010010CD010010CD010010E7
:1001A000CD010010CD010010CD010010CD010010D7
:1001B000CD010010CD010010CD010010CD010010C7
:1001C00000BE00BE00BE00BE00BE00BEEFF3058054
:1001D000103800BEF2EB8871FCF6011028F7011010
:1001E0003402001090A31AE700201F49086006C8D7
:1001F00081F3088810471D48006800282FD10DA4FE
:100200000ECC002902D000F012F8F9E71849194A7B
:10021000002000E001C19142FCD1174988471749ED
:1002200088471749884700BEFDE701C901C29A42C5
:10023000FBD3704728F70110C0000020BC1E02202D
:1002400024150410000004200000042024150410CC
:10025000001004200010042000000000704709482E
:100260000AF09CFF0047000008ED00E0000000D00D
:10027000C01E022024920220A99A0010E55F0010FF
:100280009D9B00105756000006005250ABB36053C0
:1002900080F2001006005250861C030290F20010FB
:1002A000060052505422A29D98F2001005005250B0
:1002B000DE65F46824150410F8B5C0460648074901
:1002C000091A8B10C90FC91810B5491003D0044B77
:1002D000002B00D0984710BDBC1E0220BC1E02207F
:1002E00000000000054B10B5002B03D00449054861
:1002F00000E000BFFFF7E2FF10BDC04600000000B5
:100300009C91022030EA0010D023044A1B065B684F
:1003100012680120D34018407047C04618170220C9
:10032000D023044A1B065B6812680120D3401840A2
:100330007047C04668170220D023044A1B065B683A
:1003400012680120D34018407047C046B8170220F9
:10035000D023044A1B065B6812680120D340184072
:100360007047C04608180220D023044A1B065B6869
:1003700012680120D34018407047C0465818022028
:10038000D023044A1B065B6812680120D340184042
:100390007047C046A818022030B500290AD0451879
:1003A0002021054A047893691942FCD10130146078
:1003B000A842F7D130BDC0460040034030B5002907
:1003C0000AD045182021054A047893691942FCD1C6
:1003D00001301460A842F7D130BDC0460080034010
:1003E000D02380221B06D2045A617047D02380227A
:1003F0001B0612055A617047124A1379012B05D06A
:10040000072B1AD810499B00CB589F460221137026
:100410000123537000231171D3707047042101230D
:10042000F5E706210123F2E707210123EFE7082181
:100430000123ECE703210123E9E700230021936076
:10044000E5E7C046D846022030EA0010124B1A7980
:10045000042A05D0082A0FD8104992008A589746D6
:10046000032101221A7001225A7000221971DA70D8
:10047000704707210122F5E7002200219A60F1E789
:1004800001210122EEE705210122EBE706210122ED
:10049000E8E702210122E5E7D846022050EA0010F1
:1004A0000122044B5A70DA78002A01D0013ADA703E
:1004B0007047C046D84602200122034B5A70DA78B2
:1004C0000132DA707047C046D8460220084B094A0C
:1004D00019784B015B18DB0007490C335B189360FC
:1004E000052313710223FF3313800023D370704759
:1004F00018920220D8460220F44602208122034BA3
:1005000052001A800022DA707047C046D846022096
:100510008022034B52001A800022DA707047C046D6
:10052000D8460220084B094A19784B015B18DB00BA
:10053000074930335B189360012313710223FF33A3
:1005400013800023D370704718920220D8460220EF
:10055000F4460220084B094A19784B015B18DB006E
:10056000074954335B189360012313710223FF334F
:1005700013800023D370704718920220D8460220BF
:10058000F4460220084B094A19784B015B18DB003E
:10059000074978335B189360012313710223FF33FB
:1005A00013800023D370704718920220D84602208F
:1005B000F4460220084B094A19784B015B18DB000E
:1005C00007499C335B189360012313710223FF33A7
:1005D00013800023D370704718920220D84602205F
:1005E000F4460220084B094A19784B015B18DB00DE
:1005F0000749C0335B189360012313710223FF3353
:1006000013800023D370704718920220D84602202E
:10061000F4460220084B094A19784B015B18DB00AD
:100620000749E4335B189360012313710223FF33FE
:1006300013800023D370704718920220D8460220FE
:10064000F446022010B500230C20024A0CF006F8F4
:1006500010BDC0461027000010B500230D20024A2F
:100660000BF0FCFF10BDC0461027000010B50023A2
:100670000E20024A0BF0F2FF10BDC046102700000A
:1006800010B500230F20024A0BF0E8FF10BDC04652
:100690001027000010B506200DF04EFE10BDC0461C
:1006A00000B583B068460DF05BFE064B009A5A60B9
:1006B0006B469888044B9C466044431E9841C0B2E8
:1006C00003B000BDF81802200008FFFF10B51A2083
:1006D00008F06EFED02380221B06D2045A6210BDA1
:1006E00010B51B2008F064FED02380221B061205E3
:1006F0005A6210BD10B50449044808F08FFE02216B
:10070000002008F02BFE10BD127A000000400340CC
:1007100010B50449044808F081FE0221042008F0C5
:100720001DFE10BD127A00000080034010B508F0D5
:100730005DFE06F05FFF10BD10B502000B0000204B
:10074000002106F00BFD10BDF0B5D6464F464646DB
:10075000C0B5264E0400F368984724239A46013317
:1007600027009946023B984630372568B3886A8847
:1007700093422BD9A9888A18934227DAF3882A88CA
:10078000934223D9E9888A1893421FDA5346F35CCF
:10079000002B03D0AB6A002B00D098474B46F35C8C
:1007A000002B03D0EB6A002B00D098474346F35C44
:1007B000002B03D06B6A002B00D098472623F35CF4
:1007C000002B03D02B6B002B00D098470434A7429A
:1007D000CBD100232322B3540022B3842633F25416
:1007E000E0BCBA46B146A846F0BDC046F8180220A3
:1007F00070B505001D4CE36898472D68A3886A888A
:1008000093422BD9A9888A18934227DAE3882A8849
:10081000934223D9E9888A1893421FDA2423E35CA0
:10082000002B03D0AB6A002B00D098472523E35C54
:10083000002B03D0EB6A002B00D098472323E35C06
:10084000002B03D06B6A002B00D098472623E35C73
:10085000002B03D02B6B002B00D0984700232322C2
:10086000A3540022A3842633E25470BDF81802205A
:10087000084B094A19784B015B18DB0007495433D0
:100880005B189360012313710223FF33138000234D
:10089000D370704718920220D8460220F4460220F6
:1008A000084B094A19784B015B18DB00074978337C
:1008B0005B189360012313710223FF33138000231D
:1008C000D370704718920220D8460220F4460220C6
:1008D000084B094A19784B015B18DB000749C03304
:1008E0005B189360012313710223FF3313800023ED
:1008F000D370704718920220D8460220F446022096
:10090000084B094A19784B015B18DB000749E433AF
:100910005B189360012313710223FF3313800023BC
:10092000D370704718920220D8460220F446022065
:1009300010B5074C206808F03BFD01232068D02249
:100940008340120693620121002208F01FFD10BDB2
:100950001817022010B5074C206808F029FD012364
:100960002068D0228340120693620121002208F001
:100970000DFD10BD6817022010B5074C206808F067
:1009800017FD01232068D0228340120693620121C3
:10099000002208F0FBFC10BDB817022010B5074C70
:1009A000206808F005FD01232068D022834012064C
:1009B00093620121002208F0E9FC10BD0818022012
:1009C00010B5074C206808F0F3FC01232068D02202
:1009D0008340120693620121002208F0D7FC10BD6B
:1009E0005818022010B5074C206808F0E1FC0123DC
:1009F0002068D0228340120693620121002208F071
:100A0000C5FC10BDA8180220F0B54E46DE4657467C
:100A10004546E0B58DB0019316AB1B78147803936F
:100A2000179B0992994600230593002C00D1CBE136
:100A300000250135535D002BFBD14F46019A938869
:100A4000D2885F43BC46FF0F67447F107F429846C1
:100A50001E00C3190A935308CB1A0B934B460692F8
:100A6000002B00DCA9E14D4500DAB0E00023029341
:100A7000B046434603990139C9B20691D0498B4625
:100A8000D049089107211940481E8141203C544318
:100A9000D80809184C43019909688846A044002ADF
:100AA00000D188E16946898D02980491002184462D
:100AB00040208A460A99FF306144411A0791002B71
:100AC00000D164E16B469F8B68230026994641E084
:100AD00041464B46072552460878802163433540FE
:100AE0005B449A5C29410F23134001424BD0039988
:100AF000994217D0069B052B03D8089A5B009B5A96
:100B00000593049A3B00100039000DF045FA0122CC
:100B1000012105980DF06CFB4B46524663435B4444
:100B20009A5C039B073D69424D410099A844002906
:100B300043D149464C430F218A431A4353465C44F0
:100B4000E254019B013F9B8801361900BFB29E42CF
:100B500000DB09E10122029BF3181A4000920122F6
:100B6000DC0FE41864101A42B2D041460725087819
:100B700080214B4652463540294163435B449A5C91
:100B800013090142B3D1002BCCD0049A3B001000D2
:100B900039000DF001FA0121012200200DF028FB9F
:100BA0004B46073D69424D415246634300995B44C1
:100BB0009A5CA84400230029BBD049464C430F212E
:100BC0001B010A40134352465C44A354B9E75D1B22
:100BD0007543AC46EB0F63445B100293069BC01B4E
:100BE0001A0007950138002B00D141E76B469B8D19
:100BF00000279B464023FF331B1A0493029B984611
:100C00004B461793079B012B00DC9AE001239A4681
:100C100040230A9AFF339B1A0024694D00931DE07C
:100C2000682366107343EB18DB5D1B070CD0009B39
:100C30005A46191B89B20B0058460DF0ADF9012236
:100C4000012100200DF0D4FA68230F217343EB1823
:100C5000DA5D01348A43DA55444522DA53462342A9
:100C6000DED0682663105E43AE19F15D99460B092C
:100C70000DD0009B5A46191B89B20B0058460DF047
:100C80008BF90121012200200DF0B2FAF15D4A46F4
:100C9000682353430F22EB180A400134DA554445C8
:100CA000DCDB012300249A461FE068237343994646
:100CB000A9444B46DA5D13070ED0049B5A46191916
:100CC00089B20B0058460DF067F90122012100207E
:100CD0000DF08EFA4B46DA5D68230F2173438A4389
:100CE000EB180134DA5544452BDA019B179A9B889F
:100CF00053435246013B1B1BDE0FF61876101A4277
:100D0000D3D0682373439946A9444B46D95D0B0958
:100D10000ED0049B5A46191989B20B0058460DF0A3
:100D20003BF90121012200200DF062FA4B46D95D0A
:100D300068230F2273430A40EB180134DA55444507
:100D4000D3DB5B4601339BB29B46069B01379F4238
:100D500000D057E7099B1C78002C25D0019B9E886A
:100D6000DB881A00069383E607201840441EA04142
:100D7000804401208446019AE244D288524507DD2E
:100D80000499013189B20491002B00D09AE6002128
:100D9000029C0998A4468C4461464478013009902D
:100DA0000291002C00D06DE60DB0F0BCBB46B246FF
:100DB000A946A046F0BD1900EAE70023029358E6D1
:100DC000E02102203CEE00104B46002BECDD019BA5
:100DD0009E88DD884B465E43F20F921953105B42AA
:100DE000C4180A946C08091B5210C01A06950B917E
:100DF000079602920138002D00D0F7E6D4E7C046EE
:100E000070B50C4E00240C4D113605E00134093547
:100E1000E4B2FF35402C0BD0310028680DF012FCF5
:100E20000028F3D10022054B1C70054B9A7070BD51
:100E30000024F7E770140020F846022018920220E0
:100E4000D846022070B50C4E00240C4D113605E03A
:100E500001340935E4B2FF35402C0BD0310028684D
:100E60000DF0F0FB0028F3D10022054B1C70054B60
:100E70009A7070BD0024F7E7A4140020F846022001
:100E800018920220D846022070B50C4E00240C4D5A
:100E9000113605E001340935E4B2FF35402C0BD0A2
:100EA000310028680DF0CEFB0028F3D10022054B5D
:100EB0001C70054B9A7070BD0024F7E7D814002011
:100EC000F846022018920220D846022070B50C4E37
:100ED00000240C4D113605E001340935E4B2FF352C
:100EE000402C0BD0310028680DF0ACFB0028F3D16A
:100EF0000022054B1C70054B9A7070BD0024F7E76B
:100F00000C150020F846022018920220D846022034
:100F100070B50C4E00240C4D113605E00134093536
:100F2000E4B2FF35402C0BD0310028680DF08AFB6D
:100F30000028F3D10022054B1C70054B9A7070BD40
:100F40000024F7E7A0130020F846022018920220A0
:100F5000D846022070B50C4E00240C4D113605E029
:100F600001340935E4B2FF35402C0BD0310028683C
:100F70000DF068FB0028F3D10022054B1C70054BD7
:100F80009A7070BD0024F7E7D4130020F8460220C1
:100F900018920220D846022070B50C4E00240C4D49
:100FA000113605E001340935E4B2FF35402C0BD091
:100FB000310028680DF046FB0028F3D10022054BD4
:100FC0001C70054B9A7070BD0024F7E708140020D0
:100FD000F846022018920220D846022070B50C4E26
:100FE00000240C4D113605E001340935E4B2FF351B
:100FF000402C0BD0310028680DF024FB0028F3D1E1
:101000000022054B1C70054B9A7070BD0024F7E759
:101010003C140020F846022018920220D8460220F4
:10102000F8B500230C4F00240C4D0D4E3B7305E02A
:1010300001340935E4B2FF35402C0AD0310028686C
:101040000DF000FB0028F3D1064B1C700023BB7091
:10105000F8BD0024F8E7C046D8460220F846022032
:1010600074EA001018920220F0B5DE4657464E464C
:101070004546E0B50A7887B005900291002A00D174
:1010800092E01300002001310A3B5C4263410131D0
:10109000C0184B1E1B78002BF6D1049013000021C2
:1010A000029803E00131435C002B01D00A2BF9D1F7
:1010B000012300930023019303934E4B8B469946E3
:1010C0000A2A00D177E04B4658469988203A48438F
:1010D000C30F1B1801985B1048435B429F331B18DA
:1010E0004846C48804986243451C6543E80F40198C
:1010F000059D40106F1E3F1A039860433F1807205C
:101100000840451EA841CD0840194243484606689C
:10111000B618002C3ED0002292464022FF32D31A4D
:101120009846BFB2002935D0002506E0073C63424F
:101130005C41013536198D421CDA072480232C408E
:10114000234132781342F1D04346591B89B20B0038
:101150003A0038000CF020FF0121012226480DF052
:1011600047F84B46073C998863425C410135361984
:101170008D42E2DB4B46DA8807230B40581E834141
:10118000F61801239C46E244524503DD0137BFB205
:101190000029C9D1019B029A01330193009BD25CC3
:1011A00001330093002A8BD107B0F0BCBB46B24696
:1011B000A946A046F0BD039B009A01330393029B0E
:1011C0009A5C002AF0D0002100988B468446029950
:1011D00013005846614403E001300B5C002B01D042
:1011E0000A2BF9D1009B834601330093002301931E
:1011F00066E7C046501A0220FFFF0000F0B5DE4649
:1012000057464E464546E0B50A7887B005900291AC
:10121000002A00D192E01300002001310A3B5C4219
:1012200063410131C0184B1E1B78002BF6D104908E
:1012300013000021029803E00131435C002B01D030
:101240000A2BF9D1012300930023019303934E4B02
:101250008B4699460A2A00D177E04B465846998832
:10126000203A4843C30F1B1801985B1048435B4268
:101270009F331B184846C48804986243451C654345
:10128000E80F4019059D40106F1E3F1A03986043F8
:101290003F1807200840451EA841CD084019424389
:1012A00048460668B618002C3ED0002292464022DE
:1012B000FF32D31A9846BFB2002935D0002506E088
:1012C000073C63425C41013536198D421CDA072424
:1012D00080232C40234132781342F1D04346591BDE
:1012E00089B20B003A0038000CF056FE01210122B1
:1012F00026480CF07DFF4B46073C998863425C41D1
:10130000013536198D42E2DB4B46DA8807230B4064
:10131000581E8341F61801239C46E244524503DDE2
:101320000137BFB20029C9D1019B029A0133019351
:10133000009BD25C01330093002A8BD107B0F0BC34
:10134000BB46B246A946A046F0BD039B009A0133B6
:101350000393029B9A5C002AF0D0002100988B46F0
:101360008446029913005846614403E001300B5C47
:10137000002B01D00A2BF9D1009B83460133009347
:101380000023019366E7C046501A0220FF070000C1
:10139000F8B5174E347B002C16D0013C3473154D34
:1013A0000024154F05E001340935E4B2FF35402C27
:1013B0001BD0390028680DF045F90028F3D10F4BF8
:1013C0001C700023B370F8BD0D4B0A4D1F6805E07B
:1013D00001340935E4B2FF35402C06D039002868C5
:1013E0000DF030F90028F3D1E9E70024E7E7C04623
:1013F000D8460220F846022074EA00101892022013
:10140000EC460220F8B5194E194B327B1B78DB08ED
:101410009A4216D201320024164D174F327305E05E
:1014200001340935E4B2FF35402C1CD0390028685E
:101430000DF008F90028F3D1104B1C700023B37095
:10144000F8BD0F4B00241F680A4D05E00134093533
:10145000E4B2FF35402C06D0390028680DF0F2F8D0
:101460000028F3D1E8E70024E6E7C046D84602208A
:1014700019920220F846022074EA00101892022005
:10148000EC460220F0B5DE4657464E464546E0B5EE
:101490008DB003920A780B900991002A00D1B8E12F
:1014A0001300002001310A3B5C4263410131C01846
:1014B0004B1E1B78002BF6D10A90130000210998CF
:1014C00003E00131435C002B01D00A2BF9D1039BCF
:1014D0000791002B03DD07998B4200DD37E10123E3
:1014E0000493002306930893CF4B9B460A2A00D10E
:1014F000B5E05B4607989B88203A5843C10F09180E
:101500000B984910451E6D1A069959436D18594696
:10151000CE880A997243481C7043C10F0918089875
:101520004910704349423B31091807201840441EB6
:10153000A041DC080419584662430468A418002E30
:1015400048D08AB29046002201924022FF32521BBC
:10155000029292B20592002B3CD0039A002A4CDCF6
:101560000026474606E0073D6A42554101366419A8
:10157000B3421CDD0725802235402A4121781142E3
:10158000F1D0029B3A00991B89B20B0038000CF095
:1015900003FD01220121A5480CF02AFE5B46073D10
:1015A0006A4255419B8801366419B342E2DCB84671
:1015B0005A46D18807221A40501E8241A418019A27
:1015C00001320192914205DD4246013292B29046CB
:1015D000002BC2D1069B049A01330693099B9A5CA7
:1015E000049B01330493002A00D07FE70DB0F0BCC8
:1015F000BB46B246A946A046F0BD07239A467933BA
:1016000000279946059E15E03300424631004046CA
:101610000CF0C2FC0122012100200CF0E9FD5B4628
:101620009B88073D6A425541013E01376419B6B2B5
:101630009F42BDDA55464A463D402A4123781A4228
:10164000E2D033004246310040460CF0A5FC0122B6
:10165000012176480CF0CCFD5B469B88E1E70498BD
:10166000002484460999089B0A5C013308932000F2
:10167000130007946144002A04D106E001300B5C9A
:10168000002B01D00A2BF9D1079000230693039B6E
:10169000002BA5D007998B42A2DD0B9B624F5C1EED
:1016A0000A9D039BFE88581A691C7143CB0F5B1877
:1016B00008995B1071435B423B335B189DB2BA885B
:1016C000039BA04653434243D90FC9184910611ADE
:1016D000D40F8146A418A0204022400089B2FF32D6
:1016E0006410A4B2531A721E411A091BAA189BB2A5
:1016F000824692B2280089B20CF04EFC32002100E2
:1017000000200CF075FD4846BB880399FC885943BE
:101710004343DA0FD318402250465E10491041442B
:1017200076428B19FF32D31A621E411AAA189BB255
:10173000280092B289B20CF02FFC714222000020E6
:1017400089B20CF055FD099B049A9A5C48E70A9B04
:1017500001339946039B5B1A98464846324E0B9BD1
:10176000F788B1887843039C5A1EC30F4C431B185B
:101770005B105B423B3398B2E30F1B195B10924640
:10178000D31A4246514340229BB2FF32A0259346D2
:10179000D21A92B29446CC0F64186D006410A4B2B1
:1017A000EB1A7A1E8218191B92B2634689B20CF0AA
:1017B000F3FB21003A0000200CF01AFD4246B388EA
:1017C0000399F688594353434A467243DC0FE418A1
:1017D000D30F9B185A465B10491064105B4251446A
:1017E00064423B3398B20B19D31A721E8218691ADD
:1017F0009BB292B289B20CF0CFFB61423200002062
:1018000089B20CF0F5FC099B1A78002A00D066E634
:10181000ECE6039B002B00DCE8E6984601239946A2
:10182000002307930A9398E7501A02207F4A00008A
:10183000F0B5DE464E4657464546E0B58DB00A91B6
:10184000117806009B460892002900D1BCE10B00EC
:10185000002001320A3B5C4263410132C018531E32
:101860001B78002BF6D109900B000022089803E0AA
:101870000132835C002B01D00A2BF9D1169B069212
:10188000002B03DD069A934200DD38E10123039328
:10189000002305930793731E0B930A2900D1B4E02C
:1018A0005B46069A9B88099C5A43D00F80180B9A76
:1018B0004010101A059A01345A4380185A46D288AB
:1018C00020395443E50F2D190A9C6D10013C651B0E
:1018D000079C54432D1907241C40661EB441DE08A2
:1018E000A4190E005946564366430C68A419002AF1
:1018F00046D0A9B28846002101914021FF31091A42
:10190000029189B20491002B31D0169A002A4ADC48
:101910000026474606E0073D6A42554101366419F4
:10192000B3421CDD0725802235402A41217811422F
:10193000F1D0029B3A00991B89B20B0038000CF0E1
:101940002BFB01220121A6480CF052FC5B46073D0F
:101950006A4255419B8801366419B342E2DCB846BD
:1019600007215A461940481E8141D28864184146D1
:1019700001980131013089B2884601909042C2DB62
:10198000059B039A01330593089B995C039B0133E4
:101990000393002900D080E70DB0F0BCBB46B246EF
:1019A000A946A046F0BD07239A46793300279946F9
:1019B000049E15E033004246310040460CF0ECFA3C
:1019C0000122012100200CF013FC5B469B88073D9F
:1019D0006A425541013E01376419B6B29F42BFDAEF
:1019E00055464A463D402A4123781A42E2D0330008
:1019F0004246310040460CF0CFFA012201217848DE
:101A00000CF0F6FB5B469B88E1E7039800248446D4
:101A1000089A079B115C0133079320000B00069482
:101A20006244002904D106E00130135C002B01D090
:101A30000A2BF9D1069000230593169B002BA5D005
:101A4000069A9342A2DD1A005B460699DE88571A71
:101A5000099A9B8801327243D10F89180A9A49105A
:101A6000013A521A0799A0207143521895B2169A5A
:101A700040005A437B43DC0FE4184023D10F891800
:101A80000B9A4910511A89B26410FF33A4B25B1A41
:101A9000721E411A091BAA189BB2804692B22800F6
:101AA00089B20CF079FA3200210000200CF0A0FB82
:101AB000594658468B8816990B9A59437B4394464E
:101AC000DA0FD3184022C48840465E1049106144A2
:101AD00076428B19FF32D31A621E411AAA189BB2A2
:101AE000280092B289B20CF057FA7142220089B2F2
:101AF00000200CF07DFB089B039A995C46E7099B4C
:101B000001339846169B9F1A584644465B46C58843
:101B10009A886C43E00F0019169C0A9B5443013BC2
:101B200040109A46181AE30F1B19711E5B10CB1A4E
:101B3000894699B24023FF335B1A9BB29C46A0238F
:101B40007A43D40FA4185B00641080B2A4B26A1E5A
:101B5000591A8218091B634692B289B20CF01CFA1A
:101B60002A00210000200CF043FB58465946C58846
:101B700040468B8868435F431699C20F5943FC0F58
:101B8000131850464022E419A02749106410494414
:101B900064425B10C01AFF320B1980B2D31A7F0067
:101BA0006A1E8218791A9BB292B289B20CF0F4F9CB
:101BB000614289B22A0000200CF01AFB089B1978B8
:101BC000002900D062E6E7E6169B002B00DCE3E686
:101BD0001F000123984600230693099394E7C0460B
:101BE000ECF90000F0B54E465746DE464546E0B5F6
:101BF0008FB0994618AB0C91197806008A46117877
:101C00000A92002900D123E20B00002001320A3B96
:101C10005C4263410132C018531E1B78002BF6D181
:101C20000B900B0000220A9803E00132835C002B2A
:101C300001D00A2BF9D1199B0892002B03DD089AD9
:101C4000934200DD9EE15346013BDBB2009301234A
:101C500005930023CB4607930993731E0D93C84B3E
:101C600003930A2900D10FE15B46089A9B880B9CDD
:101C70005A43D00F80180D9A4010101A079A013459
:101C80005A4380185A46D28820395443E50F2D19FB
:101C90000C9C6D10013C651B099C54432D190724B5
:101CA0001C40661EB441DE08A4190E005946564376
:101CB00066430C68A419002A47D0002101914021F5
:101CC000FF31091A029189B2ADB20691002B35D0CD
:101CD000199A002A00DD6EE0009A0027052A62D9D1
:101CE0000722904606E0073E724256410137A4198A
:101CF000BB421CDD464680223E40324121781142E3
:101D0000F1D0029B2A00D91B89B20B0028000CF0ED
:101D100043F90122012100200CF06AFA5B46073EDC
:101D2000724256419B880137A419BB42E2DC07216D
:101D30005A461940481E8141D288641801990135DC
:101D400001310191ADB29142C0DB079B059A01338D
:101D500007930A9B995C059B01330593002900D0EA
:101D60007FE70FB0F0BCBB46B246A946A046F0BD27
:101D7000009B039A5B00D35A28009846029B2A00D6
:101D8000D91B89B20B000CF007F901220121404652
:101D90000CF02EFA5B469B88073E72425641013793
:101DA000A419BB42C3DD072680223E403241217880
:101DB0001142F1D0DCE7009B069F052B29D90023B7
:101DC000984607339A464346A84625001C005646C7
:101DD0003B003900424640460CF0DEF8012201216A
:101DE00000200CF005FA26405B46073E7242564141
:101DF0009B88013F0134AD19BFB2A342E7DC072144
:101E000019402C005A46481E81414546D288641824
:101E100094E70023984607339A46793399462B0076
:101E200025004446984615E03B00424639004046AE
:101E30000CF0B2F80122012100200CF0D9F95B4628
:101E40009B88073E72425641013F0134AD19BFB233
:101E50009C42D4DA56464A46264032412B781A42F2
:101E6000E2D0009B039A5B009B5A390042464046F1
:101E700004933B000CF090F80122012104980CF02F
:101E8000B7F95B469B88DCE70598002484460A9AEC
:101E9000099B115C0133099320000B0008946244F4
:101EA000002904D106E00130135C002B01D00A2B7D
:101EB000F9D1089000230793199B002B00D14AE722
:101EC000089A934200DC46E71A005B460899DE88D0
:101ED000571A0B9A9B8801327243D10F89180C9ABA
:101EE0004910013A521A0999A0207143521895B22B
:101EF000199A40005A437B43DC0FE4184023D10F6A
:101F000089180D9A4910511A89B2FF336410A4B28E
:101F10009846721E5B1A411A091BAA189BB2814689
:101F200092B2280089B20CF037F83200210000206C
:101F30000CF05EF95B4619999B880D9A59437B43D7
:101F40009446DA0FD3185E105B4642464846491065
:101F5000DC88614476428B19D31A621E411AAA1892
:101F60009BB2280092B289B20CF016F8714222009E
:101F700089B200200CF03CF90A9B059A995CEAE6CC
:101F80003CEE00100B9B01339846199B9F1A484664
:101F900044464B46C5889A886C43E00F0019199C4B
:101FA0000C9B5443013B40109B46181AE30F1B192E
:101FB000711E5B10CB1A009199B24023FF335B1A5C
:101FC0009BB29C46A0237A43D40FA4185B006410F4
:101FD00080B2A4B26A1E591A8218091B634692B2D3
:101FE00089B20BF0D9FF2A00210000200CF000F983
:101FF00048468388C588404668435F43009A1999DC
:102000009446C20F5943FC0F131858464022E41956
:10201000A02749106410614464425B10C01AFF326B
:102020000B1980B2D31A7F006A1E8218791A9BB2EC
:1020300092B289B20BF0B0FF614289B22A0000204F
:102040000CF0D6F80A9B1978002900D0FBE588E649
:10205000199B002B00DC84E61F0001239846002317
:102060000B93089393E7C046F8B52023494EF35CE1
:10207000002B4DD1336998472123F0540133F35C91
:102080000700834228D0002857D0346B756B06F0C8
:102090002FFE001BA941002900DD73E000D16DE097
:1020A00024230122F254B26BF36BB264F36406F0A2
:1020B0001FFE346B756BB063F16357E0B46BF56B67
:1020C00006F016FE001BA941F3698B4231DB5DD09F
:1020D0002123F35C002B1FD0346B756BB06BF16B5D
:1020E0008D4203D800D0F8BD8442FCD92723F35C8D
:1020F000002BF8D106F0FCFD001BA941002903DCF0
:10210000F1D1254B9842EED90223FF33F384EAE75D
:102110002123F35C002BD1D1346B756B06F0E8FD05
:10212000001BA941F3698B4203DBD5D1B36983421C
:10213000D2D220230022F254CEE723230122F254EC
:10214000326B736B3264736406F0D2FDB26AF36A69
:1021500004000D000120002112184B41B262F3620D
:10216000272334637563B06BF16BF7542123F25C62
:102170000133F2540122023BF254B1E7064B98427C
:1021800000D88DE725230122F2548CE7B3698342FE
:10219000CFD39DE71817022040420F00F8B5202347
:1021A000494EF35C002B4DD1336998472123F054FD
:1021B0000133F35C0700834228D0002857D0346BEA
:1021C000756B06F095FD001BA941002900DD73E049
:1021D00000D16DE024230122F254B26BF36BB264A0
:1021E000F36406F085FD346B756BB063F16357E003
:1021F000B46BF56B06F07CFD001BA941F3698B42C3
:1022000031DB5DD02123F35C002B1FD0346B756B69
:10221000B06BF16B8D4203D800D0F8BD8442FCD97D
:102220002723F35C002BF8D106F062FD001BA941C7
:10223000002903DCF1D1254B9842EED90223FF336C
:10224000F384EAE72123F35C002BD1D1346B756B67
:1022500006F04EFD001BA941F3698B4203DBD5D18B
:10226000B3698342D2D220230022F254CEE7232343
:102270000122F254326B736B3264736406F038FDE2
:10228000B26AF36A04000D000120002112184B41CC
:10229000B262F362272334637563B06BF16BF7545A
:1022A0002123F25C0133F2540122023BF254B1E7E4
:1022B000064B984200D88DE725230122F2548CE783
:1022C000B3698342CFD39DE70818022040420F0034
:1022D000F8B52023494EF35C002B4DD13369984764
:1022E0002123F0540133F35C0700834228D00028F7
:1022F00057D0346B756B06F0FBFC001BA94100291D
:1023000000DD73E000D16DE024230122F254B26BB2
:10231000F36BB264F36406F0EBFC346B756BB06383
:10232000F16357E0B46BF56B06F0E2FC001BA941CA
:10233000F3698B4231DB5DD02123F35C002B1FD08E
:10234000346B756BB06BF16B8D4203D800D0F8BD68
:102350008442FCD92723F35C002BF8D106F0C8FC9B
:10236000001BA941002903DCF1D1254B9842EED98D
:102370000223FF33F384EAE72123F35C002BD1D15E
:10238000346B756B06F0B4FC001BA941F3698B42FA
:1023900003DBD5D1B3698342D2D220230022F25489
:1023A000CEE723230122F254326B736B32647364E1
:1023B00006F09EFCB26AF36A04000D0001200021C1
:1023C00012184B41B262F362272334637563B06B1A
:1023D000F16BF7542123F25C0133F2540122023BEA
:1023E000F254B1E7064B984200D88DE7252301222D
:1023F000F2548CE7B3698342CFD39DE7581802208B
:1024000040420F00F8B52023494EF35C002B4DD11C
:10241000336998472123F0540133F35C070083426A
:1024200028D0002857D0346B756B06F061FC001B78
:10243000A941002900DD73E000D16DE024230122D1
:10244000F254B26BF36BB264F36406F051FC346B7C
:10245000756BB063F16357E0B46BF56B06F048FC45
:10246000001BA941F3698B4231DB5DD02123F35C72
:10247000002B1FD0346B756BB06BF16B8D4203D8A2
:1024800000D0F8BD8442FCD92723F35C002BF8D19F
:1024900006F02EFC001BA941002903DCF1D1254BDD
:1024A0009842EED90223FF33F384EAE72123F35C59
:1024B000002BD1D1346B756B06F01AFC001BA941BF
:1024C000F3698B4203DBD5D1B3698342D2D2202397
:1024D0000022F254CEE723230122F254326B736BB5
:1024E0003264736406F004FCB26AF36A04000D00FF
:1024F0000120002112184B41B262F362272334639A
:102500007563B06BF16BF7542123F25C0133F25425
:102510000122023BF254B1E7064B984200D88DE706
:1025200025230122F2548CE7B3698342CFD39DE780
:10253000F818022040420F00F8B52023494EF35C02
:10254000002B4DD1336998472123F0540133F35CBC
:102550000700834228D0002857D0346B756B06F0F3
:10256000C7FB001BA941002900DD73E000D16DE02D
:1025700024230122F254B26BF36BB264F36406F0CD
:10258000B7FB346B756BB063F16357E0B46BF56BFD
:1025900006F0AEFB001BA941F3698B4231DB5DD035
:1025A0002123F35C002B1FD0346B756BB06BF16B88
:1025B0008D4203D800D0F8BD8442FCD92723F35CB8
:1025C000002BF8D106F094FB001BA941002903DC85
:1025D000F1D1254B9842EED90223FF33F384EAE789
:1025E0002123F35C002BD1D1346B756B06F080FB9B
:1025F000001BA941F3698B4203DBD5D1B369834248
:10260000D2D220230022F254CEE723230122F25417
:10261000326B736B3264736406F06AFBB26AF36AFE
:1026200004000D000120002112184B41B262F36238
:10263000272334637563B06BF16BF7542123F25C8D
:102640000133F2540122023BF254B1E7064B9842A7
:1026500000D88DE725230122F2548CE7B369834229
:10266000CFD39DE7A818022040420F00F8B52023E1
:10267000494EF35C002B4DD1336998472123F05428
:102680000133F35C0700834228D0002857D0346B15
:10269000756B06F02DFB001BA941002900DD73E0DE
:1026A00000D16DE024230122F254B26BF36BB264CB
:1026B000F36406F01DFB346B756BB063F16357E098
:1026C000B46BF56B06F014FB001BA941F3698B4258
:1026D00031DB5DD02123F35C002B1FD0346B756B95
:1026E000B06BF16B8D4203D800D0F8BD8442FCD9A9
:1026F0002723F35C002BF8D106F0FAFA001BA9415E
:10270000002903DCF1D1254B9842EED90223FF3397
:10271000F384EAE72123F35C002BD1D1346B756B92
:1027200006F0E6FA001BA941F3698B4203DBD5D121
:10273000B3698342D2D220230022F254CEE723236E
:102740000122F254326B736B3264736406F0D0FA78
:10275000B26AF36A04000D000120002112184B41F7
:10276000B262F362272334637563B06BF16BF75485
:102770002123F25C0133F2540122023BF254B1E70F
:10278000064B984200D88DE725230122F2548CE7AE
:10279000B3698342CFD39DE76817022040420F0000
:1027A000F8B52023494EF35C002B4DD1336998478F
:1027B0002123F0540133F35C0700834228D0002822
:1027C00057D0346B756B06F093FA001BA9410029B2
:1027D00000DD73E000D16DE024230122F254B26BDE
:1027E000F36BB264F36406F083FA346B756BB06319
:1027F000F16357E0B46BF56B06F07AFA001BA94160
:10280000F3698B4231DB5DD02123F35C002B1FD0B9
:10281000346B756BB06BF16B8D4203D800D0F8BD93
:102820008442FCD92723F35C002BF8D106F060FA30
:10283000001BA941002903DCF1D1254B9842EED9B8
:102840000223FF33F384EAE72123F35C002BD1D189
:10285000346B756B06F04CFA001BA941F3698B428F
:1028600003DBD5D1B3698342D2D220230022F254B4
:10287000CEE723230122F254326B736B326473640C
:1028800006F036FAB26AF36A04000D000120002156
:1028900012184B41B262F362272334637563B06B45
:1028A000F16BF7542123F25C0133F2540122023B15
:1028B000F254B1E7064B984200D88DE72523012258
:1028C000F2548CE7B3698342CFD39DE7B817022057
:1028D00040420F0070B5060000240B4D05E00134A6
:1028E0000935E4B2FF35402C0BD0310028680BF0DD
:1028F000A9FE0028F3D10022044B1C70044B9A70EF
:1029000070BD0024F7E7C046F84602201892022066
:10291000D84602207047C0467047C0467047C04640
:102920007047C046F0B50023C6464C4C00B5236046
:102930004B4B4C4D984682B003F0EAFD0028FBD08B
:1029400001200021404203F0F3FD002705E00020B4
:1029500001A904F0C3FB00280BD10021002004F0E2
:10296000A7FB0028F3D1002FE6D002B080BCB84608
:10297000F0BD6B465B79F02B36D03A4AF72B20D06E
:102980001178002958D021688C46664634498B5509
:102990006346013323606B469B79F02B30D0F72BD5
:1029A0003ED026688B553300013323606B46DB79BC
:1029B000F02B3ED0F72B2CD022688B5401322260B2
:1029C000CBE70023264927681370CB556B469B79CC
:1029D000F02B14D0F72B23D06B46DB79F02B27D0CC
:1029E000F72B16D00700B8E701232B706B469B79B5
:1029F0002A00F02B04D0F72B11D01949D1E707009A
:102A0000012313706B46DB79F02B12D04146F72B74
:102A1000D2D100231370226807008B549DE74146F2
:102A2000002327681370CB556B46DB79F02BD7D189
:102A300007000123137090E76B469B79F02BDFD0E2
:102A4000F72B08D06B46DB79F02BF2D0F72B00D0B8
:102A500083E70349DDE70249E2E7C046E846022092
:102A6000181700201A920220F0B5002385B06A469C
:102A70002B4C2C4E23600293F033137101217368A9
:102A800001A89847284F02AD3A682368D15C002915
:102A900034D02970591C2160515C002937D06970ED
:102AA000991C2160515C002936D0A970D91C525C58
:102AB0002160002A32D0043304212800EA70236008
:102AC00073689847142006F047F903F021FD0028A9
:102AD000DAD001200021404203F02AFD03E000206B
:102AE00003A904F0FBFA0021002004F0E1FA002819
:102AF000F5D13A682368D15C0029CAD16A46F72328
:102B00000121137101A87368984705B0F0BD012138
:102B1000280073689847F1E70221F9E70321F7E7F6
:102B2000E84602201017002058190220F0B5CE46C2
:102B3000474680B513788046894614008BB0002B39
:102B400031D000260021002700255B2B30D05D2BE3
:102B50003BD0282B4DD0292B60D01A00FD205B3AAA
:102B600002421CD01A00103AD2B2192A4DD9002DB7
:102B700005D06A460820121893550136F6B2002F88
:102B800005D06A461020121893550136F6B2002976
:102B900005D06A461820121893550136F6B26378AC
:102BA0000134002BD1D10BB0C0BCB946B046F0BD4A
:102BB000002D04D1002FF2D10029F0D10026637836
:102BC00001340125002BC0D1EDE7002D05D10025F2
:102BD00063780134002BB8D1E5E7002FDFD100295D
:102BE000DDD16B4608229B182F0099550025002641
:102BF000EEE7002DB6D1002FB4D0002922D01A0064
:102C0000103AD2B20F00192AB1D812481041C007A9
:102C1000ADD463780134002B97D1C4E7002DA1D146
:102C2000002F9FD100299DD018226B469B189F55DD
:102C300049460093404604AB02AA00F02BF800215D
:102C400023788AE76A461020121891553900002629
:102C5000002787E7F6FFFFFC70B5002501240A492D
:102C60000A684B6812196B410A604B60074A084BAF
:102C7000107842011218D2009B1800205A6AFFF700
:102C800055FF012070BDC046C01E022018920220D0
:102C9000F4460220F0B557464E464546DE469B4672
:102CA0003023E0B59946CF4B8BB08A460024984636
:102CB000FF27CD4D0590099207AE06E000220021C6
:102CC0000BF02EFE30550134E4B2290009A80BF0B8
:102CD00033FD00280DD00378402BEFD14B46002266
:102CE000037000210BF01CFE434638401B5C33553B
:102CF000E9E73478002C10D0534677781868596883
:102D00003A00002308F0E2FA390020001600984645
:102D100008F09EFAC9B28E4206D00BB0F0BCBB469A
:102D2000B246A946A046F0BD4346002BF5D1584611
:102D3000AE490BF087FC00283ED05846AC490BF05A
:102D400081FC002800D1CEE05846AA490BF07AFC5D
:102D5000002800D1F9E05846A7490BF073FC002881
:102D600000D19BE05846A5490BF06CFC002800D12F
:102D700062E15846A2490BF065FC002800D186E1CB
:102D80005846A0490BF05EFC0028C6D100249E4D99
:102D900006E001340935E4B2FF35402C00D1A1E151
:102DA000286814990BF04EFC0028F2D10022974BB2
:102DB0001C70974B9A70B0E7149B0027099330233F
:102DC0009946884B08AE984607E000220021200073
:102DD0000BF0A6FDF0550137FFB2290009A80BF052
:102DE000ABFC041E0FD02378402BEED14B460022C3
:102DF0002370002120000BF093FDFF234246034087
:102E0000D35CF355E7E70599002900D185E708ABC6
:102E10001A78002A00D180E70E6B4F6B086C496C62
:102E2000361A8F4101217B48494280197941002996
:102E300000D072E7784B984200D96EE700217042CB
:102E4000B941002309F022F81822002308F026FADD
:102E5000724D734B286069601800984605F0AAFD12
:102E6000012200236F490A604B60684A6E4B10785C
:102E700042011218D2009B185A6A0020FFF756FE32
:102E80002E686F6805F0D4FB43460293674B32000F
:102E9000009301943B0005F091FC3EE7149B002455
:102EA0000993302399464F4BFF27984608AE06E01A
:102EB000002200210BF034FD30550134E4B229002A
:102EC00009A80BF039FC002868D00378402BEFD11B
:102ED0004B460022037000210BF022FD4346384090
:102EE0001B5C3355E9E7149B0027099330239A466E
:102EF0003C4B08AE9946FF23984607E0002200218C
:102F000020000BF00DFDF0550137FFB2290009A894
:102F10000BF012FC041E0FD02378402BEED1534649
:102F200000222370002120000BF0FAFC43461840D9
:102F30004B461B5CF355E7E73178002934D100207C
:102F40000021384B18605960E7E6149B0024099370
:102F500030239946CF339846224F08AE06E0002230
:102F600000210BF0DDFC30550134E4B2290009A842
:102F70000BF0E2FB00280DD00378402BEFD14B463D
:102F80000022037000210BF0CBFC434618403B5C51
:102F90003355E9E733787278FA54BEE6244B2100C2
:102FA00030005B689847B8E6224808F029F91821F4
:102FB00008F026F91A4B194D98462860C01768602A
:102FC000180005F0F7FC2E686F6805F031FB4346EA
:102FD0000293164B3200009301943B0005F0EEFB88
:102FE000ADE7C046F48802207CEA001080EA0010B9
:102FF00088EA001090EA001098EA0010A0EA001099
:10300000A8EA0010B0EA0010F84602201892022048
:10301000D8460220BFF2FCFF3E771B00F8160020C6
:10302000C81E0220C01E0220F4460220592C0010A7
:103030001017002000796CFC149B002409933023A6
:103040009946294BFF27984608AE06E0002200214A
:103050000BF066FC30550134E4B2290009A80BF0EE
:103060006BFB00280DD00378402BEFD14B4600229C
:10307000037000210BF054FC434638401B5C335571
:10308000E9E71A4B210030005B68984745E6149B3E
:103090000024099330239946134BFF27984608AE26
:1030A00006E0002200210BF03BFC30550134E4B275
:1030B000290009A80BF040FB00280DD00378402B15
:1030C000EFD14B460022037000210BF029FC434650
:1030D00038401B5C3355E9E7054B210030005B6845
:1030E00098471AE6002461E6F488022000170020C1
:1030F0000817002070B52325354CE3689847635DB9
:10310000002B00D070E02425635D002B00D083E00D
:103110002525635D002B00D092E023252D4CE3682C
:103120009847635D002B00D0A1E02425635D002B50
:1031300000D0B0E02525635D002B00D0BFE0232543
:10314000254CE3689847635D002B00D0CEE0242532
:10315000635D002B00D0DEE02525635D002B00D0F1
:10316000EEE023251D4CE3689847635D002B00D0FB
:10317000FEE02425635D002B00D012E12525635D70
:10318000002B00D022E12325154CE3689847635DAE
:10319000002B00D032E12425635D002B00D042E1FA
:1031A0002525635D002B00D052E123250D4CE368FB
:1031B0009847635D002B00D062E12425635D002BFE
:1031C00000D072E12525635D002B00D082E170BD47
:1031D0001817022068170220B817022008180220CA
:1031E00058180220A8180220C34AC44B11782000A6
:1031F0004A0152182100D2009B189A6B2831FFF720
:1032000095FC002363552425BD4A1378013B1370B8
:10321000635D002B00D17BE7B74AB84B11782000E3
:103220004A0152182100D2009B18DA6B2831FFF7AF
:103230007DFC002363552525635D002B00D16CE7E1
:10324000AD4AAE4B117820004A0152182100D2003D
:103250009B181A6C2831FFF769FC0023635523255E
:10326000A84CE3689847635D002B00D15DE7A24A54
:10327000A24B117820004A0152182100D2009B185D
:10328000DA6D2831FFF752FC002363552425635D76
:10329000002B00D14EE7984A984B117820004A0144
:1032A00052182100D2009B181A6E2831FFF73EFCFD
:1032B000002363552525635D002B00D13FE78E4A2F
:1032C0008E4B117820004A0152182100D2009B1821
:1032D0005A6E2831FFF72AFC0023635523258A4CB8
:1032E000E3689847635D002B00D130E7824A834B47
:1032F000117820004A0152182100D2009B18803317
:103300001A682831FFF712FC002363552425635DFA
:10331000002B00D120E7784A784B117820004A0131
:1033200052182100D2009B1884331A682831FFF705
:10333000FDFB002363552525635D002B00D110E7BD
:103340006D4A6E4B117820004A0152182100D200BC
:103350009B1888331A682831FFF7E8FB0023635570
:1033600023256A4CE3689847635D002B00D100E792
:10337000614A624B117820004A0152182100D200A4
:103380009B18A4331A682831FFF7D0FB002363553C
:1033900024255B4A137801331370635D002B00D141
:1033A000ECE6554A554B117820004A01521821008D
:1033B000D2009B18A8331A682831FFF7B7FB002307
:1033C00063552525635D002B00D1DCE64A4A4B4B53
:1033D000117820004A0152182100D2009B18AC330A
:1033E0001A682831FFF7A2FB002363552325484CB8
:1033F000E3689847635D002B00D1CCE63E4A3F4B23
:10340000117820004A0152182100D2009B18C833BD
:103410001A682831FFF78AFB002363552425635D72
:10342000002B00D1BCE6344A344B117820004A010D
:1034300052182100D2009B18CC331A682831FFF7AC
:1034400075FB002363552525635D002B00D1ACE699
:10345000294A2A4B117820004A0152182100D20033
:103460009B18D0331A682831FFF760FB002363559F
:103470002325284CE3689847635D002B00D19CE628
:103480001D4A1E4B117820004A0152182100D2001B
:103490009B18EC331A682831FFF748FB002363556B
:1034A0002425635D002B00D18CE6134A134B117861
:1034B00020004A0152182100D2009B18F0331A68EC
:1034C0002831FFF733FB002363552525635D002B6F
:1034D00000D17CE6084A094B117820004A015218B5
:1034E0002100D2009B18F4331A682831FFF71EFB25
:1034F000002363556BE6C04618920220F446022072
:103500001B92022068170220B81702200818022018
:1035100058180220A8180220F0B5DE464546574646
:103520004E46E0B5C94B8FB01B689847C84B1B6827
:103530009847C84B1B689847C74D2B689847C74C9E
:10354000236898476B68984763689847C44B9946C7
:103550009B689847C34B9A469B689847C24B9B46CB
:103560009B689847C14B08939B689847C04B099349
:103570009B689847BF4B98469B689847BE4BBF4D8A
:103580000693BF4BBF4C0793BF4B0593D027012633
:103590003F0602E03B6D1E4218D1FFF7ABFD02F083
:1035A000B7FF0028F6D001200021404202F0C0FF02
:1035B00003E000200CA903F091FD0021002003F09E
:1035C00077FD0028F5D13B6D1E42E6D0FA200021A0
:1035D0000BAA800009F070F80028D7D00B9B002BB5
:1035E0003DD0022B69D0042B00D181E0062B00D105
:1035F0008BE0092B00D19AE00C2B00D1A9E00D2B18
:1036000000D1D0E00E2B00D1F7E00F2BBED1226805
:10361000636801219D48494207F040FE0A22524258
:10362000D31712184B4101219948494207F036FE41
:103630001822002307F032FE20606160280005F0A8
:10364000B9F92668676804F0F3FF00230193059B2E
:103650003200009302953B0005F0B0F896E7002297
:10366000002349468A62CB6251468A62CB62594640
:103670008A62CB62089900208A62CB6209998A62C9
:10368000CB6241468A62CB62012200230C920D93E9
:10369000079B0CA91A7853019B18069ADB009446E5
:1036A00063449A6AFFF742FAFA220023012092004B
:1036B00008F0D4FF0B9B022B95D1012200230C9222
:1036C0000D93079B00201A780CA953019B18069AAA
:1036D000DB0094466344DA6AFFF728FAFA220023F3
:1036E0000320920008F0BAFF0B9B042B00D07DE76B
:1036F000280005F05FF9FA2200230520920008F067
:10370000ADFF0B9B062B00D073E7FA22002392003B
:10371000072008F0A3FFFFF7A7F9FA2200230820EB
:10372000920008F09BFF0B9B092B00D064E7FA2264
:10373000002392000A2008F091FFFFF7F3F8FA2225
:1037400000230B20920008F089FF0B9B0C2B00D06C
:1037500055E72268636801214C48494207F09EFD05
:103760000122002312184B4101214948494207F028
:1037700095FD1822002307F091FD2060616028006C
:1037800005F018F92668676804F052FF00230193DA
:10379000059B3200009302953B0005F00FF80B9B50
:1037A0000D2B00D02EE7226863680121374849427B
:1037B00007F074FD0A22002312184B4101213448FE
:1037C000494207F06BFD1822002307F067FD2060D7
:1037D0006160280005F0EEF82668676804F028FFAD
:1037E00000230193059B3200009302953B0004F0F7
:1037F000E5FF0B9B0E2B00D007E7226863680121D1
:103800002248494207F04AFD01225242D3171218BA
:103810004B4101211E48494207F040FD1822002378
:1038200007F03CFD20606160280005F0C3F82668C1
:10383000676804F0FDFE00230193059B32000093AE
:1038400002953B0004F0BAFF0B9BDEE61017002048
:1038500000170020081700204819022050190220E4
:103860001817022068170220B81702200818022033
:1038700058180220A8180220F4460220C81E022070
:1038800018920220F8160020592C001060DAD9FF97
:1038900000796CFCF0B557464E464546DE46E0B52D
:1038A0008BB014AD10CD03262D78D70FAB4616ADD7
:1038B0002D78BF18019517AD2D787F10029518ADA2
:1038C0002D783818039519AD2D7882B2049500250E
:1038D0009146DA0FD218521051188BB29A46131B28
:1038E00098466300F61A05950695079508953F1BBF
:1038F00025B236B2240424D45B46013BDBB29B469E
:10390000994B002409933B004F469946039B002B9B
:103910002AD1049B002B58D1029B002B00D088E0B9
:10392000019B002B00D0B9E0002E11DB631B9B0034
:103930000A36013D01349E192DB224B236B2A54299
:10394000E4DA0BB0F0BCBB46B246A946A046F0BDD7
:10395000A4B2A30006360134F61824B236B2AC4243
:10396000EFDC039B002BD4D0524650195A463B192A
:103970004B444044052A00D9CEE009995200525ADE
:103980004021FF31C91A80B289B20B0005920200B2
:103990000AF002FB0122012105980AF029FC524697
:1039A00040217B194B44A018FF31C91A404480B212
:1039B00089B20B0002000AF0EFFA012201210598FA
:1039C0000AF016FC049B002BA6D04A463B1B9B1A10
:1039D000524650195A464044052A00D9B6E0099982
:1039E00052008A5A4021FF31C91A80B289B20B00B5
:1039F000069202000AF0D0FA0122012106980AF08C
:103A0000F7FB4A467B1B9B1A40215246FF31A01808
:103A1000C91A404480B289B20B0002000AF0BCFA15
:103A20000122012106980AF0E3FB029B002B00D142
:103A300076E74A467B1B9B1A5246101B4246801A69
:103A40005A46052A75D8099952008A5A4021FF31F1
:103A5000C91A80B289B20B00079202000AF09CFAE0
:103A60000122012107980AF0C3FB4A463B1B9B1A1F
:103A700052464021501B4246FF31801AC91A80B27B
:103A800089B20B0002000AF087FA0122012107988F
:103A90000AF0AEFB019B002B00D145E75246501BBC
:103AA0004246801A5A463B194B44052A27D85946A4
:103AB0002D4A49008A5A4021FF31C91A80B289B281
:103AC0000B00089202000AF067FA0122012108980F
:103AD0000AF08EFB52464021101B42467B194B4494
:103AE000FF31801AC91A80B289B20B0002000AF0B5
:103AF00053FA0122012108980AF07AFB14E74021C9
:103B0000FF31C91A80B289B202000B000AF044FAF0
:103B1000012201210020DBE74021FF31C91A80B2D8
:103B200089B202000B000AF037FA012201210020BD
:103B300033E74021FF31C91A80B289B202000B007D
:103B40000AF02AFA0122012100208CE74021FF31EE
:103B5000C91A80B289B202000B000AF01DFA0122D4
:103B6000012100204BE7C0463CEE0010F0B5DE46D8
:103B700057464E464546E0B589B01C0012AB80CB97
:103B800091461B7800979A4600239B460133059384
:103B900004930393029353460193230006000D0000
:103BA000FFF778FE4B46DB1BDB1B98465346013B79
:103BB000DBB2F119052B56D84A4A5B009B5A89B2F1
:103BC0009B4643469BB29846A02342465B009B1A05
:103BD0005B1A9BB29A464023FF33591AA8B28AB2A5
:103BE00013005146079202000AF0D6F9012241461D
:103BF00058460AF0FDFA281980B20200079B514688
:103C00000AF0CAF90122414658460AF0F1FA402367
:103C1000E41BE41BED19A4B2ADB2FF33671E991B80
:103C2000EF1989B2BFB20B003A0028000AF0B4F9CC
:103C30002200012158460AF0DBFA4E444021FF31B0
:103C4000891B89B20B003A0028000AF0A5F922006E
:103C5000012158460AF0CCFA09B0F0BCBB46B24686
:103C6000A946A046F0BD43469BB29846A0234246D3
:103C70005B0089B29B1A5B1A9BB29A464023FF33C2
:103C8000591AA8B28AB213005146079202000AF0EC
:103C900083F90122414600200AF0AAFA281980B2CD
:103CA0000200079B51460AF077F9012241460020A5
:103CB0000AF09EFA4023E41BE41BED19A4B2ADB256
:103CC000FF33671E991BEF1989B2BFB20B003A0090
:103CD00028000AF061F92200012100200AF088FA88
:103CE0004E44ABE73CEE001070B5837B0400458981
:103CF00082B0002B00D10225E37BEDB2002B32D144
:103D00001E4A1F4B11784A015218D2009B185A685C
:103D1000637C002B01D022001132237C002B11D0B8
:103D2000E188208849080918A0886688236A400825
:103D3000A48980190231013001940095FCF764FEDA
:103D400002B070BDE188208849080918A0886688FB
:103D5000236A4008A489801902310130019400953A
:103D6000FDF740FFECE7E388A28821886088019591
:103D700026890096FFF7FAFEC2E7C0461892022095
:103D8000F4460220F0B5DE4657464E464546E0B5BD
:103D9000664B8FB01A7B6649013268469B4607F036
:103DA000C7F96448694611300AF090FC4023EF22BD
:103DB000FF33002100200AF0EFF8A0210020490085
:103DC000F0220AF015FA03AB984642465A4B13CB41
:103DD00013C213CB13C213CB13C203CB03C25B4674
:103DE0001E7B564BF6001B7801369A469E4200DB3E
:103DF00099E0C14600247501514BAD19ED00ED1855
:103E00004B46DF686968380011300AF05FFC2B8888
:103E100001367B810123BB7323000134E4B2564594
:103E200062DA04239C460935E144FF35082CE7D1CA
:103E300044460EAF01CCFFF757FFA742FAD18023CB
:103E40005A465B001380FF3B937022339A4603333C
:103E500099463C4EF368984744462568B3886A887B
:103E600093422BD9A9888A18934227DAF3882A88A3
:103E7000934223D9E9888A1893421FDA2423F35CFA
:103E8000002B03D0AB6A002B00D098472523F35CAE
:103E9000002B03D0EB6A002B00D098475346F35C0D
:103EA000002B03D06B6A002B00D098474B46F35C85
:103EB000002B03D02B6B002B00D098470434A74273
:103EC000CBD100235246B3544A46B384B35405F0D1
:103ED00029FD5B469B78002BBCD10FB0F0BCBB46E4
:103EE000B246A946A046F0BD082CA1D01E1DF6B2D0
:103EF000154BE71C9A4602239946FFB2BF00474480
:103F0000B60020CF092228005146113008F02EF8C3
:103F100043464A469B5901345A810023E4B2AB73AD
:103F2000082CEED184E703260024E1E7D8460220DE
:103F3000B8EA0010FC10002058ED00101992022081
:103F4000F4460220F8180220C0EA0010F0B5DE4660
:103F500057464E464546E0B5002393B004206F4ACD
:103F600008F07CFB0CAB0293002800D0C9E0402392
:103F7000EF22FF33002100200AF00EF8A021F022EA
:103F8000002049000AF034F901214942A0200091A3
:103F9000634B644A7931FDF74BFCFA20800004F052
:103FA000DBFE614861490722113007F0DFFF604CFA
:103FB00004AD23002A002C3303CB03C21B7811204D
:103FC000137002AB9C4605226044002107F0C8FF35
:103FD000584B280019680AF00FFB0100564808AD3D
:103FE00011300AF073FB23002A003C3303CB03C2D9
:103FF0001B882220138002AB9C46042260440021CF
:1040000007F0AEFF28004D490AF0F6FA01004C48CF
:1040100012AF11300AF05AFB4023EF22FF33002188
:10402000002009F0B9FFA02100204900F0220AF089
:10403000DFF8029D23002A004C3313CB13C213CBAD
:1040400013C22C0001CCFFF74FFEA742FAD1802308
:104050003C4A5B001380FF3B937022339946033345
:104060009846394E0392F368984724239B460133C0
:104070009A46029C2568B3886A8893422BD9A988FE
:104080008A18934227DAF3882A88934223D9E98849
:104090008A1893421FDA5B46F35C002B03D0AB6AAD
:1040A000002B00D098475346F35C002B03D0EB6AFB
:1040B000002B00D098474B46F35C002B03D06B6A73
:1040C000002B00D098474346F35C002B03D02B6BAA
:1040D000002B00D098470434A742CBD100234A4696
:1040E000B3544246B384B35405F01CFC039B9B7845
:1040F000002BB8D113B0F0BCBB46B246A946A046CF
:10410000F0BD1A000021054808F0D6FA002800D1B9
:104110002DE70C9B052B00D143E728E71027000073
:10412000581A0220CCEA0010FC100020E4EA00102B
:1041300058ED0010F046022040150020EC1600203B
:10414000DC150020D8460220F8180220F0B5DE4623
:1041500057464E464546E0B50023C3B00020DD4A31
:1041600008F07CFA10AB9A46002800D0B0E040235B
:10417000EF22FF330021002009F00EFFA021F022E2
:10418000002049000AF034F801214942A0200091A2
:10419000D14BD24A7931FDF74BFBFA20800004F075
:1041A000DBFDCF4ACF4B11780F244A015218D200C1
:1041B0009B185968CC4B18680AF088FA52460123BC
:1041C000002005E01080642B09D00133DBB20232FD
:1041D000591E0129F6D8D91D14705170F5E7C34B4B
:1041E000C34E1A0005930023137080235B003380B5
:1041F000FF3BB37006330293063B99469B4606335A
:104200000393BC4B00250693BB4B0024BB4F079385
:104210000EE0002C03D14B46002B00D070E00EA81E
:10422000FCF7E6FA05F07EFBB378002B28D0357852
:10423000002DF7D10E977378002B0AD1B04B0622D0
:1042400018685968002307F041F81A43E1D00024A8
:10425000E5E74023EF22FF330021002009F09CFE18
:10426000A021F0224900002009F0C2FF3800FFF72A
:104270003BFD0022A020A349FDF704F97570DDE79E
:1042800000230220934A08F0E9F900282DD14023A9
:10429000EF22FF330021002009F07EFEA021F02252
:1042A0000020490009F0A4FF01214942A02000910B
:1042B000894B954A7931FDF7BBFAFA20800004F06A
:1042C0004BFD43B0F0BCBB46B246A946A046F0BD8C
:1042D0001A0000217F4808F0EFF9002800D146E7D6
:1042E000109B012B00D15CE741E7002179480FAA20
:1042F00008F0E2F90028CAD00F9B032BE1D0C6E7F3
:10430000029B9B2507339800C018039B40009C46E6
:1043100080B2990040230200614449006D0089B2D7
:10432000FF33984609325B1A691A9BB292B289B27E
:1043300009F032FE0A220A21744809F059FF5B464F
:104340005A0094460993534663445B7804925BB2E7
:1043500007339800C01853469B56400080B299001E
:104360000200C9184346490089B25B1A0932691A2A
:104370009BB292B289B209F00FFE0A220A210020F4
:1043800009F036FF53465B7800225BB20733980092
:10439000C01853469A56400093009B1880B25B00A9
:1043A000020099B2434609325B1A691A9BB292B273
:1043B00089B209F0F1FDFC200A220A21C00009F0AF
:1043C00017FF5B465A1ED1B2D3075B1AD1185B4464
:1043D00058004900049A514450440AF021FB00233C
:1043E000059AD356032B00DCAEE0147053469B783D
:1043F0005BB29846534642461A705246DB78013B00
:104400005BB20493537043461F2B00DCBAE00023D9
:10441000524698461370049B102B00DCAAE0002340
:104420005246049353705B46012B00D10BE10CAB59
:104430009C46049B1225DA1D52B293009B185B0028
:1044400099B243469B229B0043445B009BB25200BF
:10445000D21A92B20B920A00093292B20C92402206
:10446000FF32D31A9BB20D934B46320008933B00A8
:1044700046465F4601249B46904665440A9104E007
:104480000134E4B20235BC4244D00023EB56B342BF
:10449000F6D10123049AEB569342F1D10D9B0C9A6D
:1044A0000B990A9809F078FD0A220A21184809F0A8
:1044B0009FFE08231B21A120079A0093069BFDF76E
:1044C000B7F90022A0200F49FCF7DCFF0023089376
:1044D000D6E7C04610270000581A0220ECEA001068
:1044E00018920220F4460220EC4602201B92022081
:1044F000D8460220601A022014EB0010C8100020D9
:10450000C01E022004EB001030EB00107F4A0000B8
:10451000ECF900005B464646BB461F0053461B783D
:10452000039A5BB2934235D06422099B5049D21A58
:104530000FA806F0FDFD0222FA200FA9FCF7A2FF4A
:10454000089B4C4699466AE6002B64DB00D14DE798
:10455000012B5CD0022B68D053469B78013B5BB2A9
:104560009846534642461A705246DB785BB2049333
:10457000537048E7002B00DB55E7102352460493A5
:10458000537050E7002B00DB45E71F235246984647
:10459000137040E753465B78029A5BB29342C3D1F3
:1045A0005B46524650460133D9B24B1E5B00D25A8D
:1045B0004B000991C252632948D8B0465E460AF0C2
:1045C00001F81F2106F01CFE4DB209F0FBFF0F227F
:1045D000C3171B0FC0181040C31A0CAA94460293AD
:1045E000122363441A000020012105E04B1CDBB2BA
:1045F00002328E4212D019000023D356AB42F5D1BD
:104600000123029CD356A342F0D14846EEE753461D
:104610009B780133A3E7032313709DE70028CED1D5
:10462000099B46469B4603957EE753469B785BB2C3
:104630009846534642461A705246DB7801335BB2C5
:1046400004935370DFE64B46089367E70821019116
:104650000339084BA120084A00911631FDF7C2FA30
:104660000022A0200549FCF70DFF00230893A4E7D2
:104670002CEB0010601A022020EB001004EB00105D
:10468000F0B5DE4657464E4645464023E0B587B076
:10469000FF33EF2200210590002009F07DFCA021CE
:1046A000F0220020490009F0A3FD142304934023C5
:1046B000FF339B4604990024CB035B1A5B00033352
:1046C0000AB21BB20193130000927833A032039315
:1046D00002926B4626009A895B46A0369E1BB6B2B4
:1046E000330010003100904609F056FC01220121F0
:1046F000BE4809F07DFD25005B46029A78359B1A7D
:10470000ADB29BB219002A0028009A4609F044FC79
:1047100001220121B54809F06BFDA02359461F1B5A
:10472000CF1BBFB23B0042464046390009F034FC83
:1047300001220121AD4809F05BFDA022009B280069
:10474000D31A5A46D31A9AB2904613002A007825F3
:10475000414609F021FC01220121A44809F048FD4D
:104760002B1B9AB2914643461000414609F014FCB7
:10477000012201219D4809F03BFD009B3900ED1A03
:10478000ADB23B002A00280009F006FC01220121FD
:10479000964809F02DFD33002A003100280009F069
:1047A000FBFB01220121914809F022FD53464A46B4
:1047B0005146484609F0F0FB012201218B4809F0DF
:1047C00017FD019A002A13DB00990A32631A9B0035
:1047D0009B181BB2019301344B1E1BB224B20093F1
:1047E000A34211DB1A00A03378320392029370E7E0
:1047F000A4B2A30006329B181AB20134009B24B263
:104800000192A34200DB64E7049B013304931A2B5B
:1048100000D04FE793337A229221752009F0BCFB38
:1048200006221C21714809F0E3FCC5239122C02116
:104830005E2009F0B1FB342206216C4809F0D8FC57
:104840007F2391227A215E2009F0A6FB34220621E3
:10485000664809F0CDFCD5237A22CC21752009F0D9
:104860009BFB06220A21614809F0C2FC73237A22CD
:104870006A21752009F090FB06220A215B4809F0A5
:10488000B7FCE4236A22DF215E2009F085FB0D22BC
:104890000621564809F0ACFC602391225B2185205B
:1048A00009F07AFB0D220621504809F0A1FC0A23E9
:1048B00000934023FF339946009B0024DD03ED1A4B
:1048C0006D0003351EB22DB26B232F009B46013BBA
:1048D0009A463500B846B3445B4698B25346191B16
:1048E0004B46591A89B20B00020009F055FB012210
:1048F00001213E4809F07CFC53462000591B4B46E1
:104900006B30591A80B289B202000B0009F044FBE7
:1049100001220121354809F06BFC002F0EDB631BDF
:104920009B000A37013D0134DF192DB224B23FB29A
:10493000AC420CDC6B239B46AB44CDE7A4B2A30096
:1049400006370134FF1824B23FB2A542C4DAD5239A
:104950004546984600248427B04421004B46D53173
:10496000591AB81B80B289B20B00020009F014FB7F
:10497000012201211D4809F03BFC4B464246381BF1
:10498000991A80B289B202000B0009F005FB0122DE
:104990000121164809F02CFC002D0EDBA31B9B0007
:1049A0000A35013E01345D1936B224B22DB2A64259
:1049B0000CDBD5239846B044CFE7A4B2A30006355C
:1049C0000134ED1824B22DB2A642C6DA009B0133A1
:1049D0000093102B00D06FE7059804F0BDF907B0E5
:1049E000F0BCBB46B246A946A046F0BDECF90000BB
:1049F000F0B585B00390837B04004689002B00D17D
:104A00000226E37BF6B2002B00D05EE0354A364B3F
:104A100011784A015218D2009B185A68637C002B07
:104A200001D022001132237C002B3DD0E188208868
:104A300049080918A08867884008C019A789236A0F
:104A40000231013001970096FBF7DEFF04F050F9C8
:104A5000264D06000F0004E0002940D003A8FBF714
:104A6000C7FE04F045F9801BB9410029F4DDA021FF
:104A7000402367882088A688E488013601344900ED
:104A8000B6B2A4B2421EC91BFF33DB1BA218891B9E
:104A90009BB292B289B209F07FFA22003100002065
:104AA00009F0A6FB05B0F0BDE18820884908091887
:104AB000A08867884008C019A789236A023101309D
:104AC00001970096FDF78EF8C0E7E388A288218859
:104AD0006088019627890097FFF748F896E7A84273
:104AE000BCD9C4E718920220F4460220BFC62D00AC
:104AF00010B50248FFF77CFF10BDC046AC16002081
:104B000010B50248FFF774FF10BDC04644160020E0
:104B10000F4B10B51A005B6E84B00093643293881B
:104B20006A4693806B460822981D002107F018FA08
:104B30006846084909F060FD074C0100200011306B
:104B400009F0C4FD2000FFF753FF04B010BDC046BC
:104B500058ED0010E41600207415002010B502482E
:104B6000FFF746FF10BDC046A8150020F0B5574618
:104B700045464E46DE46E0B58BB09A4614AB1B78F0
:104B80000500984615AB1F7803780E000192002BA4
:104B900053D0002189462A49002400228B46013542
:104BA00020E00A2B20D002A98B5492451ED80B007E
:104BB0000132D2B24946995443469B199C4209DAC4
:104BC000B44207D35A46D088A31B584302A93E30AB
:104BD000FCF74AFA01356B1E1B7801340022E4B25F
:104BE000002B0AD09F42DCD102ABE3E701356B1EFC
:104BF0001B780132D2B2002BF4D1002A07D002A9CF
:104C00008B544246921994420ADB0134E4B2019B70
:104C10001C700BB0F0BCBB46B246A946A046F0BD26
:104C2000B4425B41DBB2002BEFD0054BA61BD8880A
:104C300070433E30FCF718FAE7E70024E7E7C04688
:104C4000501A022070B584B06A460023684C694E41
:104C5000D373A368F0881D6806F0D6FD664B00226A
:104C600006F061FD06F0E8FD2900FCF7C7FA23799C
:104C7000012B39D0022B07D0033BDBB2052B1CD80C
:104C80005E4A9B00D3589F46F08806F0BDFD5C4D00
:104C90005C4B002206F047FD06F0CEFD2900FCF734
:104CA000ADFAA368E178986820230193173B0F229F
:104CB00000936A441033FFF759FF0023524A5349C7
:104CC00093738B736B46DB7B092B05D9E078002847
:104CD00004D1907301238B7304B070BD012409309B
:104CE00094739842F8DAF5E7F08806F08DFD484DA8
:104CF0000022444B06F017FD06F09EFD2900FCF74C
:104D00007DFAA3680F2258680A23E1780193013BDA
:104D100000936A441033FFF729FF2379AAE7F0884C
:104D200006F072FD3B4D374B002206F0FCFC06F00E
:104D300083FD2900FCF762FAA368E178D869B3E73C
:104D4000F08806F061FD344D2E4B002206F0EBFC9E
:104D500006F072FD2900FCF751FAA368E178986922
:104D6000A2E7F08806F050FD2C4D264B002206F0FD
:104D7000DAFC06F061FD2900FCF740FAA368E1784F
:104D8000186991E7F08806F03FFD254D1D4B002284
:104D900006F0C9FC06F050FD2900FCF72FFAA368C5
:104DA000E17858690A230193013B80E7F08806F017
:104DB0002BFD1C4D134B002206F0B5FC06F03CFD0C
:104DC0002900FCF71BFAA368E178186A6CE7F08801
:104DD00006F01AFD144D0B4B002206F0A4FC06F061
:104DE0002BFD2900FCF70AFAA368E178D8685BE795
:104DF000D8460220501A02200000E03F98EB001035
:104E000050EB00100000F83F6C1300203813002016
:104E100048EB001088EB00107CEB001064EB0010F6
:104E200070EB001090EB001058EB0010F0B5DE4670
:104E300057464E464546E0B5002393B00020D24A7F
:104E400007F00CFC002800D046E24023EF22FF339D
:104E50000021002009F0A0F8A021F0220020490044
:104E600009F0C6F901214942A0200091C74BC84A68
:104E70007931FCF7DDFCFA20800003F06DFFC54BB3
:104E8000C54C1E78C54B7501AF19FF00E71979684D
:104E9000186809F01BFCC24B042218009A46C14B4B
:104EA00011301900984607F061F8BF4B41461800D1
:104EB000042211309B4607F059F8396BBB480B7838
:104EC000002B00D1D9E101238373113009F0FEFBDF
:104ED000AB19DB00E318596DB5480B789846002BE9
:104EE00000D1BAE101278773113009F0EFFBB14817
:104EF00003228773B049113007F038F8AB19DB0093
:104F0000E318996FAD480B789846002B00D194E1D7
:104F100001278773113009F0D9FBA9480322877351
:104F2000A849113007F022F8AB19DB00E3189C33D5
:104F30001968A5480B78002B00D177E10123837312
:104F4000113009F0C3FBAB19DB00E318C03319685B
:104F50009E480B789846002B00D157E101278773B4
:104F6000113009F0B3FB9A48032287739949113035
:104F700006F0FCFFAD19ED006419E4342168964891
:104F80000D78002D00D1EFE001248473113009F079
:104F90009DFB9248032284739149113006F0E6FF8D
:104FA0008023904A904E5B000392904A3380FF3BEF
:104FB000B370914600238E4D2DE006AC22008D4B40
:104FC000743383CB83C283CB83C283CB83C283CB33
:104FD00083C27378002B00D056E10121864B8748AD
:104FE0001A685B68494206F059F98549020005A82C
:104FF00006F09EF8584605A9113009F067FB58469F
:10500000FEF772FE2000FBF79FFB04F08BFCB378E9
:10501000002B57D03378002BCFD0022B00D17AE071
:10502000012BF2D106AC2200039B543383CB83C205
:105030001B68136073780AAA9046002B00D08CE19D
:10504000EB6898472768AA8879888A422BD9BB8859
:105050005B189A4227DAEA8839888A4223D9FB8882
:105060005B189A421FDA2423EB5C002B03D0BB6A47
:10507000002B00D098472523EB5C002B03D0FB6A64
:10508000002B00D098472323EB5C002B03D07B6AD6
:10509000002B00D098472623EB5C002B03D03B6B02
:1050A000002B00D0984704344445CBD10023232261
:1050B000AB540022AB842633EA5404F033FCB378BB
:1050C000002BA7D1002302202F4A07F0C7FA00289F
:1050D00000D00EE14023EF22FF330021002008F032
:1050E0005BFFA021F0220020490009F081F8012196
:1050F0004942A0200091254B424A7931FCF798FBA8
:10510000FA20800003F028FE13B0F0BCBB46B24684
:10511000A946A046F0BD06AC2200324B243383CB17
:1051200083C283CB83C283CB83C283CB83C2737896
:10513000002B00D0EAE001212F4B30481A685B6851
:10514000494206F0ABF82E49020005A805F0F0FF31
:10515000504605A9113009F0B9FA5046FEF7C4FDD2
:105160002000FBF7F1FA50E7274C8573210002225B
:10517000113006F0FBFE1948022285732100113020
:1051800006F0F4FE0CE7C04610270000581A022073
:10519000ECEA001018920220F4460220EC460220AD
:1051A000280F0020B0EB00105C0F00203011002011
:1051B0006411002098110020B8EB0010CC110020E1
:1051C00000120020BCEB00103412002068120020F6
:1051D0009C120020C0EB0010D0120020041300200D
:1051E000C4EB0010D8ED0010D8460220E0210220C8
:1051F000F818022058ED0010F816002060DAD9FFE8
:105200002CEB001030EB0010B4EB00105F4F8373F9
:1052100039000222113006F0A9FE43465C48022202
:1052200083733900113006F0A1FEA3E683730222D6
:105230005649113006F09AFE85E6544F83733900C3
:105240000222113006F092FE434652480222837336
:105250003900113006F08AFE66E64C4F8373390040
:105260000222113006F082FE43464B48022283732D
:105270003900113006F07AFE40E68373022243497A
:10528000113006F073FE23E6444B454918006830A0
:105290005F180200002102C39A42FCD16832030069
:1052A000974201D06830F6E74023EF22FF33002118
:1052B000002008F071FEA021F0220020490008F033
:1052C00097FF12AB2700984601CFFEF70DFD47452B
:1052D000FAD10023737080E60021324806AA07F055
:1052E000EBF9002800D1B0E5069B012B00D1C6E503
:1052F000ABE500212B4806AA07F0DEF9002800D113
:10530000E8E6069B032B00D1FEE6E3E6484668305C
:105310004B460200002102C39342FCD1224F683267
:105320000300BA4201D06830F5E74023EF22FF3393
:105330000021002008F030FEA021F02200204900CA
:1053400008F056FF12AB2700984601CFFEF7CCFCC1
:10535000B845FAD100237370EDE64023EF22FF3306
:105360000021002008F018FEA021F02200204900B2
:1053700008F03EFF2700FFF765FC01CFFEF7B4FC05
:105380004745FAD1002373705AE6C046B4EB0010CB
:105390009C1200200012002098110020E021022021
:1053A000602500001027000040470220F0B5454668
:1053B000DE4657464E468422E0B5C44DD201A818B9
:1053C0002B0002210022C24C87B019805C609A60D9
:1053D0000933FF338342F8D1842601277600320057
:1053E0000021280006F0BCFDBA4B32006B60BA4BBE
:1053F0002F80AB600021A81906F0B2FD8622AF53C2
:105400000027B64B5200AB50B54B0432AB503E00B8
:105410000137FFB27B01DB19DB00EB182100586874
:1054200009F010F90028F2D1AE4F3B78002B15D0CF
:105430000022AD4994468846AC4900248A46AC49CE
:1054400089463C2B1FD03B5D3E2B21D03C2B01D00D
:10545000132B0AD101343B5D002BF2D107B0F0BC15
:10546000BB46B246A946A046F0BD102019008143B4
:10547000F0D0002AEED0604602A90B5461460131FB
:10548000CBB29C46E6E7002301229C463B55E1E770
:10549000002ADFD00023614602AA5354029A954B9A
:1054A0009A4227D0944B029A9A4235D0914B049A53
:1054B0009A4208D0904B049A9A4254D0002300227A
:1054C0009C460134C7E702AA8C4B92899A42F1D1DB
:1054D00002AB9B7B002BEDD1894902A809F0B2F801
:1054E000002837D1874B01343A191A600023002273
:1054F0009C46B0E702AA814B92889A42D2D102AB75
:105500009B79002BCED102A904A809F0DFF8002373
:1055100000229C4601349EE702AA7B4B92889A4265
:10552000C4D102AB9B79002BC0D102A904A809F019
:10553000CDF80422754B0136F6B21E7073019B192B
:10554000DB00EA52724AEB189A60002300229C4664
:10555000013480E76F4902A809F074F8013400288B
:105560001CD16D4BC0E702AA674B92899A42A5D124
:1055700002AB9B7B002BA1D1414602A809F062F847
:1055800000280FD173019B190134DB003A19EB1885
:10559000DA605A60002300229C465CE70023002268
:1055A0009C4658E7514602A809F04CF8002819D14A
:1055B00073019B19DB009B46AB445A4601340193AF
:1055C0003B1956495068136209F03CF80028E5D1B0
:1055D0000323019AAB525A46514B93600023002299
:1055E0009C4638E7494602A809F02CF800280AD161
:1055F00073019B190134DB00EB183A195A6200233E
:1056000000229C4627E7474902A809F01BF800281A
:105610000AD173019B190134DB00EB183A199A6225
:10562000002300229C4616E73F4902A809F00AF829
:1056300000280AD173019B190134DB00EB183A19D9
:10564000DA62002300229C4605E7384902A808F0E8
:10565000F9FF00280AD173019B190134DB00EB1814
:105660003A191A63002300229C46F4E6304902A846
:1056700008F0E8FF00280AD173019B190134DB0010
:10568000EB183A195A63002300229C46E3E62949A5
:1056900002A808F0D7FF002809D184235B007343D8
:1056A00001343A19EB189A6300229446D3E6224952
:1056B00002A808F0C7FF021E40D184235B00734399
:1056C0000134EB1839198446D963C4E6F446022044
:1056D000C0EA001074EA0010853D0010E4EA0010F2
:1056E0004D3F001018170020E0EB0010E8EB001011
:1056F000F8EB00105359535450524553454D000098
:10570000D0EB0010F0460220455400001992022010
:105710002D4E0010D8EB0010EC460220F0EB0010EC
:105720004D41001000EC001008EC001010EC0010CF
:1057300018EC001020EC001028EC0010C94902A859
:1057400008F080FF021E08D184235B0073430134FC
:10575000EB183919844619647DE6C34902A808F09C
:1057600071FF021E08D184235B0073430134EB18E0
:105770003919844659656EE6BC4902A808F062FFF3
:10578000021E08D184235B0073430134EB183919DE
:10579000844699655FE6B64902A808F053FF021EE9
:1057A00008D184235B0073430134EB183919844614
:1057B000D96550E6AF4902A808F044FF021E08D19F
:1057C00084235B0073430134EB183919844619664E
:1057D00041E6A94902A808F035FF021E08D184233A
:1057E0005B0073430134EB1839198446596632E67D
:1057F000A24902A808F026FF021E08D184235B00FC
:1058000073430134EB1839198446996723E69C49A0
:1058100002A808F017FF002809D184235B00734316
:1058200001343A19EB18DA670022944613E69549D9
:1058300002A808F007FF021E09D184235B0073430E
:105840000134EB18803339198446196003E68E4918
:1058500002A808F0F7FE021E09D184235B007343FF
:105860000134EB188433391984461960F3E587490C
:1058700002A808F0E7FE021E09D184235B007343EF
:105880000134EB188833391984461960E3E58049FF
:1058900002A808F0D7FE021E09D184235B007343DF
:1058A0000134EB189C33391984461960D3E57949E2
:1058B00002A808F0C7FE021E09D184235B007343CF
:1058C0000134EB18A033391984461960C3E57249D5
:1058D00002A808F0B7FE021E09D184235B007343BF
:1058E0000134EB18A433391984461960B3E56B49C8
:1058F00002A808F0A7FE021E09D184235B007343AF
:105900000134EB18A833391984461960A3E56449BA
:1059100002A808F097FE021E09D184235B0073439E
:105920000134EB18AC3339198446196093E55D49AD
:1059300002A808F087FE021E09D184235B0073438E
:105940000134EB18C03339198446196083E5564990
:1059500002A808F077FE00280AD184235B00734375
:105960000134EB183A19C4331A600022944672E5E8
:105970004E4902A808F066FE021E09D184235B008E
:1059800073430134EB18C83339198446196062E552
:10599000474902A808F056FE021E09D184235B0085
:1059A00073430134EB18CC3339198446196052E53E
:1059B000404902A808F046FE021E09D184235B007C
:1059C00073430134EB18D03339198446196042E52A
:1059D000394902A808F036FE021E09D184235B0073
:1059E00073430134EB18E43339198446196032E506
:1059F000324902A808F026FE021E09D184235B006A
:105A000073430134EB18E83339198446196022E5F1
:105A10002B4902A808F016FE021E09D184235B0060
:105A200073430134EB18EC3339198446196012E5DD
:105A3000244902A808F006FE021E09D184235B0057
:105A400073430134EB18F03339198446196002E5C9
:105A50001D4902A808F0F6FD0134021E36D00022CE
:105A60009446F8E430EC001038EC001040EC0010E4
:105A700048EC001050EC001058EC001060EC0010E6
:105A800068EC001070EC001078EC001080EC001056
:105A900088EC001090EC001098EC0010A0EC0010C6
:105AA000A8EC0010B0EC0010B8EC0010C0EC001036
:105AB000C8EC0010D0EC0010D8EC0010E0EC0010A6
:105AC000E8EC0010F0EC0010F8EC001084235B0010
:105AD0007343EB18F433391984461960BBE4C046AC
