:020000041000EA
:1000000000B5324B212058609868022188439860DF
:10001000D860186158612E4B002199600221596106
:100020000121F02299502B49196001219960352056
:1000300000F044F80222904214D00621196600F024
:1000400034F8196E01211966002018661A6600F04E
:100050002CF8196E196E196E052000F02FF8012189
:100060000842F9D1002199601B49196000215960AB
:100070001A491B48016001219960EB211966A021F2
:10008000196600F012F800219960164914480160C1
:100090000121996001BC002800D000471248134993
:1000A000086003C880F30888084703B5996A0420EC
:1000B0000142FBD001200142F8D103BD02B5186610
:1000C0001866FFF7F2FF186E186E02BD00000240BE
:1000D000000000180000070000035F00212200005C
:1000E000F4000018222000A00001001008ED00E03C
:1000F00000000000000000000000000074B24E7A12
:1001000000200420F7010010C3010010C5010010F9
:10011000C1010010C1010010C1010010C101001097
:10012000C1010010C1010010C1010010C701001081
:10013000C1010010C1010010C9010010CB01001065
:10014000CD010010CD010010CD010010CD01001037
:10015000CD010010CD010010CD010010CD01001027
:10016000CD010010CD010010CD010010CD01001017
:10017000CD010010CD010010CD010010CD01001007
:10018000CD010010CD010010CD010010CD010010F7
:10019000CD010010CD010010CD010010CD010010E7
:1001A000CD010010CD010010CD010010CD010010D7
:1001B000CD010010CD010010CD010010CD010010C7
:1001C00000BE00BE00BE00BE00BE00BE00F04BF888
:1001D000103800BEF2EB88719CFE0110C8FE0110C1
:1001E0003402001090A31AE700202149086006C8D5
:1001F00081F3088810471F48006800282FD10DA4FC
:100200000ECC002902D000F012F8F9E71A491B4A77
:10021000002000E001C19142FCD1194988471949E9
:1002200088471949884700BEFDE701C901C29A42C3
:10023000FBD37047C8FE0110C0000020A4140220A8
:10024000AC1204100000042000000420AC120410C2
:1002500000100420001004200000000070470B482C
:100260000BF038FC0047EFF30580C0B27047000088
:1002700008ED00E0000000D0A81402201088022041
:10028000F99E00100D650010E99F00105756000000
:1002900006005250ABB3605320FA001006005250D3
:1002A000861C030230FA0010060052505422A29D10
:1002B00038FA001005005250DE65F468AC120410E4
:1002C000F8B5C04606480749091A8B10C90FC91866
:1002D00010B5491003D0044B002B00D0984710BD37
:1002E000A4140220A414022000000000054B10B545
:1002F000002B03D00449054800E000BFFFF7E2FFF0
:1003000010BDC0460000000088870220D0F1001018
:10031000D023044A1B065B6812680120D3401840B2
:100320007047C046100D0220D023044A1B065B68AC
:1003300012680120D34018407047C046600D02206B
:10034000D023044A1B065B6812680120D340184082
:100350007047C046B00D0220D023044A1B065B68DC
:1003600012680120D34018407047C046000E02209A
:10037000D023044A1B065B6812680120D340184052
:100380007047C046500E0220D023044A1B065B680B
:1003900012680120D34018407047C046A00E0220CA
:1003A00030B500290AD045182021054A0478936900
:1003B0001942FCD101301460A842F7D130BDC046CB
:1003C0000040034030B500290AD045182021054AD5
:1003D000047893691942FCD101301460A842F7D126
:1003E00030BDC04600800340124A1379012B05D06E
:1003F000072B1AD810499B00CB589F460221137037
:100400000123537000231171D3707047042101231D
:10041000F5E706210123F2E707210123EFE7082191
:100420000123ECE703210123E9E700230021936086
:10043000E5E7C046C03C0220D0F10010124B1A790B
:10044000042A05D0082A0FD8104992008A589746E6
:10045000032101221A7001225A7000221971DA70E8
:10046000704707210122F5E7002200219A60F1E799
:1004700001210122EEE705210122EBE706210122FD
:10048000E8E702210122E5E7C03C0220F0F100107C
:100490000122044B5A70DA78002A01D0013ADA704E
:1004A0007047C046C03C02200122034B5A70DA78E4
:1004B0000132DA707047C046C03C0220084B094A3E
:1004C00019784B015B18DB0007490C335B1893600C
:1004D000052313710223FF3313800023D370704769
:1004E00004880220C03C0220DC3C02208122034B15
:1004F00052001A800022DA707047C046C03C0220C9
:100500008022034B52001A800022DA707047C046E6
:10051000C03C0220084B094A19784B015B18DB00EC
:10052000074930335B189360012313710223FF33B3
:1005300013800023D370704704880220C03C02203F
:10054000DC3C0220084B094A19784B015B18DB00A0
:10055000074954335B189360012313710223FF335F
:1005600013800023D370704704880220C03C02200F
:10057000DC3C0220084B094A19784B015B18DB0070
:10058000074978335B189360012313710223FF330B
:1005900013800023D370704704880220C03C0220DF
:1005A000DC3C0220084B094A19784B015B18DB0040
:1005B00007499C335B189360012313710223FF33B7
:1005C00013800023D370704704880220C03C0220AF
:1005D000DC3C0220084B094A19784B015B18DB0010
:1005E0000749C0335B189360012313710223FF3363
:1005F00013800023D370704704880220C03C02207F
:10060000DC3C0220084B094A19784B015B18DB00DF
:100610000749E4335B189360012313710223FF330E
:1006200013800023D370704704880220C03C02204E
:10063000DC3C022010B500230C20024A0CF000FC28
:1006400010BDC0461027000010B500230D20024A3F
:100650000CF0F6FB10BDC0461027000010B50023BB
:100660000E20024A0CF0ECFB10BDC0461027000023
:1006700010B500230F20024A0CF0E2FB10BDC0466B
:100680001027000010B506200EF050FA10BDC0462D
:1006900000B583B068460EF05DFA064B009A5A60CA
:1006A0006B469888044B9C466044431E9841C0B2F8
:1006B00003B000BDF00E02200008FFFF10B5044992
:1006C000044809F0A9FB0221002009F05DFB10BDE0
:1006D000127A00000040034010B50449044809F0B4
:1006E0009BFB0221042009F04FFB10BD127A000091
:1006F0000080034010B509F02FFB07F041FE10BD4C
:1007000010B502000B000020002107F007FC10BD0F
:10071000F0B5D6464F464646C0B5264E0400F368AF
:10072000984724239A46013327009946023B98466E
:1007300030372568B3886A8893422BD9A9888A18EC
:10074000934227DAF3882A88934223D9E9888A18C2
:1007500093421FDA5346F35C002B03D0AB6A002BA5
:1007600000D098474B46F35C002B03D0EB6A002B7C
:1007700000D098474346F35C002B03D06B6A002BF4
:1007800000D098472623F35C002B03D02B6B002B63
:1007900000D098470434A742CBD100232322B3547E
:1007A0000022B3842633F254E0BCBA46B146A846D0
:1007B000F0BDC046F00E022070B505001D4CE36888
:1007C00098472D68A3886A8893422BD9A9888A18EC
:1007D000934227DAE3882A88934223D9E9888A1842
:1007E00093421FDA2423E35C002B03D0AB6A002B77
:1007F00000D098472523E35C002B03D0EB6A002B45
:1008000000D098472323E35C002B03D06B6A002BB6
:1008100000D098472623E35C002B03D02B6B002BE2
:1008200000D0984700232322A3540022A384263318
:10083000E25470BDF00E0220084B094A19784B01B2
:100840005B18DB00074954335B1893600123137175
:100850000223FF3313800023D370704704880220E3
:10086000C03C0220DC3C0220084B094A19784B01AD
:100870005B18DB000749C0335B18936001231371D9
:100880000223FF3313800023D370704704880220B3
:10089000C03C0220DC3C0220084B094A19784B017D
:1008A0005B18DB000749E4335B1893600123137185
:1008B0000223FF3313800023D37070470488022083
:1008C000C03C0220DC3C0220084B094A19784B014D
:1008D0005B18DB00074978335B18936001231371C1
:1008E0000223FF3313800023D37070470488022053
:1008F000C03C0220DC3C022010B5074C206809F007
:100900006DFA01232068D0228340120693620121F0
:10091000002209F051FA10BD100D022010B5074C4D
:10092000206809F05BFA01232068D0228340120678
:1009300093620121002209F03FFA10BD600D0220F0
:1009400010B5074C206809F049FA01232068D0222D
:100950008340120693620121002209F02DFA10BD96
:10096000B00D022010B5074C206809F037FA0123BA
:100970002068D0228340120693620121002209F0F0
:100980001BFA10BD000E022010B5074C206809F0BC
:1009900025FA01232068D0228340120693620121A8
:1009A000002209F009FA10BD500E022010B5074CC4
:1009B000206809F013FA01232068D0228340120630
:1009C00093620121002209F0F7F910BDA00E022068
:1009D000F0B54E46DE4657464546E0B58DB001932C
:1009E00016AB1B7814780393179B09929946002342
:1009F0000593002C00D1CBE100250135535D002B80
:100A0000FBD14F46019A9388D2885F43BC46FF0FC3
:100A100067447F107F4298461E00C3190A9353080B
:100A2000CB1A0B934B460692002B00DCA9E14D45F7
:100A300000DAB0E000230293B0464346039901393F
:100A4000C9B20691D0498B46D04908910721194077
:100A5000481E8141203C5443D80809184C43019951
:100A600009688846A044002A00D188E16946898D3A
:100A7000029804910021844640208A460A99FF305A
:100A80006144411A0791002B00D164E16B469F8BB2
:100A900068230026994641E041464B4607255246C9
:100AA00008788021634335405B449A5C29410F23D9
:100AB000134001424BD00399994217D0069B052B56
:100AC00003D8089A5B009B5A0593049A3B001000D8
:100AD00039000DF05BFE0122012105980DF082FF27
:100AE0004B46524663435B449A5C039B073D694215
:100AF0004D410099A844002943D149464C430F2158
:100B00008A431A4353465C44E254019B013F9B884D
:100B100001361900BFB29E4200DB09E10122029BAF
:100B2000F3181A4000920122DC0FE41864101A42F4
:100B3000B2D041460725087880214B4652463540C1
:100B4000294163435B449A5C13090142B3D1002BF2
:100B5000CCD0049A3B00100039000DF017FE0121A3
:100B6000012200200DF03EFF4B46073D69424D41FA
:100B70005246634300995B449A5CA84400230029D1
:100B8000BBD049464C430F211B010A401343524638
:100B90005C44A354B9E75D1B7543AC46EB0F63445B
:100BA0005B100293069BC01B1A0007950138002BAF
:100BB00000D141E76B469B8D00279B464023FF33C6
:100BC0001B1A0493029B98464B461793079B012BD5
:100BD00000DC9AE001239A4640230A9AFF339B1ACD
:100BE0000024694D00931DE0682366107343EB18E1
:100BF000DB5D1B070CD0009B5A46191B89B20B000A
:100C000058460DF0C3FD0122012100200DF0EAFE3F
:100C100068230F217343EB18DA5D01348A43DA55F8
:100C2000444522DA53462342DED0682663105E43F1
:100C3000AE19F15D99460B090DD0009B5A46191B60
:100C400089B20B0058460DF0A1FD012101220020C0
:100C50000DF0C8FEF15D4A46682353430F22EB189E
:100C60000A400134DA554445DCDB012300249A466E
:100C70001FE0682373439946A9444B46DA5D130786
:100C80000ED0049B5A46191989B20B0058460DF034
:100C90007DFD0122012100200DF0A4FE4B46DA5D0E
:100CA00068230F2173438A43EB180134DA55444516
:100CB0002BDA019B179A9B8853435246013B1B1B1F
:100CC000DE0FF61876101A42D3D068237343994684
:100CD000A9444B46D95D0B090ED0049B5A461919FD
:100CE00089B20B0058460DF051FD01210122002070
:100CF0000DF078FE4B46D95D68230F2273430A40FE
:100D0000EB180134DA554445D3DB5B4601339BB223
:100D10009B46069B01379F4200D057E7099B1C78F2
:100D2000002C25D0019B9E88DB881A00069383E661
:100D300007201840441EA041804401208446019AA7
:100D4000E244D288524507DD0499013189B2049109
:100D5000002B00D09AE60021029C0998A4468C44FE
:100D600061464478013009900291002C00D06DE674
:100D70000DB0F0BCBB46B246A946A046F0BD190076
:100D8000EAE70023029358E6C8170220DCF50010BA
:100D90004B46002BECDD019B9E88DD884B465E4375
:100DA000F20F921953105B42C4180A946C08091B85
:100DB0005210C01A06950B91079602920138002D29
:100DC00000D0F7E6D4E7C04670B50C4E00240C4DB9
:100DD000113605E001340935E4B2FF35402C0BD063
:100DE000310028680EF028F80028F3D10022054BC6
:100DF0001C70054B9A7070BD0024F7E7980900201D
:100E0000E03C022004880220C03C022070B50C4E59
:100E100000240C4D113605E001340935E4B2FF35EC
:100E2000402C0BD0310028680EF006F80028F3D1D2
:100E30000022054B1C70054B9A7070BD0024F7E72B
:100E4000CC090020E03C022004880220C03C0220A3
:100E500070B50C4E00240C4D113605E001340935F7
:100E6000E4B2FF35402C0BD0310028680DF0E4FFD0
:100E70000028F3D10022054B1C70054B9A7070BD01
:100E80000024F7E7000A0020E03C0220048802204A
:100E9000C03C022070B50C4E00240C4D113605E00C
:100EA00001340935E4B2FF35402C0BD031002868FD
:100EB0000DF0C2FF0028F3D10022054B1C70054B3A
:100EC0009A7070BD0024F7E7340A0020E03C02204D
:100ED00004880220C03C022070B50C4E00240C4D4A
:100EE000113605E001340935E4B2FF35402C0BD052
:100EF000310028680DF0A0FF0028F3D10022054B37
:100F00001C70054B9A7070BD0024F7E7680A00203A
:100F1000E03C022004880220C03C022070B50C4E48
:100F200000240C4D113605E001340935E4B2FF35DB
:100F3000402C0BD0310028680DF07EFF0028F3D143
:100F40000022054B1C70054B9A7070BD0024F7E71A
:100F50009C0A0020E03C022004880220C03C0220C1
:100F600070B50C4E00240C4D113605E001340935E6
:100F7000E4B2FF35402C0BD0310028680DF05CFF47
:100F80000028F3D10022054B1C70054B9A7070BDF0
:100F90000024F7E7D00A0020E03C02200488022069
:100FA000C03C022070B50C4E00240C4D113605E0FB
:100FB00001340935E4B2FF35402C0BD031002868EC
:100FC0000DF03AFF0028F3D10022054B1C70054BB1
:100FD0009A7070BD0024F7E7040B0020E03C02206B
:100FE00004880220C03C0220F8B500230C4F0024E6
:100FF0000C4D0D4E3B7305E001340935E4B2FF356D
:10100000402C0AD0310028680DF016FF0028F3D1DB
:10101000064B1C700023BB70F8BD0024F8E7C046E7
:10102000C03C0220E03C022014F2001004880220A0
:10103000F0B5DE4657464E464546E0B50A7887B0DD
:1010400005900291002A00D192E0130000200131A6
:101050000A3B5C4263410131C0184B1E1B78002BD8
:10106000F6D1049013000021029803E00131435CA3
:10107000002B01D00A2BF9D1012300930023019307
:1010800003934E4B8B4699460A2A00D177E04B4694
:1010900058469988203A4843C30F1B1801985B10A3
:1010A00048435B429F331B184846C48804986243F8
:1010B000451C6543E80F4019059D40106F1E3F1AFF
:1010C000039860433F1807200840451EA841CD08FB
:1010D0004019424348460668B618002C3ED000220C
:1010E00092464022FF32D31A9846BFB2002935D02B
:1010F000002506E0073C63425C41013536198D420C
:101100001CDA072480232C40234132781342F1D08B
:101110004346591B89B20B003A0038000DF036FBEC
:101120000121012226480DF05DFC4B46073C9988C1
:1011300063425C41013536198D42E2DB4B46DA8869
:1011400007230B40581E8341F61801239C46E244B6
:10115000524503DD0137BFB20029C9D1019B029A74
:1011600001330193009BD25C01330093002A8BD1A1
:1011700007B0F0BCBB46B246A946A046F0BD039BF3
:10118000009A01330393029B9A5C002AF0D000215D
:1011900000988B468446029913005846614403E048
:1011A00001300B5C002B01D00A2BF9D1009B834648
:1011B000013300930023019366E7C0463C100220F0
:1011C000FF070000F8B5174E347B002C16D0013C09
:1011D0003473154D0024154F05E001340935E4B290
:1011E000FF35402C1BD0390028680DF025FE002863
:1011F000F3D10F4B1C700023B370F8BD0D4B0A4D9B
:101200001F6805E001340935E4B2FF35402C06D0F3
:10121000390028680DF010FE0028F3D1E9E700241A
:10122000E7E7C046C03C0220E03C022014F2001078
:1012300004880220D43C0220F8B5194E194B327BA9
:101240001B78DB089A4216D201320024164D174F44
:10125000327305E001340935E4B2FF35402C1CD06F
:10126000390028680DF0E8FD0028F3D1104B1C7000
:101270000023B370F8BD0F4B00241F680A4D05E032
:1012800001340935E4B2FF35402C06D03900286816
:101290000DF0D2FD0028F3D1E8E70024E6E7C046D0
:1012A000C03C022005880220E03C022014F200101D
:1012B00004880220D43C0220F0B5DE4657464E4654
:1012C0004546E0B58DB003920A780B900991002A4B
:1012D00000D1B8E11300002001310A3B5C426341B8
:1012E0000131C0184B1E1B78002BF6D10A90130059
:1012F0000021099803E00131435C002B01D00A2B47
:10130000F9D1039B0791002B03DD07998B4200DD88
:1013100037E101230493002306930893CF4B9B46A8
:101320000A2A00D1B5E05B4607989B88203A5843CB
:10133000C10F09180B984910451E6D1A069959439B
:101340006D185946CE880A997243481C7043C10FE4
:10135000091808984910704349423B310918072081
:101360001840441EA041DC08041958466243046832
:10137000A418002E48D08AB2904600220192402242
:10138000FF32521B029292B20592002B3CD0039A7C
:10139000002A4CDC0026474606E0073D6A425541DC
:1013A00001366419B3421CDD0725802235402A41ED
:1013B00021781142F1D0029B3A00991B89B20B00AF
:1013C00038000DF0E3F901220121A5480DF00AFBD8
:1013D0005B46073D6A4255419B8801366419B3421A
:1013E000E2DCB8465A46D18807221A40501E824194
:1013F000A418019A01320192914205DD4246013260
:1014000092B29046002BC2D1069B049A01330693F8
:10141000099B9A5C049B01330493002A00D07FE768
:101420000DB0F0BCBB46B246A946A046F0BD0723AE
:101430009A46793300279946059E15E033004246C7
:10144000310040460DF0A2F90122012100200DF0EB
:10145000C9FA5B469B88073D6A425541013E013708
:101460006419B6B29F42BDDA55464A463D402A410C
:1014700023781A42E2D033004246310040460DF054
:1014800085F90122012176480DF0ACFA5B469B8874
:10149000E1E70498002484460999089B0A5C01331B
:1014A00008932000130007946144002A04D106E049
:1014B00001300B5C002B01D00A2BF9D107900023DF
:1014C0000693039B002BA5D007998B42A2DD0B9BB3
:1014D000624F5C1E0A9D039BFE88581A691C71436B
:1014E000CB0F5B1808995B1071435B423B335B1871
:1014F0009DB2BA88039BA04653434243D90FC918F3
:101500004910611AD40F8146A418A020402240003F
:1015100089B2FF326410A4B2531A721E411A091B19
:10152000AA189BB2824692B2280089B20DF02EF919
:101530003200210000200DF055FA4846BB8803997F
:10154000FC8859434343DA0FD318402250465E10BB
:101550004910414476428B19FF32D31A621E411A58
:10156000AA189BB2280092B289B20DF00FF971420D
:101570002200002089B20DF035FA099B049A9A5C8A
:1015800048E70A9B01339946039B5B1A98464846F5
:10159000324E0B9BF788B1887843039C5A1EC30FC9
:1015A0004C431B185B105B423B3398B2E30F1B1993
:1015B0005B109246D31A4246514340229BB2FF32FF
:1015C000A0259346D21A92B29446CC0F64186D00AF
:1015D0006410A4B2EB1A7A1E8218191B92B26346E9
:1015E00089B20DF0D3F821003A0000200DF0FAF98D
:1015F0004246B3880399F688594353434A46724397
:10160000DC0FE418D30F9B185A465B104910641086
:101610005B42514464423B3398B20B19D31A721E99
:101620008218691A9BB292B289B20DF0AFF861428A
:101630003200002089B20DF0D5F9099B1A78002AF2
:1016400000D066E6ECE6039B002B00DCE8E698465B
:1016500001239946002307930A9398E73C10022040
:101660007F4A0000F0B5DE464E4657464546E0B597
:101670008DB00A91117806009B460892002900D18E
:10168000BEE10B00002001320A3B5C4263410132A3
:10169000C018531E1B78002BF6D109900B000022B6
:1016A000089803E00132835C002B01D00A2BF9D1AA
:1016B000169B0692002B03DD069A934200DD3AE169
:1016C00001230393002305930793731E0B930A29A9
:1016D00000D1B6E05B46069A9B88099C5A43D00F1E
:1016E00080180B9A4010101A059A01345A4380183A
:1016F0005A46D28820395443E50F2D190A9C6D10A3
:10170000013C651B079C54432D1907241C40661E91
:10171000B441DE08A4190E005946564366430C68CE
:10172000A419002A47D0A9B288460021019140217E
:10173000FF31091A029189B20491002B32D0169A16
:10174000002A4BDC0026474606E0073D6A42554129
:1017500001366419B3421DDD0725802235402A4138
:1017600021781142F1D0029B3A00991B89B20B00FB
:1017700038000DF00BF8F8200122012100020DF0D5
:1017800031F95B46073D6A4255419B880136641931
:10179000B342E1DCB84607215A461940481E814150
:1017A000D2886418414601980131013089B28846D7
:1017B00001909042C1DB059B039A01330593089B7E
:1017C000995C039B01330393002900D07FE70DB0A0
:1017D000F0BCBB46B246A946A046F0BD07239A46D8
:1017E000793300279946049E15E0330042463100C4
:1017F00040460CF0CBFF0122012100200DF0F2F851
:101800005B469B88073D6A425541013E013764199A
:10181000B6B29F42BFDA55464A463D402A41237838
:101820001A42E2D033004246310040460CF0AEFF8F
:10183000F8200122012100020DF0D4F85B469B88BC
:10184000E0E7039800248446089A079B115C013363
:10185000079320000B0006946244002904D106E09F
:101860000130135C002B01D00A2BF9D10690002324
:101870000593169B002BA4D0069A9342A1DD1A0073
:101880005B460699DE88571A099A9B880132724393
:10189000D10F89180A9A4910013A521A0799A020C3
:1018A0007143521895B2169A40005A437B43DC0F9D
:1018B000E4184023D10F89180B9A4910511A89B2A4
:1018C0006410FF33A4B25B1A721E411A091BAA18D6
:1018D0009BB2804692B2280089B20CF057FF3200CA
:1018E000210000200DF07EF8594658468B88169945
:1018F0000B9A59437B439446DA0FD3184022C4888D
:1019000040465E104910614476428B19FF32D31A6B
:10191000621E411AAA189BB2280092B289B20CF03A
:1019200035FF7142220089B200200DF05BF8089B60
:10193000039A995C45E7099B01339846169B9F1AC9
:10194000584644465B46C5889A886C43E00F0019A8
:10195000169C0A9B5443013B40109A46181AE30F09
:101960001B19711E5B10CB1A894699B24023FF33B5
:101970005B1A9BB29C46A0237A43D40FA4185B0049
:10198000641080B2A4B26A1E591A8218091B6346F9
:1019900092B289B20CF0FAFE2A00210000200DF06C
:1019A00021F858465946C58840468B8868435F43AE
:1019B0001699C20F5943FC0F131850464022E419E0
:1019C000A02749106410494464425B10C01AFF32DA
:1019D0000B1980B2D31A7F006A1E8218791A9BB243
:1019E00092B289B20CF0D2FE614289B22A00002084
:1019F0000CF0F8FF089B1978002900D060E6E6E6B5
:101A0000169B002B00DCE2E61F0001239846002312
:101A10000693099394E7C046F0B54E465746DE4616
:101A20004546E0B58FB0994618AB0C911978060081
:101A30008A4611780A92002900D123E20B00002087
:101A400001320A3B5C4263410132C018531E1B78CD
:101A5000002BF6D10B900B0000220A9803E0013214
:101A6000835C002B01D00A2BF9D1199B0892002B23
:101A700003DD089A934200DD9EE15346013BDBB251
:101A80000093012305930023CB4607930993731E0C
:101A90000D93C84B03930A2900D10FE15B46089AC6
:101AA0009B880B9C5A43D00F80180D9A4010101A37
:101AB000079A01345A4380185A46D2882039544331
:101AC000E50F2D190C9C6D10013C651B099C5443BE
:101AD0002D1907241C40661EB441DE08A4190E000F
:101AE0005946564366430C68A419002A47D0002182
:101AF00001914021FF31091A029189B2ADB20691DC
:101B0000002B35D0199A002A00DD6EE0009A0027DC
:101B1000052A62D90722904606E0073E72425641E6
:101B20000137A419BB421CDD464680223E403241AB
:101B300021781142F1D0029B2A00D91B89B20B00F7
:101B400028000CF023FE0122012100200CF04AFFA6
:101B50005B46073E724256419B880137A419BB423F
:101B6000E2DC07215A461940481E8141D288641898
:101B70000199013501310191ADB29142C0DB079B62
:101B8000059A013307930A9B995C059B01330593E2
:101B9000002900D07FE70FB0F0BCBB46B246A94693
:101BA000A046F0BD009B039A5B00D35A28009846DC
:101BB000029B2A00D91B89B20B000CF0E7FD012221
:101BC000012140460CF00EFF5B469B88073E7242A7
:101BD00056410137A419BB42C3DD072680223E408F
:101BE000324121781142F1D0DCE7009B069F052BA2
:101BF00029D90023984607339A464346A84625002C
:101C00001C0056463B003900424640460CF0BEFDE3
:101C10000122012100200CF0E5FE26405B46073E34
:101C2000724256419B88013F0134AD19BFB2A342B5
:101C3000E7DC072119402C005A46481E81414546E1
:101C4000D288641894E70023984607339A4679337C
:101C500099462B0025004446984615E03B00424635
:101C6000390040460CF092FD0122012100200CF0C9
:101C7000B9FE5B469B88073E72425641013F0134E4
:101C8000AD19BFB29C42D4DA56464A46264032418C
:101C90002B781A42E2D0009B039A5B009B5A3900D2
:101CA0004246404604933B000CF070FD01220121A6
:101CB00004980CF097FE5B469B88DCE705980024AF
:101CC00084460A9A099B115C0133099320000B009A
:101CD00008946244002904D106E00130135C002B13
:101CE00001D00A2BF9D1089000230793199B002BF0
:101CF00000D14AE7089A934200DC46E71A005B46A7
:101D00000899DE88571A0B9A9B8801327243D10FCB
:101D100089180C9A4910013A521A0999A020714366
:101D2000521895B2199A40005A437B43DC0FE418CD
:101D30004023D10F89180D9A4910511A89B2FF33E7
:101D40006410A4B29846721E5B1A411A091BAA18A5
:101D50009BB2814692B2280089B20CF017FD320086
:101D6000210000200CF03EFE5B4619999B880D9ADD
:101D700059437B439446DA0FD3185E105B464246C4
:101D800048464910DC88614476428B19D31A621E9A
:101D9000411AAA189BB2280092B289B20CF0F6FC44
:101DA0007142220089B200200CF01CFE0A9B059AA9
:101DB000995CEAE6DCF500100B9B01339846199B11
:101DC0009F1A484644464B46C5889A886C43E00FA4
:101DD0000019199C0C9B5443013B40109B46181A58
:101DE000E30F1B19711E5B10CB1A009199B24023AF
:101DF000FF335B1A9BB29C46A0237A43D40FA418EE
:101E00005B00641080B2A4B26A1E591A8218091BC2
:101E1000634692B289B20CF0B9FC2A00210000207E
:101E20000CF0E0FD48468388C588404668435F4320
:101E3000009A19999446C20F5943FC0F131858463B
:101E40004022E419A02749106410614464425B10E9
:101E5000C01AFF320B1980B2D31A7F006A1E821893
:101E6000791A9BB292B289B20CF090FC614289B2AD
:101E70002A0000200CF0B6FD0A9B1978002900D03A
:101E8000FBE588E6199B002B00DC84E61F0001239C
:101E9000984600230B93089393E7C046F8B5202398
:101EA000494EF35C002B4DD1336998472123F05400
:101EB0000133F35C0700834228D0002857D0346BED
:101EC000756B07F013FC001BA941002900DD73E0CE
:101ED00000D16DE024230122F254B26BF36BB264A3
:101EE000F36407F003FC346B756BB063F16357E088
:101EF000B46BF56B07F0FAFB001BA941F3698B4249
:101F000031DB5DD02123F35C002B1FD0346B756B6C
:101F1000B06BF16B8D4203D800D0F8BD8442FCD980
:101F20002723F35C002BF8D107F0E0FB001BA9414D
:101F3000002903DCF1D1254B9842EED90223FF336F
:101F4000F384EAE72123F35C002BD1D1346B756B6A
:101F500007F0CCFB001BA941F3698B4203DBD5D111
:101F6000B3698342D2D220230022F254CEE7232346
:101F70000122F254326B736B3264736407F0B6FB68
:101F8000B26AF36A04000D000120002112184B41CF
:101F9000B262F362272334637563B06BF16BF7545D
:101FA0002123F25C0133F2540122023BF254B1E7E7
:101FB000064B984200D88DE725230122F2548CE786
:101FC000B3698342CFD39DE7100D022040420F003A
:101FD000F8B52023494EF35C002B4DD13369984767
:101FE0002123F0540133F35C0700834228D00028FA
:101FF00057D0346B756B07F079FB001BA9410029A2
:1020000000DD73E000D16DE024230122F254B26BB5
:10201000F36BB264F36407F069FB346B756BB06308
:10202000F16357E0B46BF56B07F060FB001BA9414F
:10203000F3698B4231DB5DD02123F35C002B1FD091
:10204000346B756BB06BF16B8D4203D800D0F8BD6B
:102050008442FCD92723F35C002BF8D107F046FB20
:10206000001BA941002903DCF1D1254B9842EED990
:102070000223FF33F384EAE72123F35C002BD1D161
:10208000346B756B07F032FB001BA941F3698B427F
:1020900003DBD5D1B3698342D2D220230022F2548C
:1020A000CEE723230122F254326B736B32647364E4
:1020B00007F01CFBB26AF36A04000D000120002146
:1020C00012184B41B262F362272334637563B06B1D
:1020D000F16BF7542123F25C0133F2540122023BED
:1020E000F254B1E7064B984200D88DE72523012230
:1020F000F2548CE7B3698342CFD39DE7600D022091
:1021000040420F00F8B52023494EF35C002B4DD11F
:10211000336998472123F0540133F35C070083426D
:1021200028D0002857D0346B756B07F0DFFA001BFE
:10213000A941002900DD73E000D16DE024230122D4
:10214000F254B26BF36BB264F36407F0CFFA346B02
:10215000756BB063F16357E0B46BF56B07F0C6FACB
:10216000001BA941F3698B4231DB5DD02123F35C75
:10217000002B1FD0346B756BB06BF16B8D4203D8A5
:1021800000D0F8BD8442FCD92723F35C002BF8D1A2
:1021900007F0ACFA001BA941002903DCF1D1254B63
:1021A0009842EED90223FF33F384EAE72123F35C5C
:1021B000002BD1D1346B756B07F098FA001BA94145
:1021C000F3698B4203DBD5D1B3698342D2D220239A
:1021D0000022F254CEE723230122F254326B736BB8
:1021E0003264736407F082FAB26AF36A04000D0085
:1021F0000120002112184B41B262F362272334639D
:102200007563B06BF16BF7542123F25C0133F25428
:102210000122023BF254B1E7064B984200D88DE709
:1022200025230122F2548CE7B3698342CFD39DE783
:10223000F00E022040420F00F8B52023494EF35C17
:10224000002B4DD1336998472123F0540133F35CBF
:102250000700834228D0002857D0346B756B07F0F5
:1022600045FA001BA941002900DD73E000D16DE0B3
:1022700024230122F254B26BF36BB264F36407F0CF
:1022800035FA346B756BB063F16357E0B46BF56B83
:1022900007F02CFA001BA941F3698B4231DB5DD0BA
:1022A0002123F35C002B1FD0346B756BB06BF16B8B
:1022B0008D4203D800D0F8BD8442FCD92723F35CBB
:1022C000002BF8D107F012FA001BA941002903DC0A
:1022D000F1D1254B9842EED90223FF33F384EAE78C
:1022E0002123F35C002BD1D1346B756B07F0FEF921
:1022F000001BA941F3698B4203DBD5D1B36983424B
:10230000D2D220230022F254CEE723230122F2541A
:10231000326B736B3264736407F0E8F9B26AF36A84
:1023200004000D000120002112184B41B262F3623B
:10233000272334637563B06BF16BF7542123F25C90
:102340000133F2540122023BF254B1E7064B9842AA
:1023500000D88DE725230122F2548CE7B36983422C
:10236000CFD39DE7500E022040420F00F8B5202346
:10237000494EF35C002B4DD1336998472123F0542B
:102380000133F35C0700834228D0002857D0346B18
:10239000756B07F0ABF9001BA941002900DD73E064
:1023A00000D16DE024230122F254B26BF36BB264CE
:1023B000F36407F09BF9346B756BB063F16357E01E
:1023C000B46BF56B07F092F9001BA941F3698B42DE
:1023D00031DB5DD02123F35C002B1FD0346B756B98
:1023E000B06BF16B8D4203D800D0F8BD8442FCD9AC
:1023F0002723F35C002BF8D107F078F9001BA941E3
:10240000002903DCF1D1254B9842EED90223FF339A
:10241000F384EAE72123F35C002BD1D1346B756B95
:1024200007F064F9001BA941F3698B4203DBD5D1A6
:10243000B3698342D2D220230022F254CEE7232371
:102440000122F254326B736B3264736407F04EF9FD
:10245000B26AF36A04000D000120002112184B41FA
:10246000B262F362272334637563B06BF16BF75488
:102470002123F25C0133F2540122023BF254B1E712
:10248000064B984200D88DE725230122F2548CE7B1
:10249000B3698342CFD39DE7A00E022040420F00D4
:1024A000F8B52023494EF35C002B4DD13369984792
:1024B0002123F0540133F35C0700834228D0002825
:1024C00057D0346B756B07F011F9001BA941002937
:1024D00000DD73E000D16DE024230122F254B26BE1
:1024E000F36BB264F36407F001F9346B756BB0639E
:1024F000F16357E0B46BF56B07F0F8F8001BA941E6
:10250000F3698B4231DB5DD02123F35C002B1FD0BC
:10251000346B756BB06BF16B8D4203D800D0F8BD96
:102520008442FCD92723F35C002BF8D107F0DEF8B6
:10253000001BA941002903DCF1D1254B9842EED9BB
:102540000223FF33F384EAE72123F35C002BD1D18C
:10255000346B756B07F0CAF8001BA941F3698B4215
:1025600003DBD5D1B3698342D2D220230022F254B7
:10257000CEE723230122F254326B736B326473640F
:1025800007F0B4F8B26AF36A04000D0001200021DC
:1025900012184B41B262F362272334637563B06B48
:1025A000F16BF7542123F25C0133F2540122023B18
:1025B000F254B1E7064B984200D88DE7252301225B
:1025C000F2548CE7B3698342CFD39DE7B00D02206C
:1025D00040420F00F8B52023494EF35C002B4DD14B
:1025E000336998472123F0540133F35C0700834299
:1025F00028D0002857D0346B756B07F077F8001B94
:10260000A941002900DD73E000D16DE024230122FF
:10261000F254B26BF36BB264F36407F067F8346B97
:10262000756BB063F16357E0B46BF56B07F05EF860
:10263000001BA941F3698B4231DB5DD02123F35CA0
:10264000002B1FD0346B756BB06BF16B8D4203D8D0
:1026500000D0F8BD8442FCD92723F35C002BF8D1CD
:1026600007F044F8001BA941002903DCF1D1254BF8
:102670009842EED90223FF33F384EAE72123F35C87
:10268000002BD1D1346B756B07F030F8001BA941DA
:10269000F3698B4203DBD5D1B3698342D2D22023C5
:1026A0000022F254CEE723230122F254326B736BE3
:1026B0003264736407F01AF8B26AF36A04000D001A
:1026C0000120002112184B41B262F36227233463C8
:1026D0007563B06BF16BF7542123F25C0133F25454
:1026E0000122023BF254B1E7064B984200D88DE735
:1026F00025230122F2548CE7B3698342CFD39DE7AF
:10270000000E022040420F0070B5060000240B4D61
:1027100005E001340935E4B2FF35402C0BD031001F
:1027200028680CF089FB0028F3D10022044B1C70B0
:10273000044B9A7070BD0024F7E7C046E03C0220CD
:1027400004880220C03C02207047C0467047C04643
:102750007047C0467047C0460023F0B5CE46474696
:10276000994680B54C4C4D4F4D4E83B0236004F0DC
:1027700029FC0028FBD004F035FC0023984605E036
:10278000002001A905F08CFB00280DD100210020BC
:1027900005F074FB0028F3D14346002BE7D003B0CB
:1027A000C0BCB946B046F0BD6B465B79F02B37D064
:1027B0003B4AF72B20D0117800295BD021688C464A
:1027C000654636494B556346013323606B469B791A
:1027D000F02B31D0F72B40D025684B552B0001331F
:1027E00023606B46DB79F02B41D0F72B2DD022688C
:1027F0008B5401322260C9E74B464D46137027497E
:102800002368CD546B469B79F02B14D0F72B24D042
:102810006B46DB79F02B29D0F72B16D08046B5E735
:10282000012333706B469B793200F02B04D0F72BD9
:1028300012D01A49D0E78046012313706B46DB792A
:10284000F02B14D03900F72BD1D14B4613704A46E8
:1028500023688046CA5499E739004B464D461370A9
:102860002368CD546B46DB79F02BD5D1804601230C
:1028700013708BE76B469B79F02BDDD0F72B08D0DC
:102880006B46DB79F02BF2D0F72B00D07EE70349C3
:10289000DBE70249E1E7C046D03C0220100D0020F2
:1028A00006880220F0B5002385B06A462A4C2B4EDC
:1028B00023600293F03313710121736801A89847D4
:1028C000274F02AD3A682368D15C002931D02970C6
:1028D000591C2160515C002934D06970991C216019
:1028E000515C002933D0A970D91C525C2160002AA8
:1028F0002FD0043304212800EA70236073689847BE
:10290000142006F0FDFE04F05DFB0028DAD004F090
:1029100069FB03E0002003A905F0C2FA00210020B2
:1029200005F0ACFA0028F5D13A682368D15C00299B
:10293000CDD16A46F7230121137101A87368984726
:1029400005B0F0BD0121280073689847F1E7022126
:10295000F9E70321F7E7C046D03C0220080D00202C
:10296000400F0220F0B5DE46574645464E46E0B5DC
:10297000137882468B4615008BB0002B39D09046D9
:102980000022002700240021914600265B2B37D02F
:102990005D2B46D0282B5CD0292B00D173E01A0088
:1029A000FD205B3A02421DD01A00103AD2B2192A19
:1029B0005CD9002E05D06A4608201218D35501377D
:1029C000FFB24A46002A05D06A4610201218D35595
:1029D0000137FFB2002905D06A4618201218D355D6
:1029E0000137FFB20134E4B22B1998462B5D002B5E
:1029F000CCD10BB0F0BCBB46B246A946A046F0BD58
:102A0000002E05D14B46002BECD10029EAD100273E
:102A10000134E4B22B1998462B5D0126002BB5D169
:102A2000E7E7002E08D100260134E4B22B199846BE
:102A30002B5D002BAAD1DCE74B46002BD2D100291D
:102A4000D0D16B4608229B18B146D95500260027E5
:102A5000EAE7002EA8D14A46002AA5D000292CD0AA
:102A60001A00103AD2B28946192AA2D81748104142
:102A7000C0079ED40134E4B22B1998462B5D002B7D
:102A800000D083E7B5E7002E00D08DE74A46002A44
:102A900000D089E7002900D186E76B4618329B18E1
:102AA0004A465946DA555046009302AA04AB00F054
:102AB0002DF8434600211B7871E76A461020121852
:102AC000D15500224946002791466DE7F6FFFFFCED
:102AD00070B5002501240A490A684B6812196B4138
:102AE0000A604B60074A084B107842011218D20066
:102AF0009B1800205A6AFFF735FF012070BDC046C1
:102B0000A814022004880220DC3C0220F0B55746BD
:102B10004E464546DE46E0B59B46D14B89B08046E1
:102B20008A4600249946FF27CE4D079205AE06E05F
:102B3000002200210CF0EEFA30550134E4B22900F5
:102B400007A80CF0F3F900280DD00378402BEFD143
:102B500000230022037000210CF0DCFA4B463840C1
:102B60001B5C3355E9E73478002C10D05346777856
:102B7000186859683A00002309F048F83900200025
:102B80001600994609F000F8C9B28E4206D009B085
:102B9000F0BCBB46B246A946A046F0BD4B46002B52
:102BA000F5D15846B0490CF047F900283ED05846B8
:102BB000AE490CF041F9002800D1CFE05846AC49AD
:102BC0000CF03AF9002800D1F8E05846A9490CF079
:102BD00033F9002800D19EE05846A7490CF02CF9A3
:102BE000002800D134E15846A4490CF025F900280A
:102BF00000D180E15846A2490CF01EF90028C6D148
:102C00000024A04D06E001340935E4B2FF35402C24
:102C100000D199E1286812990CF00EF90028F2D140
:102C20000022994B1C70994B9A70B0E7129B0027B9
:102C300007938B4B06AE9A46FF23994607E0002286
:102C4000002120000CF066FAF0550137FFB2290090
:102C500007A80CF06BF9041E0FD02378402BEED19F
:102C6000002300222370002120000CF053FA4B4671
:102C7000184053461B5CF355E7E74346002B00D151
:102C800085E706AB1D78002D00D180E743461E6B1B
:102C90005F6B1A6C5B6CB61A9F41012132003B00DE
:102CA0007B484942801859410600002900D06EE750
:102CB00078498E4200D96AE70021504299412A00A2
:102CC000002309F087FD1822002308F083FF724ECD
:102CD000724D30607160280006F082FB01220023F3
:102CE0006F490A604B60684A6E4B107842011218B7
:102CF000D2009B185A6A0020FFF734FE77683668C6
:102D000006F054FA684B3200009302953B000194A0
:102D100006F050FA3BE7129B00240793504BFF2725
:102D2000984606AE06E0002200210CF0F3F930557B
:102D30000134E4B2290007A80CF0F8F8002864D0A8
:102D40000378402BEFD100230022037000210CF008
:102D5000E1F9434638401B5C3355E9E7129B0027F5
:102D600007933F4B06AE9946FF23984607E00022A3
:102D7000002120000CF0CEF9F0550137FFB22900F8
:102D800007A80CF0D3F8041E0FD02378402BEED107
:102D9000002300222370002120000CF0BBF94346E1
:102DA00018404B461B5CF355E7E73178002932D1D8
:102DB000002000213A4B18605960E8E6129B00247D
:102DC0000793FF23264F984606AE06E00022002117
:102DD0000CF0A0F930550134E4B2290007A80CF03A
:102DE000A5F800280DD00378402BEFD10023002256
:102DF000037000210CF08EF9434618403B5C3355BC
:102E0000E9E733787278FA54C1E6284B21003000A4
:102E10005B689847BBE6264808F08EFE182108F04C
:102E20008BFE1E4B1C4D98462860C017686018002A
:102E300006F0D6FA2E686F6806F0B8F9434602939A
:102E4000194B3200009301943B0006F0B3F9AFE751
:102E5000129B00240793024BFF27984606AE30E0F2
:102E6000DC7E02201CF2001020F2001028F200107C
:102E700030F2001038F2001040F2001048F200105A
:102E800050F20010E03C022004880220C03C0220E6
:102E9000BFF2FCFF3E771B00F00C0020B0140220B4
:102EA000A8140220DC3C0220D12A0010080D0020CA
:102EB00000796CFC002200210CF02CF93055013413
:102EC000E4B2290007A80CF031F800280DD00378EF
:102ED000402BEFD100230022037000210CF01AF9DF
:102EE000434638401B5C3355E9E7184B210030005E
:102EF0005B6898474BE6129B00240793144BFF270F
:102F0000984606AE06E0002200210CF003F9305589
:102F10000134E4B2290007A80CF008F800280DD00D
:102F20000378402BEFD100230022037000210CF026
:102F3000F1F8434638401B5C3355E9E7054B210067
:102F400030005B68984722E6002469E6F80C002010
:102F5000DC7E0220000D002070B52325354CE3688F
:102F60009847635D002B00D070E02425635D002B43
:102F700000D083E02525635D002B00D092E023255F
:102F80002D4CE3689847635D002B00D0A1E0242519
:102F9000635D002B00D0B0E02525635D002B00D0E1
:102FA000BFE02325254CE3689847635D002B00D0E4
:102FB000CEE02425635D002B00D0DEE02525635D97
:102FC000002B00D0EEE023251D4CE3689847635D9D
:102FD000002B00D0FEE02425635D002B00D012E121
:102FE0002525635D002B00D022E12325154CE368E5
:102FF0009847635D002B00D032E12425635D002BF0
:1030000000D042E12525635D002B00D052E123254D
:103010000D4CE3689847635D002B00D062E12425E6
:10302000635D002B00D072E12525635D002B00D08D
:1030300082E170BD100D0220600D0220B00D022053
:10304000000E0220500E0220A00E0220C34AC44BE4
:10305000117820004A0152182100D2009B189A6B67
:103060002831FFF77FFC002363552425BD4A1378E0
:10307000013B1370635D002B00D17BE7B74AB84B6F
:10308000117820004A0152182100D2009B18DA6BF7
:103090002831FFF767FC002363552525635D002B6E
:1030A00000D16CE7AD4AAE4B117820004A015218AE
:1030B0002100D2009B181A6C2831FFF753FC002323
:1030C00063552325A84CE3689847635D002B00D126
:1030D0005DE7A24AA24B117820004A015218210054
:1030E000D2009B18DA6D2831FFF73CFC00236355B2
:1030F0002425635D002B00D14EE7984A984B117848
:1031000020004A0152182100D2009B181A6E283163
:10311000FFF728FC002363552525635D002B00D1B4
:103120003FE78E4A8E4B117820004A015218210049
:10313000D2009B185A6E2831FFF714FC0023635508
:1031400023258A4CE3689847635D002B00D130E764
:10315000824A834B117820004A0152182100D20084
:103160009B1880331A682831FFF7FCFB0023635556
:103170002425635D002B00D120E7784A784B117835
:1031800020004A0152182100D2009B1884331A688B
:103190002831FFF7E7FB002363552525635D002BEE
:1031A00000D110E76D4A6E4B117820004A01521889
:1031B0002100D2009B1888331A682831FFF7D2FB10
:1031C0000023635523256A4CE3689847635D002B11
:1031D00000D100E7614A624B117820004A01521881
:1031E0002100D2009B18A4331A682831FFF7BAFBDC
:1031F0000023635524255B4A137801331370635D04
:10320000002B00D1ECE6554A554B117820004A01BD
:1032100052182100D2009B18A8331A682831FFF7F2
:10322000A1FB002363552525635D002B00D1DCE65F
:103230004A4A4B4B117820004A0152182100D20013
:103240009B18AC331A682831FFF78CFB00236355B9
:103250002325484CE3689847635D002B00D1CCE6FA
:103260003E4A3F4B117820004A0152182100D200FB
:103270009B18C8331A682831FFF774FB0023635585
:103280002425635D002B00D1BCE6344A344B117811
:1032900020004A0152182100D2009B18CC331A6832
:1032A0002831FFF75FFB002363552525635D002B65
:1032B00000D1ACE6294A2A4B117820004A01521865
:1032C0002100D2009B18D0331A682831FFF74AFB3F
:1032D000002363552325284CE3689847635D002B42
:1032E00000D19CE61D4A1E4B117820004A0152185D
:1032F0002100D2009B18EC331A682831FFF732FB0B
:10330000002363552425635D002B00D18CE6134A0E
:10331000134B117820004A0152182100D2009B184B
:10332000F0331A682831FFF71DFB0023635525256C
:10333000635D002B00D17CE6084A094B1178200020
:103340004A0152182100D2009B18F4331A68283120
:10335000FFF708FB002363556BE6C0460488022094
:10336000DC3C022007880220600D0220B00D022004
:10337000000E0220500E0220A00E0220F0B5DE4604
:10338000454657464E46E0B5C34B8FB01B6898473D
:10339000C24B1B689847C24B1B689847C14B994664
:1033A0009B689847C04B9A469B689847BF4B9B4683
:1033B0009B689847BE4B08939B689847BD4B099301
:1033C0009B689847BC4B98469B689847BB4BBC4D45
:1033D0000693BC4BBC4C0793BC4B0593D0270126EE
:1033E0003F0602E03B6D1E4215D1FFF7B5FD03F02D
:1033F000E9FD0028F6D003F0F5FD03E000200CA95C
:1034000004F04EFD0021002004F038FD0028F5D125
:103410003B6D1E42E9D0FA2000210BAA800009F082
:1034200041FD0028DAD00B9B002B3DD0022B69D048
:10343000042B00D181E0062B00D18BE0092B00D1B9
:103440009AE00C2B00D1A9E00D2B00D1D0E00E2B7F
:1034500000D1F7E00F2BC1D12268636801219C489D
:10346000494208F0B7FB0A225242D31712184B41C7
:1034700001219848494208F0ADFB1822002308F0CA
:10348000A9FB20606160280005F0AAFF2668676834
:1034900005F08CFE00230193059B320000930295FA
:1034A0003B0005F087FE99E70022002349468A6227
:1034B000CB6251468A62CB6259468A62CB620899D6
:1034C00000208A62CB6209998A62CB6241468A6295
:1034D000CB62012200230C920D93079B0CA91A7852
:1034E00053019B18069ADB00944663449A6AFFF7DF
:1034F00039FAFA2200230120920009F0A1FC0B9B6B
:10350000022B95D1012200230C920D93079B0020E2
:103510001A780CA953019B18069ADB009446634461
:10352000DA6AFFF71FFAFA2200230320920009F05B
:1035300087FC0B9B042B00D07DE7280005F050FF93
:10354000FA2200230520920009F07AFC0B9B062B3F
:1035500000D073E7FA2200239200072009F070FCE4
:10356000FFF7A0F9FA2200230820920009F068FC76
:103570000B9B092B00D064E7FA22002392000A205B
:1035800009F05EFCFFF7E8F8FA2200230B20920016
:1035900009F056FC0B9B0C2B00D055E722686368A2
:1035A00001214B48494208F015FB01220023121863
:1035B0004B4101214748494208F00CFB18220023E7
:1035C00008F008FB20606160280005F009FF26680C
:1035D000676805F0EBFD00230193059B3200009323
:1035E00002953B0005F0E6FD0B9B0D2B00D02EE76E
:1035F0002268636801213648494208F0EBFA0A2242
:10360000002312184B4101213248494208F0E2FAE6
:103610001822002308F0DEFA20606160280005F01F
:10362000DFFE2668676805F0C1FD00230193059B56
:103630003200009302953B0005F0BCFD0B9B0E2B66
:1036400000D007E72268636801212148494208F059
:10365000C1FA01225242D31712184B4101211D48D1
:10366000494208F0B7FA1822002308F0B3FA2060A4
:103670006160280005F0B4FE2668676805F096FDD5
:1036800000230193059B3200009302953B0005F057
:1036900091FD0B9BDEE6C046080D0020F80C0020D3
:1036A000000D0020100D0220600D0220B00D022040
:1036B000000E0220500E0220A00E0220DC3C022050
:1036C000B014022004880220F00C0020D12A00103F
:1036D00060DAD9FF00796CFCF0B557464E46454696
:1036E000DE46E0B58BB014AD10CD03262D78D70F94
:1036F000AB4616AD2D78BF18019517AD2D787F100C
:10370000029518AD2D783818039519AD2D7882B231
:10371000049500259146DA0FD218521051188BB239
:103720009A46131B98466300F61A05950695079569
:1037300008953F1B25B236B2240424D45B46013BD6
:10374000DBB29B46994B002409933B004F469946B8
:10375000039B002B2AD1049B002B58D1029B002BEA
:1037600000D088E0019B002B00D0B9E0002E11DBD7
:10377000631B9B000A36013D01349E192DB224B211
:1037800036B2A542E4DA0BB0F0BCBB46B246A9465D
:10379000A046F0BDA4B2A30006360134F61824B248
:1037A00036B2AC42EFDC039B002BD4D0524650190A
:1037B0005A463B194B444044052A00D9CEE00999AA
:1037C0005200525A4021FF31C91A80B289B20B000F
:1037D000059202000AF0DAFF0122012105980BF0A0
:1037E00001F9524640217B194B44A018FF31C91AF8
:1037F000404480B289B20B0002000AF0C7FF0122E8
:10380000012105980BF0EEF8049B002BA6D04A4648
:103810003B1B9B1A524650195A464044052A00D970
:10382000B6E0099952008A5A4021FF31C91A80B284
:1038300089B20B00069202000AF0A8FF01220121C2
:1038400006980BF0CFF84A467B1B9B1A4021524644
:10385000FF31A018C91A404480B289B20B0002009F
:103860000AF094FF0122012106980BF0BBF8029B9D
:10387000002B00D176E74A467B1B9B1A5246101B51
:103880004246801A5A46052A75D8099952008A5A22
:103890004021FF31C91A80B289B20B0007920200A1
:1038A0000AF074FF0122012107980BF09BF84A46A9
:1038B0003B1B9B1A52464021501B4246FF31801A47
:1038C000C91A80B289B20B0002000AF05FFF012220
:1038D000012107980BF086F8019B002B00D145E7EA
:1038E0005246501B4246801A5A463B194B44052A01
:1038F00027D859462D4A49008A5A4021FF31C91A12
:1039000080B289B20B00089202000AF03FFF012248
:10391000012108980BF066F852464021101B4246E0
:103920007B194B44FF31801AC91A80B289B20B004F
:1039300002000AF02BFF0122012108980BF052F837
:1039400014E74021FF31C91A80B289B202000B008E
:103950000AF01CFF012201210020DBE74021FF319A
:10396000C91A80B289B202000B000AF00FFF0122CF
:103970000121002033E74021FF31C91A80B289B20A
:1039800002000B000AF002FF0122012100208CE757
:103990004021FF31C91A80B289B202000B000AF03F
:1039A000F5FE0122012100204BE7C046DCF50010A6
:1039B000F0B5DE4657464E464546E0B589B01C0098
:1039C00012AB80CB91461B7800979A4600239B460A
:1039D0000133059304930393029353460193230009
:1039E00006000D00FFF778FE4B46DB1BDB1B9846FD
:1039F0005346013BDBB2F119052B56D84A4A5B000E
:103A00009B5A89B29B4643469BB29846A0234246A6
:103A10005B009B1A5B1A9BB29A464023FF33591AEC
:103A2000A8B28AB213005146079202000AF0AEFE15
:103A30000122414658460AF0D5FF281980B20200FB
:103A4000079B51460AF0A2FE0122414658460AF061
:103A5000C9FF4023E41BE41BED19A4B2ADB2FF3350
:103A6000671E991BEF1989B2BFB20B003A002800FC
:103A70000AF08CFE2200012158460AF0B3FF4E44A2
:103A80004021FF31891B89B20B003A0028000AF05F
:103A90007DFE2200012158460AF0A4FF09B0F0BCC7
:103AA000BB46B246A946A046F0BD43469BB29846E7
:103AB000A02342465B0089B29B1A5B1A9BB29A46CE
:103AC0004023FF33591AA8B28AB213005146079215
:103AD00002000AF05BFE0122414600200AF082FF4C
:103AE000281980B20200079B51460AF04FFE0122BE
:103AF000414600200AF076FF4023E41BE41BED1949
:103B0000A4B2ADB2FF33671E991BEF1989B2BFB2E1
:103B10000B003A0028000AF039FE220001210020A3
:103B20000AF060FF4E44ABE7DCF5001070B5837B14
:103B30000400458982B0002B00D10225E37BEDB261
:103B4000002B32D11E4A1F4B11784A015218D20065
:103B50009B185A68637C002B01D022001132237C11
:103B6000002B11D0E188208849080918A0886688B0
:103B7000236A4008A489801902310130019400951C
:103B8000FCF726FF02B070BDE188208849080918BB
:103B9000A0886688236A4008A48980190231013010
:103BA00001940095FDF738FFECE7E388A2882188AF
:103BB0006088019526890096FFF7FAFEC2E7C046A5
:103BC00004880220DC3C0220F0B5DE464E46454625
:103BD0005746E0B56F4B8FB01A7B6F49013268468C
:103BE0009B4607F041FF6D48694611300BF068F9BC
:103BF0004023EF22FF33002100200AF0C7FDA0215F
:103C000000204900F0220AF0EDFE03AB9846424640
:103C1000634B13CB13C213CB13C213CB13C203CB0F
:103C200003C25B465F4A1D7B1378EE0099469E42B5
:103C300000DBAAE02D025C4BAD19ED00ED1802236C
:103C400000249A466B78002B08D10136B14500DC80
:103C50007CE00935FF356B78002BF6D04246E31C3B
:103C60009B00D7586968380011300BF029F92B7880
:103C700001345A1E934152465B42934304337B8185
:103C800001230136BB73E4B24E455FDA0935FF35D7
:103C9000082CD7D144460EAF01CCFFF747FFBC42FA
:103CA000FAD180235A465B001380FF3B9370223386
:103CB0009A46033399463D4EF36898474446256833
:103CC000B3886A8893422BD9A9888A18934227DA45
:103CD000F3882A88934223D9E9888A1893421FDA05
:103CE0002423F35C002B03D0AB6A002B00D0984751
:103CF0002523F35C002B03D0EB6A002B00D0984700
:103D00005346F35C002B03D06B6A002B00D098471E
:103D10004B46F35C002B03D02B6B002B00D0984755
:103D20000434A742CBD100235246B3544A46B3844D
:103D3000B35406F02FFB5B469B78002BBCD10FB031
:103D4000F0BCBB46B246A946A046F0BD082CA1D0A7
:103D5000E31C1D00164A042791460022AD0092463E
:103D600000E0E31C42469B00D65849463000092239
:103D7000113008F09FFD43465B5901345F81534683
:103D8000E4B2B373082CECD184E7032500240323A9
:103D9000E0E7C046C03C022058F20010F4060020C4
:103DA000F8F4001005880220DC3C0220F00E02200E
:103DB00060F20010F0B5DE4657464E464546E0B587
:103DC000002393B004206F4A09F03AF80CAB029339
:103DD000002800D0C9E04023EF22FF33002100205B
:103DE0000AF0D4FCA021F022002049000AF0FAFDDC
:103DF00001214942A0200091634B644A7931FDF7CB
:103E000031FCFA20800005F07BFC61486149072203
:103E1000113008F04FFD604C04AD23002A002C3314
:103E200003CB03C21B781120137002AB9C46052202
:103E30006044002108F038FD584B280019680AF04A
:103E4000D5FF0100564808AD11300BF039F82300BA
:103E50002A003C3303CB03C21B882220138002AB11
:103E60009C4604226044002108F01EFD28004D49B4
:103E70000AF0BCFF01004C4812AF11300BF020F8E3
:103E80004023EF22FF33002100200AF07FFCA02115
:103E900000204900F0220AF0A5FD029D23002A001F
:103EA0004C3313CB13C213CB13C22C0001CCFFF73E
:103EB0003DFEA742FAD180233C4A5B001380FF3BC2
:103EC00093702233994603339846394E0392F36830
:103ED000984724239B4601339A46029C2568B38861
:103EE0006A8893422BD9A9888A18934227DAF388E3
:103EF0002A88934223D9E9888A1893421FDA5B46BD
:103F0000F35C002B03D0AB6A002B00D098475346DC
:103F1000F35C002B03D0EB6A002B00D098474B4694
:103F2000F35C002B03D06B6A002B00D0984743460C
:103F3000F35C002B03D02B6B002B00D0984704348C
:103F4000A742CBD100234A46B3544246B384B3546C
:103F500006F020FA039B9B78002BB8D113B0F0BC7D
:103F6000BB46B246A946A046F0BD1A00002105484E
:103F700008F098FF002800D12DE70C9B052B00D1FD
:103F800043E728E710270000441002206CF20010DD
:103F9000F406002084F20010F8F40010D83C02204F
:103FA000380B0020E40C0020D40B0020C03C022081
:103FB000F00E0220F0B5DE4657464E464546E0B5C7
:103FC0000023C3B00020C84A08F03AFF10AB9A465D
:103FD000002800D0B0E04023EF22FF330021002072
:103FE0000AF0D4FBA021F022002049000AF0FAFCDC
:103FF00001214942A0200091BC4BBD4A7931FDF717
:1040000031FBFA20800005F07BFBBA4ABA4B1178ED
:104010000F244A015218D2009B185968B74B1868F0
:104020000AF04EFF52460123002005E01080642B69
:1040300009D00133DBB20232591E0129F6D8D91D4D
:1040400014705170F5E7AE4BAE4E1A000593002385
:10405000137080235B003380FF3BB3700633029301
:10406000063B99469B4606330393A74B00250693D0
:10407000A64B0024A64F07930EE0002C03D14B461D
:10408000002B00D070E00EA8FCF796FB06F082F93A
:10409000B378002B28D03578002DF7D10E977378A0
:1040A000002B0AD19B4B062218685968002307F0A1
:1040B000ADFD1A43E1D00024E5E74023EF22FF33B2
:1040C000002100200AF062FBA021F022490000201C
:1040D0000AF088FC3800FFF729FD0022A0208E4955
:1040E000FDF7EAF87570DDE7002302207E4A08F04C
:1040F000A7FE00282DD14023EF22FF33002100200E
:104100000AF044FBA021F022002049000AF06AFCDA
:1041100001214942A0200091744B804A7931FDF77A
:10412000A1FAFA20800005F0EBFA43B0F0BCBB46E0
:10413000B246A946A046F0BD1A0000216A4808F020
:10414000B1FE002800D146E7109B012B00D15CE7AF
:1041500041E7002164480FAA08F0A4FE0028CAD055
:104160000F9B032BE1D0C6E7029B9B2507339800EA
:10417000C018039B40009C4680B299004023020077
:10418000614449006D0089B2FF33984609325B1AD9
:10419000691A9BB292B289B20AF0F8FA0A220A218D
:1041A0005F480AF01FFC5B465A0094460993534649
:1041B00063445B7804925BB207339800C01853469F
:1041C0009B56400080B299000200C918434649003E
:1041D00089B25B1A0932691A9BB292B289B20AF0AB
:1041E000D5FA0A220A2100200AF0FCFB53465B782C
:1041F00000225BB207339800C01853469A5640001D
:1042000093009B1880B25B00020099B243460932CA
:104210005B1A691A9BB292B289B20AF0B7FAFC2013
:104220000A220A21C0000AF0DDFB5B465A1ED1B209
:10423000D3075B1AD1185B4458004900049A5144D3
:1042400050440AF0BDFF0023059AD356032B00DC2F
:10425000ACE0147053469B785BB298465346424696
:104260001A705246DB78013B5BB2049353704346AD
:104270001F2B00DCB8E00023524698461370049BC5
:10428000102B00DCA8E000235246049353705B46D9
:10429000012B00D109E10CAB9C46049B1225DA1DD1
:1042A00052B293009B185B0099B243469B229B003D
:1042B00043445B009BB25200D21A92B20B920A00A6
:1042C000093292B20C924022FF32D31A9BB20D9364
:1042D0004B46320008933B0046465F4601249B460E
:1042E000904665440A9122E0102700004410022005
:1042F0008CF2001004880220DC3C0220D43C022016
:1043000007880220C03C02204C100220B4F20010AA
:10431000C0060020A8140220A4F20010D0F2001061
:104320007F4A00000134E4B20235BC4224D00023AD
:10433000EB56B342F6D10123049AEB569342F1D1E6
:104340000D9B0C9A0B990A980AF020FAF8200A2281
:104350000A2100020AF046FB08231B21A120079A2C
:104360000093069BFDF77EF90022A0205949FCF737
:10437000A3FF00230893D5E75B464646BB461F00D4
:1043800053461B78039A5BB2934235D06422099B53
:104390005149D21A0FA807F067FB0222FA200FA991
:1043A000FCF78AFF089B4C4699466CE6002B64DBC1
:1043B00000D14FE7012B5CD0022B68D053469B788D
:1043C000013B5BB29846534642461A705246DB7830
:1043D0005BB2049353704AE7002B00DB57E71023CE
:1043E00052460493537052E7002B00DB47E71F232C
:1043F00052469846137042E753465B78029A5BB286
:104400009342C3D15B46524650460133D9B24B1E4C
:104410005B00D25A4B000991C252632948D8B0467A
:104420005E460AF0C9FC1F2107F086FB4DB20AF078
:10443000C3FC0F22C3171B0FC0181040C31A0CAACD
:1044400094460293122363441A000020012105E0E0
:104450004B1CDBB202328E4212D019000023D3561D
:10446000AB42F5D10123029CD356A342F0D148467A
:10447000EEE753469B780133A3E7032313709DE7D0
:104480000028CED1099B46469B4603957EE75346BE
:104490009B785BB29846534642461A705246DB7888
:1044A00001335BB204935370E1E64B46089367E730
:1044B000082101910339094BA120094A00911631C5
:1044C000FDF7AAFA0022A0200249FCF7F5FE00231E
:1044D0000893A4E7A4F20010CCF200104C100220C4
:1044E000C0F20010F0B5DE4657464E464546402322
:1044F000E0B589B0FF33EF220021079000200AF0D9
:1045000045F9A021F022002049000AF06BFAC54BC2
:104510000693282305934023FF339B466B461422C2
:104520009B5E6A461821525E0024019302920EE0BF
:1045300001990A32631A9B009B181BB20293013443
:104540004B1E1BB224B20193A34200DA94E01A007E
:10455000A0337832039204936B4626009A895B4617
:10456000A0369E1BB6B233001000310090460AF010
:104570000DF9F8200122012100020AF033FA25008A
:104580005B46049A78359B1AADB29BB219002A009B
:1045900028009A460AF0FAF8F820012201210002C8
:1045A0000AF020FAA02359461F1BCF1BBFB23B00C5
:1045B0004246404639000AF0E9F8F820012201217C
:1045C00000020AF00FFAA022019B2800D31A5A46D3
:1045D000D31A9AB29046130041462A000AF0D6F840
:1045E000F82078250122012100020AF0FBF92B1B9B
:1045F0009AB210004346414691460AF0C7F8F820A7
:104600000122012100020AF0EDF9019B3900ED1AA7
:10461000ADB23B002A0028000AF0B8F8F8200122C9
:10462000012100020AF0DEF933002A0031002800DF
:104630000AF0ACF8F8200122012100020AF0D2F9B8
:1046400053464A46514648460AF0A0F8F82001224F
:10465000012100020AF0C6F9029A002A00DB67E78E
:10466000A4B2A30006329B181AB20134019B24B2F3
:104670000292A34200DB6FE7069B059A023B0132E0
:104680009BB205920693342A00D047E7B3238C21CE
:10469000722049320AF07AF8F8200C222821000210
:1046A0000AF0A0F9EA23AA22DF2145200AF06EF8D9
:1046B000F82066220C2100020AF094F95F23AA2256
:1046C000542145200AF062F8F82066220C210002ED
:1046D0000AF088F9544B02932D2301934023FF33B2
:1046E00099466B4604269E5F6B4608255D5FF8235E
:1046F0002F009B464E3B00249A463500B846B344F3
:1047000053462100581B4B46F831591A80B289B2E2
:104710000B0002000AF03AF8F82001220121000201
:104720000AF060F953465A46181B4B46991A80B254
:1047300089B202000B000AF029F8F82001220121B9
:1047400000020AF04FF9002F0EDB631B9B000A37B3
:10475000013D0134DF192DB224B23FB2AC420CDC72
:10476000F8239B46AB44CBE7A4B2A3000637013441
:10477000FF1824B23FB2A542C2DA45234546984607
:1047800000244827B044434698B24B46391B591A77
:1047900089B20B00020009F0F9FFF8200122012183
:1047A00000020AF01FF94B462000B91B591A453088
:1047B00080B289B202000B0009F0E8FFF820012264
:1047C000012100020AF00EF9002D0EDBA31B9B0055
:1047D0000A35013E01345D1936B224B22DB2A6422B
:1047E0000CDB45239846B044CDE7A4B2A3000635C0
:1047F0000134ED1824B22DB2A642C4DA029B019A0C
:10480000023B01329BB201920293392A00D068E741
:10481000079804F075FF09B0F0BCBB46B246A94644
:10482000A046F0BDB3FF0000A9FF0000F0B585B0C1
:104830000390837B04004689002B00D10226E37B92
:10484000F6B2002B00D05EE0354A364B11784A01B3
:104850005218D2009B185A68637C002B01D02200AA
:104860001132237C002B3DD0E188208849080918AB
:10487000A08867884008C019A789236A02310130DF
:1048800001970096FCF7A4F804F030FF264D0600CF
:104890000F0004E0002940D003A8FBF78DFF04F0CF
:1048A00025FF801BB9410029F4DDA0214023678842
:1048B0002088A688E488013601344900B6B2A4B243
:1048C000421EC91BFF33DB1BA218891B9BB292B28D
:1048D00089B209F05BFF2200310000200AF082F863
:1048E00005B0F0BDE188208849080918A0886788CC
:1048F0004008C019A789236A023101300197009648
:10490000FDF78AF8C0E7E388A288218860880196CD
:1049100027890097FFF74CF896E7A842BCD9C4E76F
:1049200004880220DC3C0220BFC62D0010B50248DE
:10493000FFF77CFF10BDC046A40C002010B5024854
:10494000FFF774FF10BDC0463C0C00200F4B10B5A4
:104950001A005B6E84B00093643293886A46938039
:104960006B460822981D002107F09EFF6846084903
:104970000AF03CFA074C0100200011300AF0A0FABE
:104980002000FFF753FF04B010BDC046F8F400103C
:10499000DC0C00206C0B002010B50248FFF746FF2E
:1049A00010BDC046A00B0020F0B5DE464E46454681
:1049B0005746E0B5C94CA544C94CA3681D68C94B0E
:1049C000D888994607F0C4FB0022C74B07F04FFB7D
:1049D00007F0D6FB2900FCF72BFB22790023012AE4
:1049E00000D1A5E1022A00D121E1033AD2B2052A81
:1049F00010D8BE4B92009B589F465C46FF228021F8
:104A00008900521806A98C46B94962448C46002197
:104A1000624411700022B748B74982738A73082B29
:104A200000D9F2E09C460025624606ABFF26984678
:104A3000A818002400218246464419E00A2A01D120
:104A40000131C9B28D4210D851450EDA002C01D186
:104A50000A2A0AD0802706A88046BF00E7194744E3
:104A6000013FFF3F01343A70E4B20133B34202D058
:104A70001A78002AE2D180239B00E41806AB9846FE
:104A800000234444013CFF3C23704B466246DB88D4
:104A90005A435310049346AB1A78002A00D193E08E
:104AA0000223FF33434419000193002013000A3B03
:104AB0005C4263410131C0184B1E1B78002BF6D1BC
:104AC00013000024019905E001314B1E1B780134CD
:104AD000002B01D00A2BF7D10023A34602930393A6
:104AE000431C05930A2A00D177E04B465846998823
:104AF000059D4843C30F1B1802985B1048435B4257
:104B00009F331B184846C488049E6543E80F40192C
:104B100040103536361A0398203A6043361807207D
:104B20000840451EA8416243CD084019424348460B
:104B30000768BF18002C3ED0002292464022FF3268
:104B4000D31A9846B6B2002935D0002506E0073CB6
:104B500063425C4101353F198D421CDA07248023F2
:104B60002C4023413A781342F1D04346591B89B275
:104B70000B003200300009F009FE012101225F48DC
:104B800009F030FF4B46073C998863425C41013590
:104B90003F198D42E2DB4B46DA8807230B40581E53
:104BA0008341FF1801239C46E244524503DD013650
:104BB000B6B20029C9D1029B01330293019B1A7836
:104BC00001330193002A8DD187239B009D44F0BCC3
:104BD000BB46B246A946A046F0BD039B01330393F2
:104BE000019B1A78002AEFD018000021130003E07F
:104BF0000131435C002B01D00A2BF9D1019B8B467C
:104C000001330193002302936CE7093BE578DBB2A3
:104C10009D4201D31D00E3700123002D03D0837357
:104C200008339C4600E78B7308339C46FCE64B46F2
:104C3000D88807F08DFA324D0022324B07F017FA70
:104C400007F09EFA2900FCF7F3F9A36800219E689B
:104C50000025012300220A27A24622E00A2826D0A6
:104C6000182D51D9802506ACA446AD00204C55190D
:104C70006544A446802465442F70551CA400EDB201
:104C80002D1906ACA4461A4C6544A4466544287008
:104C9000012501330232DBB2D2B20131C9B2FF2A9F
:104CA00018D0705C002800D11FE32028D6D18020C6
:104CB00006ACA4460E4D800010186044AC4601328C
:104CC000604401330131D2B200250770DBB2C9B2B2
:104CD000FF2AE6D15446FF2291E6C046E4FDFFFFDD
:104CE000C03C02203C1002200000E03F38F30010DE
:104CF00000FEFFFF6409002030090020FFFF0000D4
:104D0000F0F200100000F83F8024A4001419009471
:104D100006ACA446009C01326444A4460094E44CD2
:104D20000135A046C4446446D2B22070EDB2B4E767
:104D30004B46D88807F00CFADE4D0022DE4B07F018
:104D400096F907F01DFA2900FCF772F90A20A3680A
:104D500000215E680025012300228246A34622E04E
:104D60008027BF00182D46D906ACA446D519654446
:104D7000A846CF4D5746AC46454665442F70802720
:104D8000A446551CBF00EDB2ED19C94F6544BC46A1
:104D900065442870012501330232DBB2D2B2013101
:104DA000C9B2FF2A18D0705C002800D1A0E20A28FE
:104DB000D6D1802506AFBC46AD00BD4F5519654420
:104DC000BC460132654401330131D2B22870DBB2F6
:104DD0000025C9B2FF2AE6D15C46FF228021890066
:104DE000521806A98C46B24962448C46002162449E
:104DF00011702279F6E506ACA446D7196744BC4683
:104E0000AB4F0132B846C444674601353870D2B260
:104E1000EDB2C4E74B46D88807F09AF9A74D0022B7
:104E2000A54B07F024F907F0ABF92900FCF700F9CE
:104E30000A20A3680021DF690025012300228246A1
:104E4000A34624E00A2828D0182D00D8E7E18025C1
:104E500006ACA446964EAD0055196544B446564678
:104E600065442E708026A446551CB600EDB2AD19DF
:104E70008F4E6544B44665442870012501330232E3
:104E8000DBB2D2B20131C9B2FF2A00D1B5E5785CFC
:104E9000002800D1C0E12028D4D1802006ACA4464F
:104EA000834D800010186044AC4655466044013282
:104EB00001330570D2B20025DBB2E3E74B46D88858
:104EC00007F046F97E4D00227B4B07F0D0F807F043
:104ED00057F92900FCF7ACF80A20A36800211F6AE3
:104EE0000025012300228246A34624E00A2828D078
:104EF000182D00D8E8E1802506ACA4466C4EAD0024
:104F000055196544B446564665442E708026A4461D
:104F1000551CB600EDB2AD19654E6544B446654406
:104F20002870012501330232DBB2D2B20131C9B29D
:104F3000FF2A00D161E5785C002800D16CE12028CF
:104F4000D4D1802006ACA446594D8000101860448E
:104F5000AC4655466044013201330570D2B200259B
:104F6000DBB2E3E74B46D88807F0F2F8554D002254
:104F7000514B07F07CF807F003F92900FCF758F8CB
:104F80000A20A3680021DF68002501230022824651
:104F9000A34624E00A2828D0182D00D850E1802507
:104FA00006ACA446424EAD0055196544B44656467B
:104FB00065442E708026A446551CB600EDB2AD198E
:104FC0003B4E6544B44665442870012501330232E6
:104FD000DBB2D2B20131C9B2FF2A00D10DE5785C53
:104FE000002800D118E12028D4D1802006ACA446A6
:104FF0002F4D800010186044AC4655466044013285
:1050000001330570D2B20025DBB2E3E74B46D88806
:1050100007F09EF82C4D0022274B07F028F807F0E8
:10502000AFF82900FCF704F80A20A36800215E69A4
:105030000025012300228246A34622E0182D00D835
:1050400020E1802506ACA446194FAD0055196544F2
:10505000BC46574665442F708027A446551CBF00A8
:10506000EDB2ED19124F6544BC4665442870012528
:1050700001330232DBB2D2B20131C9B2FF2A00D110
:10508000BBE4705C002800D1C6E00A28D6D1802598
:1050900006ACA446064FAD0055196544BC46013226
:1050A000654401332870D2B20025DBB2E4E7C04684
:1050B00000FEFFFFE8F200100000F83F28F30010A8
:1050C00030F30010F8F2001010F300104B46D888AF
:1050D00007F03EF8874D0022874B06F0C8FF07F027
:1050E0004FF82900FBF7A4FF0A20A36800211F69DD
:1050F0000025012300228246A34624E00A2827D067
:10510000182D00D8ADE0802506ACA4467B4EAD003E
:1051100055196544B446564665442E708026A4460B
:10512000551CB600EDB2AD19744E6544B4466544E5
:105130002870012501330232DBB2D2B20131C9B28B
:10514000FF2A00D159E4785C002865D02028D5D109
:10515000802006ACA446694D800010186044AC461F
:1051600055466044013201330570D2B20025DBB2EE
:10517000E4E74B46D88806F0EBFF614D00225E4B1A
:1051800006F075FF06F0FCFF2900FBF751FF0A202F
:10519000A36800219F690025012300228246A346BF
:1051A00024E00A2827D0182D7DD9802506ACA446F6
:1051B000524EAD0055196544B446564665442E70AE
:1051C0008026A446551CB600EDB2AD194B4E654481
:1051D000B44665442870012501330232DBB2D2B2F5
:1051E0000131C9B2FF2A01D1FFF707FC785C002822
:1051F00012D02028D5D1802006ACA4463F4D800097
:1052000010186044AC4655466044013201330570C5
:10521000D2B20025DBB2E3E75C46FFF7F0FB802665
:1052200006ACA446B60096196644B446334E013225
:10523000B046C444664601353070D2B2EDB221E6C4
:10524000802606ACA446B60096196644B4462B4E9A
:105250000132B046C444664601353070D2B2EDB278
:10526000B8E6802606ACA446B60096196644B44655
:10527000224E0132B046C444664601353070D2B287
:10528000EDB25BE7802706ACA446BF00D7196744A0
:10529000BC461A4F0132B846C444674601353870DF
:1052A000D2B2EDB2E8E6802606ACA446B600961966
:1052B0006644B446114E0132B046C44466460135D8
:1052C0003070D2B2EDB28BE7802606ACA446B600B1
:1052D00096196644B446094E0132B046C444664647
:1052E00001353070D2B2EDB220E65446FFF787FBAD
:1052F0005C4673E504F300100000F83F00FEFFFF7A
:105300001CF30010F0B5DE4657464E464546E0B564
:10531000002393B00020D24A07F092FD002800D06D
:1053200046E24023EF22FF330021002009F02EFA4D
:10533000A021F0220020490009F054FB012149423C
:10534000A0200091C74BC84A7931FCF78BF9FA20AD
:10535000800004F0D5F9C54BC54C1E78C54B7501CE
:10536000AF19FF00E7197968186809F0A9FDC24B69
:10537000042218009B46C14B11301900984607F0D3
:1053800099FABF4B41461800042211309A4607F0A3
:1053900091FA396BBB480B78002B00D1D9E101237E
:1053A0008373113009F08CFDAB19DB00E318596DE4
:1053B000B5480B789846002B00D1BAE101278773D6
:1053C000113009F07DFDB14803228773B0491130D7
:1053D00007F070FAAB19DB00E318996FAD480B7852
:1053E0009846002B00D194E101278773113009F012
:1053F00067FDA94803228773A849113007F05AFABC
:10540000AB19DB00E3189C331968A5480B78002B17
:1054100000D177E101238373113009F051FDAB19FD
:10542000DB00E318C03319689E480B789846002BC0
:1054300000D157E101278773113009F041FD9A48E7
:10544000032287739949113007F034FAAD19ED0042
:105450006419E434216896480D78002D00D1EFE0FE
:1054600001248473113009F02BFD924803228473C8
:105470009149113007F01EFA8023904A904E5B004C
:105480000392904A3380FF3BB370914600238E4DC8
:105490002DE006AC22008D4B743383CB83C283CBCB
:1054A00083C283CB83C283CB83C27378002B00D0AB
:1054B00056E10121864B87481A685B68494206F02D
:1054C00089FB8549020005A806F0CEFA504605A9D9
:1054D000113009F0F5FC5046FEF728FB2000FBF7E1
:1054E00017F904F057FFB378002B57D03378002B0F
:1054F000CFD0022B00D17AE0012BF2D106AC2200F2
:10550000039B543383CB83C21B68136073780AAA4E
:105510009046002B00D08CE1EB6898472768AA885A
:1055200079888A422BD9BB885B189A4227DAEA88A5
:1055300039888A4223D9FB885B189A421FDA2423D0
:10554000EB5C002B03D0BB6A002B00D098472523CF
:10555000EB5C002B03D0FB6A002B00D09847232381
:10556000EB5C002B03D07B6A002B00D098472623EE
:10557000EB5C002B03D03B6B002B00D0984704342E
:105580004445CBD100232322AB540022AB842633E5
:10559000EA5404F0FFFEB378002BA7D100230220C9
:1055A0002F4A07F04DFC002800D00EE14023EF22E7
:1055B000FF330021002009F0E9F8A021F0220020AB
:1055C000490009F00FFA01214942A0200091254B22
:1055D000424A7931FCF746F8FA20800004F090F84E
:1055E00013B0F0BCBB46B246A946A046F0BD06AC1F
:1055F0002200324B243383CB83C283CB83C283CB41
:1056000083C283CB83C27378002B00D0EAE00121F0
:105610002F4B30481A685B68494206F0DBFA2E4986
:10562000020005A806F020FA584605A9113009F035
:1056300047FC5846FEF77AFA2000FBF769F850E776
:10564000274C857321000222113007F033F91948E5
:10565000022285732100113007F02CF90CE7C046B7
:1056600010270000441002208CF200100488022051
:10567000DC3C0220D43C02202005002050F3001026
:1056800054050020280700205C0700209007002018
:1056900058F30010C4070020F80700205CF3001046
:1056A0002C080020600800209408002060F30010FF
:1056B000C8080020FC08002064F3001078F50010F2
:1056C000C03C0220C8170220F00E0220F8F400109F
:1056D000F00C002060DAD9FFCCF20010D0F20010FC
:1056E00054F300105F4F837339000222113007F02A
:1056F000E1F843465C48022283733900113007F019
:10570000D9F8A3E6837302225649113007F0D2F884
:1057100085E6544F837339000222113007F0CAF82E
:1057200043465248022283733900113007F0C2F811
:1057300066E64C4F837339000222113007F0BAF845
:1057400043464B48022283733900113007F0B2F808
:1057500040E6837302224349113007F0ABF823E699
:10576000444B4549180068305F180200002102C30D
:105770009A42FCD168320300974201D06830F6E7C4
:105780004023EF22FF330021002008F0FFFFA0217B
:10579000F0220020490009F025F912AB27009846B5
:1057A00001CFFEF7C3F94745FAD10023737080E6B5
:1057B0000021324806AA07F075FB002800D1B0E5A9
:1057C000069B012B00D1C6E5ABE500212B4806AABC
:1057D00007F068FB002800D1E8E6069B032B00D108
:1057E000FEE6E3E6484668304B460200002102C36D
:1057F0009342FCD1224F68320300BA4201D0683094
:10580000F5E74023EF22FF330021002008F0BEFF20
:10581000A021F0220020490009F0E4F812AB270093
:10582000984601CFFEF782F9B845FAD1002373708C
:10583000EDE64023EF22FF330021002008F0A6FF11
:10584000A021F0220020490009F0CCF82700FFF742
:10585000ABF801CFFEF76AF94745FAD10023737020
:105860005AE6C04654F3001094080020F8070020C0
:1058700090070020C81702206025000010270000B4
:10588000283D0220842270B5144CD201A0182300B8
:10589000002213491A8059609A600933FF3383420A
:1058A000F8D184256D002A000021200006F0FCFFBD
:1058B000012323700B4B2A0063600B4B6019A3601C
:1058C000002106F0F1FF02238622FF336353074BCA
:1058D0005200A350064B0432A35070BDDC3C0220A2
:1058E00060F2001014F20010C93B001084F20010A6
:1058F000B53D0010F0B54E464546DE465746E0B58C
:105900000024C04EC04D85B001E00134E4B2630113
:105910001B19DB00EB183100586809F08DFA0028DC
:10592000F3D1BA4F013CE3B29B463B78002B15D034
:10593000B74800218046B74800268146B648002275
:1059400082463C2B1CD0BB5D3E2B1ED03C2B01D095
:10595000132B0AD10136BB5D002BF2D105B0F0BC90
:10596000BB46B246A946A046F0BD10201C008443A9
:10597000F0D0002AEED0684643540131C9B2E9E7BD
:10598000002301220021BB55E4E7002AE2D00023D6
:105990006A465354009AA14B9A4225D0A04B009AD4
:1059A0009A4232D09D4B029A9A4207D09C4B029A5F
:1059B0009A4248D0013600220021CCE76A46994B32
:1059C00092899A42F2D16B469B7B002BEED16846BE
:1059D000954909F031FA002850D1944B0136BA1993
:1059E0001A6000210022B6E76A468E4B92889A42DE
:1059F000D4D16B469B79002BD0D1694602A809F01F
:105A00005FFA013600220021A5E76A46884B92889A
:105A10009A42C7D16B469B79002BC3D15C4669463D
:105A200002A8013409F04CFAE3B29B465A46814B76
:105A30001A70530180225B44DB00EB1852001A807D
:105A40007D4A9A60B6E76A46794B92899A42B1D10B
:105A50006B469B7B002BADD14146684609F0ECF9C3
:105A6000002818D15B465B015B440136DB00BA19A4
:105A7000EB18DA605A60002100226CE768466F4933
:105A800009F0DAF90136002895D16D4BBA191A6080
:105A9000002100225FE74946684609F0CDF9002859
:105AA0000AD15B465B015B440136DB00BA19EB1897
:105AB0001A62002100224EE75146684609F0BCF9FF
:105AC00000280AD15B465B015B440136DB00BA1952
:105AD000EB185A62002100223DE76846594909F057
